:10A000000060002009E6000081F500008DF50000E9
:10A010008DF500008DF500008DF500008DF5000038
:10A020008DF500008DF500008DF500008DF5000028
:10A030008DF500008DF500008DF500008DF5000018
:10A040008DF500008DF500008DF500008DF5000008
:10A050008DF500008DF500008DF500008DF50000F8
:10A060008DF500008DF5000089FE00008DF50000E3
:10A070001DED0000CDF100008DF500008DF5000014
:10A080008DF50000DD0001008DF500008DF500006C
:10A090008DF500008DF500008DF500008DF50000B8
:10A0A0008DF500008DF500008DF500008DF50000A8
:10A0B0008DF500008DF500008DF50000C9E600006B
:10A40000FFFFFFFFFFFFFFFFFFFFFFFF7EFFFFFFDD
:10A5100010B5064C2378002B07D1054B002B02D039
:10A52000044800E000BF0123237010BD08E1FF1FB5
:10A53000000000000848010008B5084B002B03D0BC
:10A540000748084900E000BF07480368002B03D014
:10A55000064B002B00D0984708BDC0460000000005
:10A56000084801000CE1FF1F08E1FF1F0000000088
:10A57000164B002B00D1144B9D46402292029A1A92
:10A58000924600218B460F461348144A121A05F0D2
:10A590001EFE0F4B002B00D098470E4B002B00D017
:10A5A00098470020002104000D000D48002802D02B
:10A5B0000C4800E000BF05F0DBFD2000290003F09F
:10A5C000F3FE05F0BFFDC04600000800006000205B
:10A5D000000000000000000008E1FF1F30380020EC
:10A5E0000000000000000000002941D010B4041C4D
:10A5F0004C40A44601230022002900D549420028EE
:10A6000000D5404288422CD301242407A14204D221
:10A61000814202D209011B01F8E7E400A14204D201
:10A62000814202D249005B00F8E7884201D3401A18
:10A630001A434C08A04202D3001B5C0822438C083A
:10A64000A04202D3001B9C082243CC08A04202D3A4
:10A65000001BDC082243002803D01B0901D0090994
:10A66000E3E7101C6446002C00D5404210BC704744
:10A67000002806D003DB0020C043400801E0802012
:10A68000000607B4024802A14018029003BDC0466C
:10A69000190000000029EBD003B5FFF7A7FF0EBC9F
:10A6A0004243891A1847C0467047C046F0B556461F
:10A6B00044465F464D46F0B41F1C0B031B0B9846E7
:10A6C0004B0087B0041C81465B0DC80F161C9A46D0
:10A6D0000090002B51D06A4B9A4531D080224146E0
:10A6E00052030A43630FD2001A43664B904600257B
:10A6F000E20091469A44002402953B031B0B9B46C3
:10A70000FD0F7B00311C5B0D019560D05C4A9342CC
:10A7100054D08021584649030143720FC9001143A8
:10A72000584A8B469B18F1000020009A04436A4067
:10A7300003920F2C00D9ADE0534EA4003459A74624
:10A74000404604436ED100210225082488468946EC
:10A750000295D2E7009C0298C3464946019402281C
:10A7600064D0032800D1ABE2012800D038E2019A7E
:10A77000002402400025A14660E0434623434AD01E
:10A780004046002800D1C0E100F0D0FD031E272B79
:10A7900000DDB3E128210D1A211C083B4246E940A7
:10A7A0009A400D1C1543221C9A40A8469146374BEF
:10A7B00000251B1A9A46002402959EE75A46164326
:10A7C0000320002EB1D1B34600210220ADE75A4646
:10A7D00032431BD05B46002B00D18AE1584600F083
:10A7E000A5FD272800DD7DE12822171A011C321C57
:10A7F00008395B46FA408B40171C1F43331C8B40C3
:10A80000BB46191C214B1B1A00208EE70027BB46B4
:10A810000021012089E7002001250424804681468B
:10A8200002956AE703250C24029566E7019C0394D0
:10A83000039D01222A400024114DA1460020002141
:10A840002403260B0C0D2405114B34432D05234006
:10A850002B435B005B08D207191C4846114307B025
:10A860003CBC90469946A246AB46F0BD00228024EF
:10A8700024039146024DE1E700240025A146DDE7CF
:10A88000FF07000001FCFFFF504401000DFCFFFF2B
:10A89000FFFF0F805546ED1A0495D84500D953E1C6
:10A8A00000D14EE1049C0025013C4E4604944746ED
:10A8B000A946584603020C0E1C430902250C23042A
:10A8C0001B0C0091381C291C019300F0E1FC01993C
:10A8D00083464143381C8A46291C00F01DFD330C79
:10A8E000090419438A450CD95B460919013B8C427E
:10A8F00000D947E18A4500D844E1022252429344FC
:10A9000009195346CB1A181C291C984600F0C0FCA4
:10A91000071C0198291C78438246404600F0FCFC45
:10A9200036040B04360C33439A4509D91B197A1E99
:10A930009C4200D924E19A4500D821E1023F1B192D
:10A940005E4632041743380CBB46009E009F5146BA
:10A950003F0C32045B1A5946BA46120C0F043F0CE6
:10A96000904651467A434F434146414356467043D1
:10A97000CF19160CBE19B14202D980277F02C01927
:10A98000310C12043604120C4018B618834200D25F
:10A99000C4E000D1BEE0191A4846861BB145BF414C
:10A9A0007F42CF1BA74200D113E1291C381C00F0C5
:10A9B0006FFC019902904143381C8946291C00F024
:10A9C000ABFC330C0904194389450CD9029B0919C6
:10A9D000013B8C4200D9FFE0894500D8FCE0029F92
:10A9E0000919023F02974F46CF1B381C291C0597B7
:10A9F00000F04EFC071C0198291C784381460598FD
:10AA000000F08AFC36040904360C0E43B14509D91E
:10AA100036197B1EB44200D9E0E0B14500D8DDE034
:10AA2000023F3619029D4946761A290439430B0420
:10AA300057460A0C1B0C40464546584355437B433A
:10AA40007A43EB18070CDB199D4202D980256D0271
:10AA500052191D0C00041B04000C52191B189642BD
:10AA600035D300D1FCE001231943049E994FF51919
:10AA7000002D00DCA1E0480709D00F230B40042B78
:10AA800005D00B1D8B42894149428B44191C5A4603
:10AA9000D20107D5904B5C46049E80271C40FF00E6
:10AAA000A346F5198D4B9D427ADD039C012222407D
:10AAB00000248B4DA146C1E680242403474627424B
:10AAC0004CD13C432403240B009A854DB6E636193D
:10AAD000481EB4425ED9011C9642C4D1009E9E42DB
:10AAE000C1D1C2E7031C283B311C99408B46002191
:10AAF00088E6301C00F01AFC203072E6283B211C4E
:10AB0000994000228846914651E6201C00F00EFC38
:10AB100020303BE60021B14500D33DE7009F5A4677
:10AB2000B944B945BF417F423F19FB18013A9C42E5
:10AB30001ED2984200D97EE000D1B5E0191A9346A2
:10AB40002AE7894500D8ADE648464646424677089A
:10AB5000D3074608C0071E438146AAE6584620424E
:10AB600012D1044324032A1C240B89465C4D65E65C
:10AB7000A342E3D1009F4F45DBD9211A93460BE74F
:10AB8000171CDDE69B46BCE63C432403240B009ADD
:10AB9000534D53E6B24259D800D18AE0011C62E716
:10ABA0005F46C9087B07039E0B437C026D050122AB
:10ABB0009946240B6D0D324040E64A4B049FDB1B47
:10ABC000382B10DD039C0122224000240025A146E1
:10ABD00034E60121494248E7029304E71F1C21E7BC
:10ABE000019C039441E71F2B40DC3F48049F0C1C51
:10ABF0003A1858469140DC40904020430A1C511EB0
:10AC00008A41011C11435A46DA40131C480709D0F7
:10AC10000F220A40042A05D00A1D8A42894149426E
:10AC20005B18111C1A0234D5039C01222240002417
:10AC30000125A14602E6009F02214942B9448B4406
:10AC4000B945894149420919CB18A4E6009D881EDF
:10AC50006900A942AD416D422C19361900913AE7BD
:10AC6000002B00D033E70024009437E71F4A049CF0
:10AC70005D46121BD5402A1C202B1FD01C4E5F4660
:10AC8000A3199F403B1C19434B1E994111430023BC
:10AC9000BCE75A07C9080A43039F91465B02012299
:10ACA0001C0B3A400025C9E54E45C4D89346002107
:10ACB00072E6009F9F42C9D3011C0FE70023E2E721
:10ACC000802424035F463C432403240B019A8946D5
:10ACD000034DB3E5FF030000FFFFFFFEFE0700008A
:10ACE000FF07000002FCFFFF1E040000E2FBFFFF65
:10ACF0003E040000F0B5564644465F464D46F0B46B
:10AD00001F1C0B031B0B9A464B0087B0041C80468C
:10AD10005B0DC80F161C02938146002B68D0694B4F
:10AD20000299994232D08022534652031A43D200EC
:10AD3000630F1A439246644AE000891880460291E4
:10AD4000002400253B031B0B9B467800FB0F321CA5
:10AD5000400D039300D175E05A4B984269D0802290
:10AD6000594652030A43730FD2001A43564B934677
:10AD7000C018F200002303994E4671401C430F2C6B
:10AD800000D9A9E0514EA4003459A74653461C43AC
:10AD900000D087E00025AA46A84608240225D1E76E
:10ADA0004946022D6CD0032D00D117E2012D00D0B1
:10ADB00058E10D40EDB20024A9460023A046002032
:10ADC000002125030A0D1C052D0B1205404B2A43BB
:10ADD000134023435B004C465B08E207191C4046C6
:10ADE000114307B03CBC90469946A246AB46F0BD25
:10ADF0005346234350D05346002B00D184E15046A4
:10AE000000F094FA031E272B00DD76E128210D1AAD
:10AE1000211C083B5246E9409A400D1C1543221C58
:10AE20009A40AA4690462B4B00241B1A02930025F9
:10AE300088E75B461E430323002E9CD1B3460022C5
:10AE4000022398E75B46334321D05846002800D1BF
:10AE50004EE100F06BFA272800DD42E128210F1AAD
:10AE6000021C311C083A5B46F94093400F1C1F43FB
:10AE7000331C9340BB461A1C164B181A00237AE762
:10AE800001230B4000249946A0460E4B97E700276C
:10AE9000BB46002201236EE7002104248A4688462F
:10AEA00001254FE70C2403254CE700258024A94603
:10AEB0002403A846034B82E7DA46904603991D1CFB
:10AEC0006FE7C046FF07000001FCFFFF9044010050
:10AED000FFFF0F800DFCFFFF029F160C3818049037
:10AEE0004046070C0004000C1204120C031C5343D0
:10AEF000041C3D1C7443554398463B1C7343641922
:10AF0000A44644460293230C63449D4204D9029D07
:10AF1000802464022D1902951D0C039545462C04CE
:10AF20001B04240C1C1905945C46230C051C584377
:10AF30002404240C8446381C604365435F438146E7
:10AF4000CC44280C6044BB46814502D980277F024F
:10AF5000BB442D04070C2D0C000440195546BC467B
:10AF60002F04E3448446280C3D0C2F1C5743B8465D
:10AF70002F1C77434243B94647463F0C9144BA469B
:10AF8000D14446434A4502D980225202B6184F4660
:10AF90003A0CB6183A0447463F043F0CB8462F1CFB
:10AFA00067435D434443584365190190380C2D189D
:10AFB0004244B846AC4204D9019880235B02C018D1
:10AFC0000190039C029F201C6044C0196045A4416D
:10AFD00047466442A4462B043C049946240C4C4446
:10AFE000A046D8448018C246E24490429241574657
:10AFF00052429146F219E245BF417F424B46BC4660
:10B00000D845BF41D4187F4263461F432D0C7F199A
:10B01000B24292414C45AD4152426D421543019EB0
:10B020007D19AB19E20D5B02059F134342023A43BF
:10B030009A46531E9A41C30D101C184364022043C4
:10B0400080465046C0010DD5454601225646049C17
:10B050006B082A401A43F30701341A437608049414
:10B060009046B246049E634FF319002B61DD4046C3
:10B0700040070BD00F2244462240042A06D0424605
:10B080000432424580414042824490465546ED019B
:10B0900007D5594B5646049F80201E40C000B2463B
:10B0A0003B18564A934200DDEAE644465546E2081C
:10B0B0006807104301226C025B050A408046240B9E
:10B0C0005B0D91467BE6DA4690461D1C69E68024BE
:10B0D0002403574627421CD13C432403240B484BEE
:10B0E0006DE6031C283B311C99408B460022C3E6C9
:10B0F000301C00F01BF92030ADE6283B211C9940A4
:10B1000000228A4690468EE6201C00F00FF920307F
:10B1100078E65846204207D1044303992403240BC0
:10B1200089469046364B4AE63C432403240B344B75
:10B1300045E6344B049E9B1B382B06DD01230B4058
:10B1400000249946A046002339E61F2B25DC049CE9
:10B150002D4D46466019524644468640DC408240AA
:10B160005746301C2243DF40441EA04102433B1C93
:10B17000540709D00F201040042805D0101D90421C
:10B18000924152429B18021C1D021AD501230B400A
:10B1900000249946A046012311E61C48049C55460C
:10B1A000001BC540281C202B16D0194E5746A2194B
:10B1B00097403A1C43461A43531E9A4102430023C8
:10B1C000D6E758075B02D2081C0B01230B40104343
:10B1D000994680460023F2E50022EBE78024240311
:10B1E00050460123044319402403240B8946044B91
:10B1F000E5E5C046FF030000FFFFFFFEFE0700007D
:10B20000FF07000002FCFFFF1E040000E2FBFFFF3F
:10B210003E040000F8B5041E31D0C70F00D04442F0
:10B22000201C00F083F8184D2D1A0A2819DD0B3860
:10B23000844024036D05240B6D0D3A1C002600206C
:10B2400000210B0D2403240B1B0523430F4C2D055C
:10B250001C402C4364006408D307211C301C194394
:10B26000F8BD061C1536231CB3401E1C0B23181AF0
:10B27000C44024036D05240B6D0D3A1CDFE700224A
:10B28000002500240026DAE71E040000FFFF0F80DF
:10B29000002934D00123002210B488422CD3012489
:10B2A0002407A14204D2814202D209011B01F8E71E
:10B2B000E400A14204D2814202D249005B00F8E7D7
:10B2C000884201D3401A1A434C08A04202D3001B03
:10B2D0005C0822438C08A04202D3001B9C08224336
:10B2E000CC08A04202D3001BDC082243002803D074
:10B2F0001B0901D00909E3E7101C10BC70470028A6
:10B3000001D00020C04307B4024802A140180290B7
:10B3100003BDC04695F3FFFF0029F0D003B5FFF74A
:10B32000B9FF0EBC4243891A1847C0461C210123AD
:10B330001B04984201D3000C10391B0A984201D318
:10B34000000A08391B09984201D30009043902A2F6
:10B35000105C40187047C04604030202010101015D
:10B36000000000000000000002780B78013001317D
:10B37000002A01D09A42F7D0D01A704702B4714621
:10B3800049084900095C49008E4402BC7047C04628
:10B390008446101C62468C46191C634600E0C04679
:10B3A0001FB500F03FFC002801D40021C8421FBD9A
:10B3B00010B500F06FFB4042013010BD10B500F039
:10B3C00031FC002801DB002010BD012010BDC0466B
:10B3D00010B500F027FC002801DD002010BD012081
:10B3E00010BDC04610B500F09FFB002801DC002016
:10B3F00010BD012010BDC04610B500F095FB00281F
:10B4000001DA002010BD012010BDC0460000000080
:10B4100038B50E4B0C4A041C0D1CFFF7EDFF00283D
:10B4200004D1201C291C00F0AFFF38BD074B064A91
:10B43000201C291C00F074FC00F0A6FF80231B06D2
:10B44000C018F2E7C046C046000000000000E0411E
:10B45000F8B55F46564644464D46F0B40C034D00E1
:10B46000CE0F610A440F2143C400180380465800E0
:10B47000400D8246D80F84464046400A530F03438E
:10B48000D0006D0D371C83465246664500D1A4E0BE
:10B49000AF1A002F00DC09E1002A3BD1184300D08D
:10B4A000EAE0630700D187E00F232340042B00D19B
:10B4B00082E0221DA242A4416442802309191B0498
:10B4C0000B40371C141C002B00D17CE0CE4B013507
:10B4D0009D4200D105E1CD4BE408194048074902DF
:10B4E00004430B0B002000211B031A0B0B0D6D05F1
:10B4F0001B0513436A08C64DFF071D4015436D0029
:10B500006D08291C3943201C3CBC90469946A24634
:10B51000AB46F8BDBC488542C3D08020000403433D
:10B52000382F00DDF0E01F2F00DD24E12020C01BBC
:10B530001A1C814682405846F840024394465846B9
:10B540004A469040421E9041FB40624602431F1C07
:10B55000A21A9442A4416442C91B091B141C0B0289
:10B560009FD549024F0A002F00D1C8E0381CFFF7D1
:10B57000DDFE021C083A1F2A00DDB5E02821091A69
:10B58000201C9740C84007439440954200DDB2E03C
:10B59000551B691C1F2900DDDCE01F22551B3B1CCD
:10B5A000221CAB40CA40AC40651EAC411343CF40A7
:10B5B0001C43391C002574E780231B040B40371CF7
:10B5C000002B00D082E7904B4807E4080443C908E9
:10B5D0009D4248D009030B0B84E7AA1A9446002A1F
:10B5E00000DC98E05046002852D08748854200D1C0
:10B5F00057E78020000403436246382A00DDFCE060
:10B600001F2A00DD4AE120226046101A1A1C8240DF
:10B610008246914658466246D0404A46024390468A
:10B62000584652469040421E904142460243604670
:10B63000C3401219A242A441644259180919141CAA
:10B64000080200D42DE7704B01359D4200D122E164
:10B650006E4B60081940012323401C1C0443CB0798
:10B660001C4349081DE7231C0B433AD080231B03CE
:10B670000B431B031B0B35E7013F002F65D15846D9
:10B68000221A9442A4416442C91A091B141C66E799
:10B690005846184300D104E70122524294446046C0
:10B6A000002800D0C5E058460219C3E7002F73D127
:10B6B000681C4005400D012800DCDEE05A46A21A55
:10B6C0009442BF41C81A7F42C71B380200D489E0A8
:10B6D0005A46141BA3459241591A52428F1A664684
:10B6E00041E700230024FDE6271C2838874000247A
:10B6F000954200DC4CE74549AD1A3940D1E6201CA3
:10B70000FFF714FE203034E75A461A43531E9A417D
:10B71000D2B200271CE7002A00D0DCE0681C4205FA
:10B72000520D012A00DC8DE0374DA84200D1F3E034
:10B730005D462A19A242A441644259180919CC074E
:10B74000520814434908051CABE62F48854200D037
:10B75000E6E6A6E62B1C1F3B3A1CDA40131C202908
:10B760006CD03F22551BAF403C43601E84411C43BC
:10B770000021002595E6381C20381A1CC240101CF8
:10B78000202F5DD04022D71BBB405A461A43531E80
:10B790009A4102430027DBE6002D3BD01A4DAA4513
:10B7A00000D193E080252D047F422943382F00DD0E
:10B7B000ACE01F2F00DD29E12025ED1B081C261C15
:10B7C000A840FE40AC400643651EAC413443F940FE
:10B7D0005D462C1BA34592415B1A5242991A55466D
:10B7E0006646BCE6131C3B43141C002B00D0BAE693
:10B7F0000027002100250024E5E65A461A43531E7F
:10B800009A41D2B2002314E7FF070000FFFF7FFF39
:10B81000FFFF0F800D1C254358D0FF43002F51D14F
:10B82000041BA3459241591A5242891A554666464D
:10B8300095E69648854200D0DEE632E6002793E79B
:10B840000023A2E7081C2043002D00D0C4E00028FC
:10B8500000D1F7E05846184300D122E658460219B5
:10B86000A242A441644259180919141C0A0200D4C6
:10B8700017E6874B0125194013E6081C2043002DCD
:10B8800039D1002871D15946194303D0191C5C469F
:10B89000664606E600270021002494E6604620382C
:10B8A0001A1CC24060469146202800D1ACE04022DC
:10B8B000121A93405A461A43531E9A414B461A4352
:10B8C0000023B6E6714DAA4500D06FE7191C5C460F
:10B8D00055466646E5E5002D22D10D1C254377D05F
:10B8E000D543002D71D15C445C45924159185242B8
:10B8F00089185546A4E600284DD15946194300D170
:10B9000094E0191C5C466646604DCAE50C43611E16
:10B910008C41E4B200215BE7051C0021002452E6C3
:10B920005A4DAA4554D05542802210040143382D67
:10B9300000DD81E01F2D00DD92E02022501B0A1C5B
:10B9400084468240201CE840024390466246944070
:10B95000601E844142461443E9405C445C45924188
:10B96000CB185242991855466AE65846184300D1FA
:10B9700097E55846271ABC429241C81A5242801A8B
:10B98000020266D55846041BA3459241591A5242F9
:10B99000891A664685E55846184333D04807E408B7
:10B9A00004438020C9080003014208D0DD08054295
:10B9B00005D15946CA085C071443291C6646630F23
:10B9C000C9001943E400314D6BE5304A9245AED1D0
:10B9D000191C5C46554664E5002836D05846184385
:10B9E00010D080254807E408C9082D0304432942E4
:10B9F000E5D0D8082842E2D15D46EA085C07144346
:10BA0000011CDCE7214D4CE5002353E73D1C203DA4
:10BA10000A1CEA40151C202F34D04026F71BB940E1
:10BA20000C43611E8C412C430021D1E6802100276C
:10BA3000C903164D0024C6E50C43611E8C41E4B2D7
:10BA400000218AE7191C5C462BE5191C5C460F4D4A
:10BA500027E5031C3B4300D11CE7011C3C1C20E5EF
:10BA60002020404240190A1CC2409046202D0BD095
:10BA70004020451BA9400C43611E8C4145462C4388
:10BA800000216AE70021CBE70021F4E7FF0700006F
:10BA9000FFFF7FFFF0B55F4656464D464446F0B483
:10BAA0000D1C041C8046E80F814618030F03000B91
:10BAB0003F0B83B084461B48009749005E00DF0FB0
:10BAC000490D9246760DBB4681420CD01548864200
:10BAD00010D00120B14215D003B03CBC904699462D
:10BAE000A246AB46F0BD009F01202743F4D10D488C
:10BAF0008642EED1604602430120002AECD10120AB
:10BB0000B142E9D1009B6345E6D1D045E4D1D945A6
:10BB100006D00029E0D11C43201C441EA041DBE7D5
:10BB20000020D9E7FF070000F0B55F4656464D46B6
:10BB30004446F0B4CD0FDE0FAC461D032D0BB146CD
:10BB4000374E0F034C00AB465D0080463F0B640D43
:10BB500092466D0DB44232D0314EB54235D0002CF4
:10BB60000ED1384341424141081C002D0BD0002921
:10BB700019D1CC452DD0654668420123184318E001
:10BB8000002DF6D1281C59460A4353425341002840
:10BB900006D1002BEDD0634658420123184308E03C
:10BBA0000020002B05D14A4650425041404201231B
:10BBB00018433CBC90469946A246AB46F0BD3E1C9D
:10BBC0000643C9D002204042F3E75E461643C6D082
:10BBD000F8E7AC4207DC0BDA614648424841404294
:10BBE00001231843E5E76646704201231843E0E766
:10BBF0005F450AD80ED000205F45DAD2654668421C
:10BC00006841404201231843D3E762465042012372
:10BC10001843CEE7D045F8D80020D045EED3C8E78A
:10BC2000FF070000F0B556464D4644465F46F0B467
:10BC30000D1C83B0041C0190E80F814618030F030C
:10BC4000000B3F0B84463548009749005E00DF0F2C
:10BC5000490D9246760DB846814234D02F4886422F
:10BC600036D0002918D0002E1FD1341C67463A4325
:10BC700053425341002C1FD00020002B05D14246D7
:10BC80005042504140420123184303B03CBC90460F
:10BC90009946A246AB46F0BD00980443604260411D
:10BCA000041C002EE2D00028E9D1C14515D04F4632
:10BCB000784201231843E8E7002BF6D04B46584260
:10BCC00001231843E1E7009F02202743DDD1C5E7A8
:10BCD000674602201743D8D1C3E7B14204DD4A4684
:10BCE000504201231843D0E7B14207DB009860457A
:10BCF000E4D80AD0009F00206745C6D24F4678425C
:10BD00007841404201231843BFE7019A5245D5D8F4
:10BD1000019A00205245F1D3B7E7C046FF07000063
:10BD2000F8B55F46564644464D46F0B40C034D0008
:10BD3000CF0F610A440F2143C4001803DE0F804671
:10BD4000B44646465800760A530F3343D600D14ACC
:10BD50006D0DBA46400DB346904200D1F5E0624603
:10BD6000012672409446674500D1ABE02F1A002FA0
:10BD700000DC11E100283ED15846184300D0F1E024
:10BD8000600700D197E00F232340042B00D122E16C
:10BD9000221DA242A4416442802309191B040127E9
:10BDA00050460B400740141C002B00D179E0B94BE2
:10BDB00001359D4200D10BE1B74BE408194048071B
:10BDC000490204430B0B002000211B031A0B0B0D2F
:10BDD0006D051B0513436A08B04DFF071D40154351
:10BDE0006D006D08291C3943201C3CBC90469946C7
:10BDF000A246AB46F8BDA7488542C1D080200004CA
:10BE00000343382F00DDFDE01F2F00DD31E120204E
:10BE1000C01B1A1C5E468240FE40324394465A467E
:10BE20008240101C421E9041FB40624602431F1C90
:10BE3000A21A9442A4416442C91B091B141C0A02A1
:10BE40009ED549024F0A002F00D1D6E0381CFFF7DB
:10BE50006DFA021C083A1F2A00DDC3E02821231CCA
:10BE6000091A9740CB401F439440954200DDC0E043
:10BE7000551B691C1F2900DDEAE01F22551B3B1CD6
:10BE8000221CAB40CA40AC40651EAC411343CF40BE
:10BE90001C43391C002573E780217E4D0027C90310
:10BEA00000247C4B4807E4080443C9089D4250D055
:10BEB00009030B0B87E780231B04012752460B4025
:10BEC000174071E72A1A9446002A00DCA1E00028F6
:10BED00054D07048854200D152E7802000040343CB
:10BEE0006046382800DD0EE11F2800DD57E162467C
:10BEF0002020801A1E1C8640B1465E46D6404A4627
:10BF000032435E4686409046301C421E9041424677
:10BF100002436046C3401219A242A4416442591828
:10BF20000919141C080200D42AE75A4B01359D4216
:10BF300000D131E1584B60081940012323401C1CFB
:10BF40000443CB071C4349081AE71E4300D00AE705
:10BF500005E7231C0B433BD080231B030B431B0330
:10BF60001B0B30E7013F002F6DD15E46A21B9442B0
:10BF7000A4416442C91A091B141C60E758461843BF
:10BF800000D1FDE601267642B4446046002800D088
:10BF9000D0E05E463219BFE7002F00D080E0681C79
:10BFA0004005400D012800DCE8E05A46A21A944200
:10BFB000BF41C81A7F42C71B3E0200D498E05846D2
:10BFC000041BA3459241591A52428F1AE2463AE79E
:10BFD00000230024F7E680231B04012756460B406C
:10BFE0003740E1E6271C283887400024954200DCD2
:10BFF0003EE72949AD1A3940C2E6201CFFF796F901
:10C00000203026E75A461A43531E9A41D2B20027DF
:10C010000EE7002A00D0DEE0681C4605760D012EF2
:10C0200000DC90E01B4DA84200D1F5E05E463219DD
:10C03000A242A441644259180919CC07520814437A
:10C040004908051C9CE61348854200D0D9E697E6CE
:10C050002B1C1F3B3E1CDE40331C20296FD03F228F
:10C06000551BAF403C43601E84411C43002100250A
:10C0700086E6381C20381E1CC640301C202F60D09D
:10C080004022D71BBB405A461A43531E9A410243D3
:10C090000027CDE6FF070000FFFF7FFFFFFF0F80B7
:10C0A000002D37D0B64DA84200D18FE080252D0459
:10C0B0007F422943382F00DDA8E01F2F00DD24E157
:10C0C0002025ED1B0E1CAE40B046261CFE4042460D
:10C0D000AC401643651EAC413443F9405A46141B2C
:10C0E000A34592415B1A5242991A051CE246A6E604
:10C0F000131C3B43141C002B00D0A4E60027002196
:10C1000000250024CDE65A461A43531E9A41D2B266
:10C11000002300E70D1C254358D0FF43002F51D1C9
:10C120005A46141BA3459241591A5242891A051CBA
:10C13000E24684E69248854200D0D1E620E6002718
:10C1400090E700239FE7081C2043002D00D0C2E0A9
:10C15000002800D1EFE05846184300D110E65846B9
:10C160000219A242A441644259180919141C0A0276
:10C1700000D405E6834B0125194001E6081C204345
:10C18000002D38D100286FD15946194303D0191C0E
:10C190005C46E246F4E500270021002481E6604683
:10C1A00020381A1CC2406646101C202E00D1AAE07E
:10C1B0004022921B93405A461A43531E9A4102430F
:10C1C0000023A8E66E4DA84200D073E7191C5C4618
:10C1D000051CE246D4E5002D22D10D1C254376D066
:10C1E000D543002D70D15C445C45924159185242B0
:10C1F0008918051C96E600284CD15946194300D1F0
:10C200004AE6191C5C46E2465D4DB9E50C43611EE9
:10C210008C41E4B2002161E7051C0021002440E6C6
:10C22000574DA84253D05542802216043143382D31
:10C230007BDC1F2D00DD8CE02022561B0A1CB4463F
:10C24000B240261CEE403243904662469440661E41
:10C25000B44142461443E9405C445C459241CB18EA
:10C2600052429918051C5DE65846184300D187E5EF
:10C270005E46A71BBC429241C81A5242801A06026F
:10C2800060D55846041BA3459241591A5242891A57
:10C29000E24675E55846184333D04807E40804439E
:10C2A0008020C9080003014208D0DD08054205D1FD
:10C2B0005946CA085C071443291CE246630FC900AB
:10C2C0001943E4002E4D5BE52D4A9042AFD1191C75
:10C2D0005C46051C54E5002830D05846184310D061
:10C2E00080254807E408C9082D0304432942E5D006
:10C2F000D8082842E2D15D46EA085C071443011CD5
:10C30000DCE71F4D3CE5002355E73D1C203D0E1C9E
:10C31000EE40351C202F2ED04026F71BB9400C4391
:10C32000611E8C412C430021D8E60C43611E8C41D8
:10C33000E4B2002190E7191C5C4621E5191C5C461B
:10C340000F4D1DE5031C3B4300D124E7011C3C1CA1
:10C3500016E52026764276190A1CF2409046202DDA
:10C360000BD04026751BA9400C43611E8C414546ED
:10C370002C43002170E70021D1E70021F4E7C046FB
:10C38000FF070000FFFF7FFF70B50B1C124C090375
:10C390000E0B5900021C490DDD0F0020A14211DDDA
:10C3A0000E4881420FDC8020400306430C48401AAF
:10C3B0001F280BDD0B4A521AD640321C5042002D6A
:10C3C00000D1101C70BD084BE818FBE7074BC240BA
:10C3D000C9188E403243F1E7FE0300001D0400003F
:10C3E0003304000013040000FFFFFF7FEDFBFFFF9D
:10C3F00010B5041E28D0FEF799FF154A121A0A2814
:10C4000015DD0B38844024035205240B520D002304
:10C41000002000212403181C0B0D240B1B052343B3
:10C420000C4C12051C4014436400610810BD031C31
:10C430001533211C99400B1C0B21081AC4402403FE
:10C440005205240B520DE3E7002200240023DFE70E
:10C450001E040000FFFF0F80F0B54B000D03420FDC
:10C460005B0D6D0A15435A1C5205CC0FC600520DC8
:10C47000012A27DD394FDA19FE2A1ADC002A35DDB8
:10C480008001ED00431E98412843760F3043430757
:10C4900004D00F230340042B00D004308021C904B2
:10C4A000014027D00132FF2A1DD083015B0AD1B29F
:10C4B00001E0FF2100235802C905400AE4070843B0
:10C4C0002043F0BD002B06D1354311D100210020BF
:10C4D00043025B0AEFE72E43EBD08020ED0080049F
:10C4E0002843FF22D3E7FF210023E4E717320DDAC8
:10C4F00005200022C008D1B2FF2AE9D10028D9D0F6
:10C500008023DB0303435B025B0AD4E780221449E8
:10C5100012041543C91A1F290DDC124A371C9B1837
:10C52000281C9F4098403B1C5A1E93411843CE4004
:10C5300030430022ABE70C4F2A1CFF1AFA40171CAD
:10C54000202909D0094A98188540281C3043461EE6
:10C55000B041384300229AE70020F7E780FCFFFF54
:10C560009E03000082FCFFFF7E030000A2FCFFFF91
:10C57000B0B5ACB002AF786039607B68181C03F0CE
:10C580005EFE031C802B0CD93A68DF4B111C1A1C71
:10C590001F23081C111C1A1C03F010FE002300F0BE
:10C5A00057FD7B68181C0A2100F0F6FE7B68181CFA
:10C5B0000D2100F0F1FE0023A420C01903602FE03C
:10C5C000A421C9190B687A68D218A425ED192B6823
:10C5D0007968C9183B1C833309781970CB4B1968EB
:10C5E0003B1C83331B785BB20133CB181B78DBB267
:10C5F000191C03230B40012B05D13B1C83331B78F3
:10C600005BB2203303E03B1C83331B785BB2DBB2AD
:10C610001370A420C01903680133A421C9190B6049
:10C62000A422D21913687A68D3181B78002BC7D1BB
:10C630007A68B74B101C191C03F008FE031CFB673B
:10C64000B34B0020191C03F001FE031CBB67FA6FFB
:10C65000B04B101C191CFEF787FE031C002B53D196
:10C66000BA6FAD4B101C191C03F0F0FD031C7B6767
:10C67000A94B0020191C03F0E9FD031C3B677B6FED
:10C68000181C0021102203F0CBFE031CFB663B6F3D
:10C69000181C0021102203F0C3FE031CBB66FB6EB6
:10C6A0005F2B02DCFB6E002B0CDA3A689B4B111CF3
:10C6B0001A1C2223081C111C1A1C03F07FFD0023E6
:10C6C00000F0C6FCBB6E002B02DBBB6EFF2B0CDD4B
:10C6D0003A68934B111C1A1C2823081C111C1A1CA5
:10C6E00003F06CFD002300F0B3FCFA6EBB6E101C6F
:10C6F000191C01F06FF938688A49FA6EBB6E03F0B5
:10C700006FFD012300F0A4FCFA6F874B101C191C6D
:10C71000FEF72AFE031C002B00D09AE0834B9B6D92
:10C72000181C02F0EFFD01F0C9FA804B9B6D181C3C
:10C7300002F0DCFDBB6F1B78002B1FD0BB6F181CF9
:10C740000021102203F06CFE031C7B667B6E181C1C
:10C750001821FDF79FFF0B1C1A1C754B9200D35834
:10C7600074497A6E8A181278141C386872497A6E85
:10C77000009403F035FD012300F06AFC3B680022C1
:10C780001A700023A025ED192B6000239C20C019EE
:10C79000036056E09C21C9190B685A1C9C25ED19B1
:10C7A0002B68DB0001339C20C01901680131CC00EB
:10C7B000381C0C306149009403F012FD3A683B1CB0
:10C7C0000C33101C191C03F02DFD00239821C919EE
:10C7D0000B602AE0564B9825ED192A689200D35831
:10C7E0005449A020C01902688A181278141C381CF9
:10C7F0000C305149A025ED192A68009403F0F0FC93
:10C800003A683B1C0C33101C191C03F00BFDA020D4
:10C81000C01903680133A021C9190B609822D219ED
:10C82000136801339825ED192B609820C01903680F
:10C83000172BCFDD9C21C9190B6801339C22D2191B
:10C8400013609C25ED192B68032BA3DD012300F059
:10C85000FFFBFA6F3A4B101C191CFEF785FD031CF9
:10C86000002B37D101F02AFA3B6800221A7000230E
:10C870009420C01903601BE02E4A9421C9190B684B
:10C88000D3181B78391C0C312E4A081C111C1A1C99
:10C8900003F0A6FC3A683B1C0C33101C191C03F077
:10C8A000C1FC9422D219136801339425ED192B6031
:10C8B0009420C01903685F2BDEDD3B68181C03F071
:10C8C000BEFC031C013B3A68D31800221A700123F6
:10C8D00000F0BEFBFA6F1C4B101C191CFEF744FD48
:10C8E000031C002B5CD1BB6F1B78002B30D13A6846
:10C8F000164B111C1A1C1F23081C111C1A1C03F0B8
:10C900005DFC0023A4E3C046083E010068E0FF1F71
:10C91000283E01002C3E0100303E0100343E010063
:10C92000583E0100803E01009C3E0100BCE1FF1F1B
:10C9300004E0FF1F40050020A03E0100B03E0100C2
:10C94000CC3E0100D03E0100D83E0100DC3E01009B
:10C95000BB6F181C0021102203F062FD031C3B6614
:10C960003B6E202B02DC3B6E002B0BDC3A68DC4B71
:10C97000111C1A1C1F23081C111C1A1C03F01EFC7E
:10C98000002365E33B6E181C01F0D4FB031C3968DF
:10C99000D44A081C111C1A1C03F022FC012357E383
:10C9A000FA6FD14B101C191CFEF7DEFC031C002B88
:10C9B00009D0FA6FCD4B101C191CFEF7D5FC031CD7
:10C9C000002B00D0A6E0BA6FC94B101C191C03F055
:10C9D0003DFC031C181C03F0AFFB031CBB63C44BE2
:10C9E0000020191C03F032FC031C181C03F0A4FBEC
:10C9F000031C7B63BB6B202B02DCBB6B002B0BDCB3
:10CA00003A68BC4B111C1A1C2023081C111C1A1C50
:10CA100003F0D4FB00231BE3BB6B013B002B00DACC
:10CA20000733DB101A1C131C5B009B18DB003B63F5
:10CA3000BB6B5A1EB04B134004D5013B0822524237
:10CA4000134301330533FB6200239021C9190B60A6
:10CA50007B6B182B28D87B6B9A00A84BD3181B68CC
:10CA60009F4600239022D219136029E001239025CC
:10CA7000ED192B6024E002239020C01903601FE011
:10CA800003239021C9190B601AE004239022D219C4
:10CA9000136015E005239025ED192B6010E00623A7
:10CAA0009020C01903600BE03A68954B111C1A1CCA
:10CAB0001D23081C111C1A1C03F080FB0023C7E275
:10CAC0003A6BFB6AD318396BFA6A8A188D498A5C0B
:10CAD00070218A43D1B28B4AD1543A6BFB6AD31886
:10CAE000396BFA6A8A188749895C9025ED192A689A
:10CAF000D2B21201D2B20A43D1B2824AD154824B8D
:10CB000001221A7038688149BA6B7B6B03F068FBAD
:10CB100001239DE2FA6F7E4B101C191CFEF724FCCA
:10CB2000031C002B23D1BB6F1B78002B0BD100F013
:10CB30002FFE031C3968774A081C111C1A1C03F0CD
:10CB40004FFB012384E2BB6F181C03F0F5FA031CB2
:10CB5000FB65FB6D181C00F00FFE39686E4AFB6D1B
:10CB6000081C111C1A1C03F03BFB012370E2FA6F36
:10CB70006A4B101C191CFEF7F7FB031C002B00D09E
:10CB80007AE0BA6F5A4B101C191C03F05FFB031CB0
:10CB9000BB65574B0020191C03F058FB031C181CE5
:10CBA00003F0CAFA021C3B1C5733511E8A411A700B
:10CBB000BA6D5B4B101C191CFEF7D6FB031C002B37
:10CBC0002BD101238C20C019036010E08C21C919DE
:10CBD0000A683B1C57331B78101C191C00F076FAAE
:10CBE0008C22D219136801338C25ED192B608C200F
:10CBF000C0190368202BE9DD3B1C57331B78002B41
:10CC000001D0484B00E0484B3968484A081C111CC9
:10CC10001A1C03F0E5FA01231AE2BB6D181C03F09D
:10CC20008BFA031C3B653B6D202B02DC3B6D002B1C
:10CC30000BDC3A683E4B111C1A1C2123081C111CEA
:10CC40001A1C03F0BBFA002302E23A6D3B1C573377
:10CC50001B78101C191C00F039FA3B1C57331B7849
:10CC6000002B01D02F4B00E02F4B386831493A6D33
:10CC700003F0B6FA0123EBE1FA6F2F4B101C191CDD
:10CC8000FEF772FB031C002B5CD1BB6F181C03F07A
:10CC900053FA031CFB64FB6C202B02DCFB6C002BA7
:10CCA0000BDC3A68254B111C1A1C1F23081C111C95
:10CCB0001A1C03F083FA0023CAE1FB6C181C00F075
:10CCC0001BFB031C0C1C3B647C6438681C49FA6C1D
:10CCD0003B6C7C6C0093019403F082FA0123B7E172
:10CCE000FC3E01001C3F0100203F0100243F0100E9
:10CCF000303E01002C3F010007000080D0440100BD
:10CD00004C3F0100A80500203DE1FF1F6C3F0100E2
:10CD1000843F01008C3F0100943F0100A83F0100C7
:10CD2000B03F0100B43F0100B83F0100BC3F01002B
:10CD3000D43F0100F83F01001440010018400100F9
:10CD400038400100FA6FC44B101C191CFEF70CFB95
:10CD5000031C002B4ED1C14BD0229A70BF4BD02266
:10CD60009A76BE4A3223D021D154BC4A4A23D021DC
:10CD7000D15400238821C9190B6027E000238422A5
:10CD8000D219136016E08823DB191A68131C5B00A4
:10CD90009B18DB001A1C8425ED192B68D31805336A
:10CDA000AE4A0521D1548420C0190368013384217F
:10CDB000C9190B608422D2191368072BE3DD88257B
:10CDC000ED192B6801338820C01903608821C91927
:10CDD0000B68032BD2DDA24B01221A703A68A14BDB
:10CDE000111C1A1C1423081C111C1A1C03F0E6F950
:10CDF00001232DE1FA6F9C4B101C191CFEF7B4FAAD
:10CE0000031C002B11D100F01FFE01F07FF800F091
:10CE100055FF3A68954B111C1A1C0A23081C111C5B
:10CE20001A1C03F0CBF9012312E1FA6F904B101C8E
:10CE3000191CFEF799FA031C002B0ED18D4B012211
:10CE40001A703A688C4B111C1A1C2223081C111CE6
:10CE50001A1C03F0B3F90123FAE0FA6F874B101C98
:10CE6000191CFEF781FA031C002B12D100F0ECFA1A
:10CE700080239B05FB63FB6B814A1A60814A8149D1
:10CE8000814BCB581B041B0C804919437E4BD1505E
:10CE9000FEE7FA6F7E4B101C191CFEF765FA031CA7
:10CEA000002B00D0CBE03A687A4B111C1A1C0E23E1
:10CEB000081C111C1A1C03F081F93B68181C03F0B4
:10CEC000BEF9031C3A68D218734B111C1A1C2B2391
:10CED000081C111C1A1C03F071F93B68181C03F0A4
:10CEE000AEF9031C3A68D2186C4B111C1A1C522361
:10CEF000081C111C1A1C03F061F93B68181C03F094
:10CF00009EF9031C3A68D218654B111C1A1C2A237F
:10CF1000081C111C1A1C03F051F93B68181C03F083
:10CF20008EF9031C3A68D2185E4B111C1A1C26237A
:10CF3000081C111C1A1C03F041F93B68181C03F073
:10CF40007EF9031C3A68D218574B111C1A1C262371
:10CF5000081C111C1A1C03F031F93B68181C03F063
:10CF60006EF9031C3A68D218504B111C1A1C24236A
:10CF7000081C111C1A1C03F021F93B68181C03F053
:10CF80005EF9031C3A68D218494B111C1A1C5C2329
:10CF9000081C111C1A1C03F011F93B68181C03F043
:10CFA0004EF9031C3A68D218424B111C1A1C242358
:10CFB000081C111C1A1C03F001F93B68181C03F033
:10CFC0003EF9031C3A68D2183B4B111C1A1C312342
:10CFD000081C111C1A1C03F0F1F83B68181C03F024
:10CFE0002EF9031C3A68D218344B111C1A1C1F234B
:10CFF000081C111C1A1C03F0E1F83B68181C03F014
:10D000001EF9031C3A68D2182D4B111C1A1C25233B
:10D01000081C111C1A1C03F0D1F83B68181C03F003
:10D020000EF9031C3A68D218264B111C1A1C162341
:10D03000081C111C1A1C03F0C1F8012308E0396810
:10D04000214AFB6F081C111C1A1C03F0C9F80023AD
:10D05000181CBD462AB0B0BD44400100A805002000
:10D060003DE1FF1F4C4001006040010068400100AD
:10D070007440010040E1FF1F7C400100A04001001E
:10D080006B63694E00E000E00C0D00000400FA053F
:10D09000AC400100B4400100C4400100F040010078
:10D0A000444101007041010098410100C04101006C
:10D0B000E441010040420100644201009842010045
:10D0C000B8420100E0420100F842010080B588B09A
:10D0D00000AF78600A1CFB1C1A707B68013B002BB8
:10D0E00000DA0733DB101A1C131C5B009B18DB00F3
:10D0F000FB617B685A1E584B134004D5013B082244
:10D100005242134301330533BB61FA69BB69D3183B
:10D110007B61FB690D333B61FB690E33FB607B6810
:10D120005A1E4D4B134004D5013B08225242134373
:10D1300001330122111C99400B1CBB60474BEC22B0
:10D14000DA70464B6022DA76444A33236021D154A8
:10D15000424A4B236021D154FB1C1B78002B32D058
:10D160003E4A7B69D3181B7808221343DAB23B4945
:10D170007B69CB181A70394A7B69D3181A787823DF
:10D180001340DAB235497B69CB181A70334A3B69D0
:10D19000D3181B78DAB2BB68DBB21343DBB2DAB266
:10D1A0002E493B69CB181A702C4AFB68D3181B78A0
:10D1B000DAB2BB68DBB21343DBB2DAB22749FB68F1
:10D1C000CB181A7041E0254A7B69D3181B7880225E
:10D1D00052421343DAB221497B69CB181A701F4AB5
:10D1E0007B69D3181B7808229343DAB21B497B6909
:10D1F000CB181A70194A7B69D3181B780122134384
:10D20000DAB216497B69CB181A70144A3B69D318F5
:10D210001B78DBB2BA68D2B2D243D2B21340DBB2CF
:10D22000DAB20E493B69CB181A700C4AFB68D31866
:10D230001B78DBB2BA68D2B2D243D2B21340DBB2AF
:10D24000DAB20649FB68CB181A70054B01221A7036
:10D25000BD4608B080BDC04607000080A80500207C
:10D260003DE1FF1F80B586B000AF78607B68013B71
:10D27000002B00DA0733DB101A1C131C5B009B1811
:10D28000DB007B617B685A1E184B134004D5013BC1
:10D29000082252421343013305333B617A693B69EB
:10D2A000D318134AD35C1B09DBB21A1C07231340A3
:10D2B000FB60FB68062B13D8FB689A000D4BD31854
:10D2C0001B689F4601230CE002230AE0042308E0C8
:10D2D000062306E0082304E00C2302E0182300E004
:10D2E0000023181CBD4606B080BDC0460700008064
:10D2F000A805002034450100F0B585B000AF786086
:10D300007B68181C00F016FF031CFB607B68181C70
:10D31000FFF7A8FF031CBB60F868FDF77BFF031C49
:10D320000C1C181C211C174B154AFDF7E3FC031CB1
:10D330000C1C1D1C261CB868FDF76CFF031C0C1C84
:10D34000114812491A1C231CFDF7B0F9031C0C1CD0
:10D35000181C211C0E4A0F4BFDF7A8F9031C0C1CCE
:10D36000281C311C1A1C231CFDF7C4FC031C0C1CBC
:10D37000181C211CBD4605B0F0BDC046C046C046C5
:10D380000000000000408F4000000000000022402C
:10D39000000000000000704180B584B000AF7860EC
:10D3A0000A1CFB1C1A707B68FB607B68BB6012E088
:10D3B000FB685A1CFA601A78BB681A70BB681B7845
:10D3C000FA1C127852B25BB2D31A5A1E9341DBB2E6
:10D3D000BA68D318BB60FB681B78002BE8D1BB6828
:10D3E00000221A70BD4604B080BDC04690B583B01F
:10D3F00000AF002001F04EFA021C0F4B1A600E4BDA
:10D400001A68BC1D0D4B101C191C012201F056FBA3
:10D41000031C2380002001F0D1FC021C084B1A6081
:10D42000074B1A68074B101C191C012201F0B4FDB0
:10D43000BD4603B090BDC0468CEFFF1FE0FEFF1F4E
:10D44000BCEFFF1FD0F4FF1F80B500AF054B1B687A
:10D45000181C01F0F7FA044B1B68181C01F060FD62
:10D46000BD4680BD8CEFFF1FBCEFFF1F90B583B0A2
:10D4700000AF78600A1CFB1C1A707A682A4BD358DC
:10D480000A2B00D14CE07A68284BD1587A68A02347
:10D49000DB00D3585C1C7868A022D20084507A68E4
:10D4A000C901CB18F91C09789954FB1C1B785BB295
:10D4B0000D2B2AD17A681D4BD1587A68A023DB0046
:10D4C000D2587B68C9018A180021D1547A68A023F8
:10D4D000DB000021D1507A68144BD358591C7A686C
:10D4E000124BD1507A68114BD358181C0A21FDF702
:10D4F000D1F80B1C191C7A680C4BD1507A680A4B76
:10D50000D358591C7A68084BD1507A68A023DB00A5
:10D51000D358802B04DD7A68A023DB000021D15092
:10D52000BD4603B090BDC0460C05000004050000D8
:10D5300080B55C4FBD4400AF5B4B1A685B4B1B680A
:10D540009A421AD0584B1968594B1B68581C584AB4
:10D5500010603A1C081C191C00F0BCF83B1C181C7D
:10D56000002100F01FF9504B1B6801334E4A136035
:10D57000642B02D14C4B00221A604E4A4E4BD358BA
:10D58000002B4DD04B4AA123DB00D358DA01494B85
:10D59000D2184A4B101C191CFEF7EAFF484B494AA7
:10D5A000116819609188998092799A71444A434B25
:10D5B000101C191C02F036FE414B181C02F03FFEF5
:10D5C000031C1A1C3E4BD2183F4B111C1A1C06237D
:10D5D000081C111C1A1C02F0F1FD394B181C01210A
:10D5E00000F0E0F8334AA123DB00D358591C314A3C
:10D5F000A123DB00D1502F4AA123DB00D358181CF4
:10D600000A21FDF747F80B1C191C2A4AA123DB004D
:10D61000D150284A284BD358591E264A264BD15060
:10D620002A4A254BD358002B36D0284AA123DB00A9
:10D63000D358DA01254BD218204B101C191CFEF7C9
:10D6400097FF1F49224A1D4B081C111C1A1C02F08F
:10D65000C7FD1B4B181C002100F0A4F81B4AA12396
:10D66000DB00D358591C194AA123DB00D150174ABB
:10D67000A123DB00D358181C0A21FDF70BF80B1C63
:10D68000191C124AA123DB00D150104A0A4BD3586F
:10D69000591E0E4A084BD150BD469A239B009D440B
:10D6A00080BDC04698FDFFFF38E1FF1F34E1FF1F3A
:10D6B00028E1FF1F7CEAFF1F0C0500007CE2FF1F32
:10D6C000D8F4FF1F144301001C430100C0EFFF1FEB
:10D6D0002443010080B59EB000AFF860B9607A6065
:10D6E0007968204ABB68081C111C1A1C02F078FDDE
:10D6F00000237B6718E01C4BFA6851017A6F8A1887
:10D700009200D358391C1031184A081C111C1A1CDD
:10D7100002F066FD7A683B1C1033101C191C02F0E5
:10D7200081FD7B6F01337B677B6F1F2BE3DD104B2C
:10D730001B68391C10310F4A081C111C1A1C02F0FE
:10D740004FFD0B4B1B68002B02D0094B00221A60C7
:10D750007A683B1C1033101C191C02F063FDBD4697
:10D760001EB080BD30430100100600203C43010084
:10D7700024E1FF1F4443010080B582B000AF786010
:10D78000024B7A681A60BD4602B080BD24E1FF1FDB
:10D7900080B500AF024B1B68181CBD4680BDC0465B
:10D7A00024E1FF1F90B583B000AF786039603B681B
:10D7B000002B02D0012B17D02DE0184B1C687B6882
:10D7C000181C02F03CFD031C9BB27A68201C111C43
:10D7D0001A1C01F0BFF9031C1A1C114B1A80104BC4
:10D7E0001B88082BE9D016E00E4B1C687B68181CC0
:10D7F00002F025FD031C9BB27A68201C111C1A1C28
:10D8000001F016FC031C1A1C054B1A80044B1B88E4
:10D81000082BE9D0C046BD4603B090BD8CEFFF1F7A
:10D82000D8FEFF1FBCEFFF1F80B500AF002002F045
:10D8300035FA021C044B1A60002002F06BFA021C3D
:10D84000024B1A60BD4680BDE8FEFF1FECFEFF1FC5
:10D8500080B500AF044B1B68181C02F04FFA034B55
:10D8600064221A80BD4680BDE8FEFF1F2CE1FF1F29
:10D8700080B500AF002002F037F8021C074B1A6099
:10D88000002002F08DF8021C054B1A60002002F007
:10D89000E3F8021C034B1A60BD4680BDF0FEFF1F7B
:10D8A000F8FEFF1FF4FEFF1F80B582B000AF786066
:10D8B0000A1CFB1C1A707B68022B13D0032B21D08F
:10D8C000012B2FD1FB1C1B78002B05D0174B1B689D
:10D8D000181C02F059F825E0144B1B68181C02F0C4
:10D8E00047F81FE0FB1C1B78002B05D0104B1B6872
:10D8F000181C02F0A5F815E00D4B1B68181C02F06F
:10D9000093F80FE0FB1C1B78002B05D0094B1B681C
:10D91000181C02F0F1F804E0064B1B68181C02F01A
:10D92000DFF8C046BD4602B080BDC046F0FEFF1F16
:10D93000F8FEFF1FF4FEFF1F80B582B000AF7860D5
:10D940007B68022B0AD0032B0FD0012B14D10D4B77
:10D950001B68181C01F0F8FF031C0EE00A4B1B6843
:10D96000181C02F04DF8031C07E0084B1B68181C3C
:10D9700002F0A2F8031C00E00023181CBD4602B010
:10D9800080BDC046F0FEFF1FF8FEFF1FF4FEFF1F24
:10D9900080B582B000AF00237B600D4B1B889BB22B
:10D9A000002B00D011E00A4B64221A800120FFF7FF
:10D9B000C3FF031C002B04D001200021FFF774FFDC
:10D9C00003E001200121FFF76FFFBD4602B080BDDB
:10D9D0002EE1FF1F80B582B000AF786039603B68F0
:10D9E000DAB205497B68CB181A70044B01221A7011
:10D9F000BD4602B080BDC046A80500203DE1FF1F26
:10DA000080B500AF002000F0C1FE021C0A4B1A6076
:10DA1000002000F073FE021C084B1A60002000F08A
:10DA2000FDFE021C064B1A60002000F005FE021CE1
:10DA3000044B1A60BD4680BDA005002008060020EA
:10DA40000C0600203C05002080B500AFFA235B00E7
:10DA5000181C00F003FD274B1B68181C00F0C6FEC5
:10DA6000254B1B68181C00F079FE244B1B68181C02
:10DA700000F004FFFA235B00181C00F0EFFC1D4BC4
:10DA80001B68181C00F0BEFE1B4B1B68181C00F026
:10DA900071FEFA235B00181C00F0E0FC154B1B68BC
:10DAA000181C00F0A3FEFA235B00181C00F0D6FC43
:10DAB000104B1B68181C00F0A5FEFA235B00181C15
:10DAC00000F0CCFC00F010FA0120D6210F2200F06B
:10DAD00095F90220D0210F2200F090F90320EC21CB
:10DAE0000F2200F08BF9042000210F2200F086F9AC
:10DAF000BD4680BDA0050020080600200C060020C1
:10DB000080B500AF074B1B78DBB2002B08D0064B6B
:10DB10001B78002B04D000F00BFA024B00221A7085
:10DB2000BD4680BD3CE1FF1F3FE1FF1F90B585B0C2
:10DB300000AF0023FB60B0E00023BB60A6E0FA6802
:10DB4000131C5B009B18DB001A1CBB68D3187B609E
:10DB5000BB68002B0BD1564A7B68D3181B78012277
:10DB60001343DAB252497B68CB181A7068E0BB687D
:10DB7000012B05D14E4A7B68D318D6221A705FE07C
:10DB8000BB68022B17D14A4A7B68D3181B78402206
:10DB900052421343DAB246497B68CB181A70444AA2
:10DBA0007B68D3181B7824229343DAB240497B6800
:10DBB000CB181A7044E0BB68032B0CD13C4A7B683D
:10DBC000D3181B78202252421343DAB238497B68BB
:10DBD000CB181A7034E0BB68042B0BD1344A7B6835
:10DBE000D3181B7810229343DAB231497B68CB18E3
:10DBF0001A7025E0BB68152B0BD12D4A7B68D31812
:10DC00001A7820231340DAB229497B68CB181A709E
:10DC100016E0BB68162B05D1254A7B68D318002275
:10DC20001A700DE0BB68172B0AD1214A7B68D31804
:10DC30001A780A231340DAB21D497B68CB181A7090
:10DC40001C4A7B68D3181A7819497B68CB181B7853
:10DC50009A4218D0BB68D9B2154A7B68D3181A7893
:10DC60000120FB68041C9C40231CDBB2081C111C17
:10DC70001A1C00F0C3F80E4A7B68D3181A780D49B5
:10DC80007B68CB181A70BB680133BB60BB68172B6D
:10DC900000DC54E7FB680133FB60FB68032B00DC0E
:10DCA0004AE7054B00221A70BD4605B090BDC0463C
:10DCB000A8050020400500203DE1FF1F80B584B08D
:10DCC00000AF0023FB6037E00122FB68111C994084
:10DCD0000B1CDBB2181C00F0B5F8202000F062F835
:10DCE000172000F05FF80023BB601CE0FA68131CEB
:10DCF0005B009B18DB001A1CBB68D3187B600020FC
:10DD000000F050F8031C1A1C0E497B68CB181A70DF
:10DD10000C4A7B68D3181A780B497B68CB181A70A9
:10DD2000BB680133BB60BB68172BDFDD002000F050
:10DD300089F8FB680133FB60FB68032BC4DDBD463B
:10DD400004B080BD40050020A805002080B500AFCC
:10DD5000002002F00FF8021C0D4B1A60002001F0A9
:10DD6000DDFA021C0B4B1A60002001F025FB021C9F
:10DD7000094B1A60002001F067FB021C074B1A6078
:10DD8000002001F0AFFB021C054B1A60BD4680BDB0
:10DD900020380020103800201838002024380020B7
:10DDA0001C38002080B584B000AF021CFB1D1A7027
:10DDB000C046114B1B7804E00F4A3B1C0F3392798D
:10DDC0001A700D4B1B78DBB2DBB25BB2002BF3DBBE
:10DDD000094BFA1D12789A71C046074B1B78DBB2CB
:10DDE000DBB25BB2002BF8DA034B9B79DBB2181C79
:10DDF000BD4604B080BDC0460060074080B582B01B
:10DE000000AFFB1D1870BB1D19707B1D1A707B1DA8
:10DE10001B78181C00F016F8FB1D1B784033DBB292
:10DE2000181CFFF7BFFF0020FFF7BCFFBB1D1B78CE
:10DE3000181CFFF7B7FF002000F004F8BD4602B041
:10DE400080BDC04680B582B000AF021CFB1D1A70B9
:10DE5000FB1D1B78002B14D11F4B1B68181C01F0F5
:10DE60009DFA1E4B1B68181C01F0E2FA1C4B1B6844
:10DE7000181C01F029FB1B4B1B68181C01F072FBDE
:10DE800027E0FB1D1A780123134004D0124B1B68B6
:10DE9000181C01F075FAFB1D1A780223134004D0F8
:10DEA0000E4B1B68181C01F0B7FAFB1D1A780423EF
:10DEB000134004D00A4B1B68181C01F0F7FAFB1D35
:10DEC0001A780823134004D0064B1B68181C01F075
:10DED0003BFBBD4602B080BD103800201838002042
:10DEE000243800201C38002080B500AF0F20FFF739
:10DEF000A9FF1120FFF756FF0020FFF7A3FF024BF9
:10DF000001221A70BD4680BD3EE1FF1F80B500AF03
:10DF10000F20FFF797FF0820FFF744FF0020FFF7CF
:10DF200091FF024B01221A70BD4680BD3FE1FF1FE9
:10DF300090B585B000AF0023FB600023BB60784B39
:10DF40001B78002B02D0FFF7F1FDCDE0CCE0FB68A1
:10DF5000012B0CD002DC002B05D014E0022B0AD0E0
:10DF6000032B0CD00FE00120FFF76CFF0BE0022029
:10DF7000FFF768FF07E00420FFF764FF03E00820D5
:10DF8000FFF760FFC0461220FFF70CFF0020FFF7ED
:10DF900009FF031C1B047B60624B1A68624B9100F3
:10DFA000FA688A1892007968D1500020FFF7FAFECB
:10DFB000031C1B027B605B4B1B685B4A9800F96883
:10DFC0004118890089587A688918574A9800FB686F
:10DFD000C3189B0099500020FFF7E4FE031C7B60F0
:10DFE000504B1B68504A9800F968411889008958BD
:10DFF0007A6889184C4A9800FB68C3189B009950AE
:10E000000023BB6067E00020FFF7CCFE031C1B066B
:10E010007B60444B1868FB68DA00BB68D2187968EB
:10E02000424B400182189200D1500020FFF7BAFE07
:10E03000031C1B047B603B4B1B68FA68D100BA6869
:10E040008818FA68D100BA688918384A5C016118E2
:10E0500089008A58111C7A688A18111C334A5B019E
:10E060001B189B0099500020FFF79CFE031C1B020D
:10E070007B602C4B1B68FA68D100BA688818FA6874
:10E08000D100BA688918294A5C01611889008A5848
:10E09000111C7A688A18111C244A5B011B189B000A
:10E0A0009950204B1868FB68DA00BB68D2181D4BEA
:10E0B0001C68FB68D900BB68C9181C4B6401611857
:10E0C0008900CB581912194B400182189200D15087
:10E0D000BB680133BB60BB68072B94DD0020FFF7F2
:10E0E000B1FEFB680133FB60FB68032B00DC2EE70D
:10E0F0000C4B1B685A1C0B4B1A600A4B1A680C4BD2
:10E100001B689A4202D10A4B00221A60054B1B6819
:10E11000642B02D1034B00221A60BD4605B090BDAE
:10E120003DE1FF1F34E1FF1FFCFEFF1F1006002032
:10E1300038E1FF1F80B584B000AF78600B4B1B68DF
:10E14000FB60FB68013BFB60FB68002B01DA64238A
:10E15000FB607B685A1E064BF96849018A189200D9
:10E16000D358181CBD4604B080BDC04634E1FF1F23
:10E170001006002080B500AFBD4680BD80B582B0DE
:10E1800000AF021CBB1D1A80BD4602B080BDC04658
:10E1900090B585B000AF78600B4B1B78DBB20B4AB3
:10E1A0005BB2101C191CFFF761F9094B1A683C1C83
:10E1B0000E34054B101C191C012200F07FFC031CBF
:10E1C0002380BD4605B090BDE0FEFF1FC0EFFF1FDE
:10E1D0008CEFFF1F80B582B000AF7860024B012248
:10E1E0001A70BD4602B080BD00E0FF1F80B582B04E
:10E1F00000AF78602F4B1B88002B05D02D4B1B8860
:10E20000013B9AB22B4B1A802B4B1B88002B05D05D
:10E21000294B1B88013B9AB2274B1A80274B1B883E
:10E22000002B05D0254B1B88013B9AB2234B1A804B
:10E23000234B1B88002B05D0214B1B88013B9AB236
:10E240001F4B1A801F4B1B88002B05D01D4B1B88B2
:10E25000013B9AB21B4B1A801B4B1B88002B05D02D
:10E26000194B1B88013B9AB2174B1A80174B1B881E
:10E27000002B05D0154B1B88013B9AB2134B1A801B
:10E28000134B1B88002B05D0114B1B88013B9AB206
:10E290000F4B1A800F4B1B889BB2002B06D00D4BE7
:10E2A0001B889BB2013B9AB20A4B1A80BD4602B052
:10E2B00080BDC0462EE1FF1F30E1FF1F32E1FF1F8E
:10E2C0002CE1FF1F2A380020A405002066E0FF1F74
:10E2D0002838002078E2FF1F80B582B000AF786058
:10E2E000BD4602B080BDC04680B582B000AF786048
:10E2F000024B01221A70BD4602B080BD14380020C6
:10E3000080B582B000AF7860024B01221A70BD4622
:10E3100002B080BD3CE1FF1F90B585B000AF7860D2
:10E32000194B00225A70184B1B78242B0BD1174B1A
:10E330001B78002B03D0154B00221A7015E0134BED
:10E3400001221A7011E0114B1B78002B04D00E4BE8
:10E35000181C0121FFF726FA0B4B1B78DBB20C4A85
:10E360005BB2101C191CFFF781F80A4B1A683C1CA1
:10E370000E34054B101C191C012200F09FFB031CDE
:10E380002380BD4605B090BDD0F4FF1F64E0FF1FA1
:10E390007CEAFF1FBCEFFF1F80B582B000AF786042
:10E3A000BD4602B080BDC04680B500AF01F098F90F
:10E3B000FFF71CF8134B181C0121FFF7F3F9FFF7C7
:10E3C00057FA114B1B6D181C01F018FC0E4B9B6C7F
:10E3D000181C01F07BFAFFF727FAFFF7B7FCFFF7ED
:10E3E0000FFBFFF735FAFFF72FFBFFF78FFDFFF766
:10E3F00065FCFFF7CDFA00F009F8FFF781FBFFF7A6
:10E4000097F8F6E730440100BCE1FF1F80B500AF8C
:10E410000F4B1B889BB2002B17D10E4B5B6C181C4B
:10E4200001F024FC031C012B04D00B4B1B78DBB246
:10E43000002B0AD0074B1B6D181C01F0D1FB054BBC
:10E440009B6C181C01F034FAFEE7BD4680BDC04647
:10E4500066E0FF1FBCE1FF1F40E1FF1F80B582B0F7
:10E4600000AF021CBB1D1A80BB1D1B88DAB2054B16
:10E470001A70C046034B1B78DBB2002BFAD1BD46A5
:10E4800002B080BD2A38002080B58AB000AFF860A5
:10E49000B9607A607B687B6204233B620323FB6183
:10E4A0000223BB6101237B6101233B61FA68BB68E6
:10E4B0009A4202D07B68002B00D14DE049E0BB6856
:10E4C000FA69134018D1FB68FA69134014D17A6ACB
:10E4D0003B6A9A4210D3FB68BA6812681A60FA68FD
:10E4E0003B6AD318FB60BA683B6AD318BB607A6A90
:10E4F0003B6AD31A7B622CE0BB687A69134018D15F
:10E50000FB687A69134014D17A6ABB699A4210D3C6
:10E51000FB68BA6812881A80FA68BB69D318FB6076
:10E52000BA68BB69D318BB607A6ABB69D31A7B62CD
:10E530000FE0FB68BA6812781A70FA683B69D31862
:10E54000FB60BA683B69D318BB607A6A3B69D31A2F
:10E550007B627B6A002BB2D1BD460AB080BDC0464B
:10E5600090B583B000AF234B002B00D13EE00023D9
:10E570007B601DE01F497A68131C5B009B189B00A1
:10E58000CB1858681B497A68131C5B009B189B00CA
:10E590005958184C7A68131C5B009B189B00E318B1
:10E5A00008331B681A1CFFF76FFF7B6801337B6021
:10E5B00010497A68131C5B009B189B005B58002B6A
:10E5C000D8D10C497A68131C5B009B189B00CB18B0
:10E5D0005B68002BCED107497A68131C5B009B183F
:10E5E0009B00CB1808331B68002BC3D1BD4603B07A
:10E5F00090BDC0463849010080B500AFBD4680BD22
:10E6000080B500AFBD4680BD0A4C201C002805D057
:10E61000854681B00020C043009001B0FFF7ECFFB9
:10E6200000F0BAFFFFF79CFFFFF7EAFFFBF7A0FF40
:10E63000FEE7C0460060002080B584B000AF78607F
:10E640001A4BFB60FB687A681A60194BFA681A600B
:10E65000184B184AD168184A0A40802149000A43D9
:10E66000DA60144B134AD168144A0A4085214904E0
:10E670000A43DA60124A1249C7239B00CB581B0297
:10E680001B0A802109061943C7239B00D1500C4B5C
:10E690000B4A1268802109060A431A60094BFA687E
:10E6A0001A64FB68181CBD4604B080BD44E1FF1F1E
:10E6B00048E1FF1F00B00440FFF8FFFEFFFFF0FE3F
:10E6C00000E100E0BCE1FF1F80B582B000AF094B64
:10E6D0001B687B60084B084AD268802149040A43C2
:10E6E000DA607B681B68181CFFF70AFEBD4602B0A3
:10E6F00080BDC04648E1FF1F00B0044080B584B033
:10E7000000AF7860104BFB60FB687A681A600F4BB3
:10E710000E4A526902210A435A610C4B0B4A126895
:10E7200002218A431A600A4B094A5168094A0A4081
:10E73000802149000A435A60074BFA689A63FB68D4
:10E74000181CBD4604B080BD4CE1FF1F00F00F4017
:10E7500000900440FFF8FFFEBCE1FF1F80B582B0CF
:10E7600000AF7860F8231B0602229A60BD4602B013
:10E7700080BDC04680B582B000AF7860F8231B062C
:10E7800002225A60BD4602B080BDC04680B584B04A
:10E7900000AF7860104BFB60FB687A681A600F4B23
:10E7A0000E4A526904210A435A610C4B0B4A126803
:10E7B00004218A431A600A4B094A9168094A0A40AF
:10E7C000802149000A439A60074BFA685A63FB6844
:10E7D000181CBD4604B080BD50E1FF1F00F00F4083
:10E7E00000900440FFF8FFFEBCE1FF1F80B582B03F
:10E7F00000AF7860F8231B0604229A60BD4602B081
:10E8000080BDC04680B582B000AF7860F8231B069B
:10E8100004225A60BD4602B080BDC04680B584B0B7
:10E8200000AF7860104BFB60FB687A681A600F4B92
:10E830000E4A526904210A435A610C4B0B4A126872
:10E8400004218A431A600A4B094A9168094A0A401E
:10E85000802149000A439A60074BFA68DA63FB6833
:10E86000181CBD4604B080BD54E1FF1F80F00F406E
:10E8700000B00440FFF8FFFEBCE1FF1F80B582B08E
:10E8800000AF7860024B04229A60BD4602B080BDA2
:10E89000800000F880B584B000AF78605E4BFB600C
:10E8A000FB6800225A80FB6800221A81FB68002264
:10E8B0005A60FB6800225A81FB6800221A82FB68BA
:10E8C0000022DA60FB687A685A61544BFA681A6071
:10E8D000534A5349534BCB588021C9001943514BDC
:10E8E000D150514B504A516D504A0A408021C900C5
:10E8F0000A435A654C4B4C4A116D4C4A0A408021E0
:10E90000C9000A431A654A4A4949C3239B00CB58A8
:10E91000FF218B4380211943C3239B00D150444BDB
:10E92000434A1268802149010A431A60414B414A17
:10E93000D278D2B208218A43D2B2DA703D4B3D4A36
:10E94000D278D2B204218A43D2B2DA70FB680022B4
:10E950001A80384B00229A70364B00229A71354B40
:10E9600000229A72334B00225A712D4A2C49324BA5
:10E97000C958324B0B408021C90419432E4BD1504A
:10E980002C4B2C4A1278D2B21F218A43D2B21A7071
:10E99000284B0D225A70274B264A927AD2B2D2B215
:10E9A0001F218A43D2B203210A43D2B2D2B29A7251
:10E9B000204B204AD27AD2B2D2B202210A43D2B23A
:10E9C000D2B2DA721B4B1B4AD278D2B2D2B2082131
:10E9D0000A43D2B2D2B2DA70164B164AD278D2B209
:10E9E000D2B204210A43D2B2D2B2DA70114B114A28
:10E9F000D278D2B220210A43D2B2DA700D4B0D4A3E
:10EA00009279D2B29A710E4BFA681A60FB68181CA0
:10EA1000BD4604B080BDC04658E1FF1F70E1FF1F36
:10EA2000007004403410000000D00440FFF8FFFEE6
:10EA300000E100E000A0064004100000FFFFFFF32B
:10EA4000BCE1FF1F80B584B000AF78607B68FB60DD
:10EA5000154B154AD278D1B25F220A40D2B2DA7091
:10EA6000114B114A9279D2B29A710F4B0E4AD27859
:10EA7000D2B208218A43D2B2DA700B4B0A4AD2785A
:10EA8000D2B204218A43D2B2DA70084B00221A6053
:10EA9000074A0749074BC958074B1940054BD15046
:10EAA000BD4604B080BDC04600A00640BCE1FF1FCB
:10EAB0000070044034100000FFFBFFFF80B586B0FB
:10EAC00000AFF860B960BB1D1A80FB687B61BB1D9D
:10EAD0001B88002B01D1842333E07B691B89002B29
:10EAE00001D008232DE03B1C1333EFF3108072B6E6
:10EAF0001870164B1B78DBB20133DBB2134A191CBA
:10EB00001170012B04D13B1C13331A78104B1A706F
:10EB10007B69BA685A607B69BA1D12881A817B6961
:10EB200000225A80094B1B78DBB2013BDBB2074A5B
:10EB3000191C1170002B03D1054B187880F3108835
:10EB40000023181CBD4606B080BDC046A8E1FF1FCB
:10EB50002B38002080B586B000AFF860B960BB1DCF
:10EB60001A80FB687B61BB1D1B88002B01D18423AD
:10EB70004FE07B691B8A002B01D0082349E03B1C36
:10EB80001333EFF3108072B61870244B1B78DBB28E
:10EB90000133DBB2214A191C1170012B04D13B1C3B
:10EBA00013331A781E4B1A707B69BA68DA607B6976
:10EBB000BA1D12881A827B6900225A817B691B88E0
:10EBC000012213439AB27B691A807B691B88042255
:10EBD00093439AB27B691A80124B124AD278D2B20E
:10EBE000802149420A43D2B2DA700E4B0D4A927923
:10EBF000D2B29A71094B1B78DBB2013BDBB2074AF8
:10EC0000191C1170002B03D1054B187880F3108864
:10EC10000023181CBD4606B080BDC046A8E1FF1FFA
:10EC20002B38002000A0064090B583B000AF78607C
:10EC3000124BDB79DBB21C1C7B681B89002B1AD0C2
:10EC40007B685B68591C7A685160E2B21A707B6815
:10EC50005B8801339AB27B685A807B685A887B68EC
:10EC60001B899A4207D17B6800221A817B685B6905
:10EC7000181CFFF78DFABD4603B090BD00A00640FA
:10EC800080B582B000AF78607B685A897B681B8A48
:10EC90009A421CD220497B68DB68581C7A68D06095
:10ECA0001B78CB717B685B8901339AB27B685A8190
:10ECB0007B685A897B681B8A9A4229D17B6800222B
:10ECC0001A827B685B69181CFFF784FA20E0124BFC
:10ECD000114AD278D1B27F220A40D2B2DA700E4BFA
:10ECE0000D4A9279D2B29A710B4B0B4AD278D2B2BA
:10ECF00040210A43D2B2DA70074B074A9279D2B266
:10ED00009A717B681B88012293439AB27B681A80B0
:10ED1000BD4602B080BDC04600A0064090B583B09D
:10ED200000AF244B1B687B60234B1B79DBB21C1CA0
:10ED30000F23234009D0204B0F221A711E4BDB7981
:10ED40002023221C9A43131C1C1C2023234003D085
:10ED50007B68181CFFF768FF7B681B881A1C01235F
:10ED6000134006D08023234003D07B68181CFFF794
:10ED700087FF114BDB78DBB21A1C4023134016D0FF
:10ED80004023234013D00C4B0B4AD278D2B24021FF
:10ED90008A43D2B2DA70084B074A9279D2B29A719A
:10EDA0007B681B88042213439AB27B681A80BD4695
:10EDB00003B090BD70E1FF1F00A0064080B584B095
:10EDC00000AF78604C4BFB60FB6800225A80FB6808
:10EDD00000221A81FB6800225A60FB6800225A81D7
:10EDE000FB6800221A82FB680022DA60FB687A68FE
:10EDF0005A61424BFA681A60414A4149414BCB582B
:10EE00008021090119433F4BD1503F4B3E4A516885
:10EE10003E4A0A40C02189000A435A603A4B3A4AA6
:10EE200011683A4A0A40C02189000A431A60384AE8
:10EE30003749C3239B00C958364B0B408021090238
:10EE40001943C3239B00D150314B314A12688021B2
:10EE500089010A431A60304B2F4AD278D2B2082176
:10EE60008A43D2B2DA702C4B2B4AD278D2B2042128
:10EE70008A43D2B2DA70FB6800221A80264B002245
:10EE80009A70254B00229A71234B00225A71224B13
:10EE9000214A1278D2B21F218A43D2B21A701E4B75
:10EEA0000D225A701C4B1C4AD278D2B2D2B2082121
:10EEB0000A43D2B2D2B2DA70174B174AD278D2B222
:10EEC000D2B204210A43D2B2D2B2DA70124B124A41
:10EED000D278D2B220210A43D2B2DA700E4B0E4A57
:10EEE0009279D2B29A710D4BFA68DA65FB68181CF8
:10EEF000BD4604B080BDC04674E1FF1F8CE1FF1F1A
:10EF0000007004403410000000D00440FFF8FFFE01
:10EF100000E100E0FF00FFFF00B00640BCE1FF1F82
:10EF200080B584B000AF78607B68FB60154B154AF4
:10EF3000D278D1B25F220A40D2B2DA70114B114AB4
:10EF40009279D2B29A710F4B0E4AD278D2B208217E
:10EF50008A43D2B2DA700B4B0A4AD278D2B2042179
:10EF60008A43D2B2DA70084B0022DA65074A0749B1
:10EF7000074BC958074B1940054BD150BD4604B04B
:10EF800080BDC04600B00640BCE1FF1F00700440D9
:10EF900034100000FFF7FFFF80B586B000AFF860C7
:10EFA000B960BB1D1A80FB687B61BB1D1B88002BF1
:10EFB00001D1842333E07B691B89002B01D0082316
:10EFC0002DE03B1C1333EFF3108072B61870164B14
:10EFD0001B78DBB20133DBB2134A191C1170012B11
:10EFE00004D13B1C13331A78104B1A707B69BA6832
:10EFF0005A607B69BA1D12881A817B6900225A8087
:10F00000094B1B78DBB2013BDBB2074A191C1170BC
:10F01000002B03D1054B187880F310880023181CAF
:10F02000BD4606B080BDC046A8E1FF1F2B380020BA
:10F0300080B586B000AFF860B960BB1D1A80FB6870
:10F040007B61BB1D1B88002B01D1842348E07B69B9
:10F050001B8A002B01D0082342E03B1C1333EFF343
:10F06000108072B61870204B1B78DBB20133DBB214
:10F070001D4A191C1170012B04D13B1C13331A7843
:10F080001A4B1A707B69BA68DA607B69BA1D1288FC
:10F090001A827B6900225A817B691B8801221343F3
:10F0A0009AB27B691A80124B114AD278D2B280216F
:10F0B00049420A43D2B2DA700D4B0D4A9279D2B26C
:10F0C0009A71094B1B78DBB2013BDBB2064A191C73
:10F0D0001170002B03D1054B187880F310880023A2
:10F0E000181CBD4606B080BDA8E1FF1F2B380020CC
:10F0F00000B0064090B583B000AF7860124BDB796A
:10F10000DBB21C1C7B681B89002B1AD07B685B68F8
:10F11000591C7A685160E2B21A707B685B880133CF
:10F120009AB27B685A807B685A887B681B899A42AE
:10F1300007D17B6800221A817B685B69181CFFF786
:10F14000EBF8BD4603B090BD00B0064080B582B07C
:10F1500000AF78607B685A897B681B8A9A421CD210
:10F1600019497B68DB68581C7A68D0601B78CB71C2
:10F170007B685B8901339AB27B685A817B685A89C4
:10F180007B681B8A9A421CD17B6800221A827B68AA
:10F190005B69181CFFF700F913E00B4B0A4AD278A1
:10F1A000D1B27F220A40D2B2DA70074B064A927976
:10F1B000D2B29A717B681B88012293439AB27B6812
:10F1C0001A80BD4602B080BD00B0064090B583B045
:10F1D00000AF144B1B687B60134B1B79DBB21C1C0C
:10F1E0000F23234006D0104BDB792023221C9A43A7
:10F1F000131C1C1C2023234003D07B68181CFFF722
:10F2000079FF7B681B881A1C0123134006D08023DA
:10F21000234003D07B68181CFFF798FFBD4603B05E
:10F2200090BDC0468CE1FF1F00B0064080B584B0A1
:10F2300000AF78600D4BFB60FB687A681A600C4B7E
:10F240000B4A51690B4A0A405A610B4B0A4A116B2F
:10F250000A4A0A40802149000A431A63084BFA68A7
:10F260005A65FB68181CBD4604B080BD90E1FF1FC5
:10F2700000F00F40FFEFFFFF00900440FFF8FFFE9B
:10F28000BCE1FF1F80B584B000AF7860114BFB601C
:10F29000FB687A681A60104B0F4A52698021890115
:10F2A0000A435A610C4B0C4A11680C4A0A401A6016
:10F2B0000B4B0B4A516B0B4A0A40802149000A4311
:10F2C0005A63094BFA689A65FB68181CBD4604B07E
:10F2D00080BDC04694E1FF1F00F00F40FFDFFFFF3D
:10F2E00000900440FFF8FFFEBCE1FF1F80B582B034
:10F2F00000AF7860F8231B06802292019A60BD4619
:10F3000002B080BD80B582B000AF7860F8231B06E4
:10F31000802292015A60BD4602B080BD80B584B0A3
:10F3200000AF7860114BFB60FB687A681A60104B85
:10F330000F4A5269802149000A435A610C4B0C4A1A
:10F340001268802149000A431A600A4B094A116A6F
:10F35000094A0A40802149000A431A62074BFA68A9
:10F360005A62FB68181CBD4604B080BD98E1FF1FBF
:10F3700080F00F4000B00440FFF8FFFEBCE1FF1F2B
:10F3800080B582B000AF7860034B802252009A6053
:10F39000BD4602B080BDC046800000F880B582B096
:10F3A00000AF7860034B802252005A60BD4602B025
:10F3B00080BDC046800000F880B584B000AF7860A2
:10F3C000104BFB60FB687A681A600F4B0E4A52695B
:10F3D00010210A435A610C4B0B4A126810210A4350
:10F3E0001A600A4B094A1169094A0A4080214900FA
:10F3F0000A431A61074BFA689A62FB68181CBD46FB
:10F4000004B080BD9CE1FF1FC0F00F4000C004406D
:10F41000FFF8FFFEBCE1FF1F80B582B000AF78604F
:10F42000024B10229A60BD4602B080BDC00000F8B9
:10F4300080B582B000AF7860024B10225A60BD46A2
:10F4400002B080BDC00000F880B584B000AF786025
:10F45000114BFB60FB687A681A60104B0F4A5269C7
:10F460008021C9000A435A610C4B0C4A1268802162
:10F47000C9000A431A600A4B094A916A094A0A40BC
:10F48000802149000A439A62074BFA68DA62FB68F6
:10F49000181CBD4604B080BDA0E1FF1F80F00F40E6
:10F4A00000B00440FFF8FFFEBCE1FF1F80B582B052
:10F4B00000AF7860034B8022D2009A60BD4602B054
:10F4C00080BDC046800000F880B582B000AF786093
:10F4D000034B8022D2005A60BD4602B080BDC046B8
:10F4E000800000F880B584B000AF7860114BFB60FD
:10F4F000FB687A681A60104B0F4A52698021090133
:10F500000A435A610C4B0C4A1268802109010A43D4
:10F510001A600A4B094AD16A094A0A408021490007
:10F520000A43DA62074BFA681A63FB68181CBD4687
:10F5300004B080BDA4E1FF1F80F00F4000B0044084
:10F54000FFF8FFFEBCE1FF1F80B582B000AF78601E
:10F55000034B802212019A60BD4602B080BDC046B6
:10F56000800000F880B582B000AF7860034B802245
:10F5700012015A60BD4602B080BDC046800000F84E
:10F5800080B500AFFEF7F6FDBD4680BD80B500AF8B
:10F59000FFBEBD4680BDC04680B500AF434A44496A
:10F5A000444BD150444A88235B010021D150424A48
:10F5B000424BC0218902D1503F4A3F49404BCB5872
:10F5C000F821890119433E4BD1503E4B9B78DBB269
:10F5D0001A1C0823134007D03A4B3A4A9278D2B209
:10F5E00008210A43D2B29A70334A344B802149022F
:10F5F000D150314A3049344BC958344B1940324B01
:10F60000D1502D4B2C4A1168314A0A401A602A4ABF
:10F6100029492D4BC9582F4B0B40802149041943D0
:10F62000294BD1502C4B2C4A127AD2B20E218A434C
:10F63000D2B21A72284B04221A70274B264A5278EB
:10F64000D2B2D2B2111C40220A40D2B201210A43E6
:10F65000D2B2D2B25A70204B1F4AD278D2B2D2B2B2
:10F66000111C1F220A40D2B2602149420A43D2B281
:10F67000D2B2DA70194B00221A70174B00221A719D
:10F68000154B00225A71C046134B9B79DBB21A1CF2
:10F6900010231340F8D0C0460F4B9B79DBB21A1CE5
:10F6A0000C231340F8D1BD4680BDC04600E000E009
:10F6B00000A00000080D000000700440441000008D
:10F6C0003810000000D0074004100000FFFFFCFFCE
:10F6D000FFFFF3FFFFFFFFFC004006400050064025
:10F6E00080B582B000AF4F4B4E4A11694E4A0A4076
:10F6F000E021C9000A431A614C4B4C4A5279D2B2FC
:10F700001F218A43D2B25A71484B484A1279D2B269
:10F7100007218A43D2B21A71454B454A1278D2B2B8
:10F72000D2B273218A43D2B250210A43D2B2D2B2AA
:10F730001A703F4B3E4A5278D2B2D2B263218A430A
:10F74000D2B240210A43D2B2D2B25A70384B384AB0
:10F750009278D2B219218A43D2B29A70354B0022E4
:10F760001A70354B344A526908218A435A612D4B2D
:10F770002C4A116B314A0A4002210A431A63304A6B
:10F780002F49C7239B00C9582E4B1940C7239B0004
:10F79000D150244B234A116D234A0A40E021C9006D
:10F7A0000A431A65264A2649C1239B00C958254B9E
:10F7B0001940C1239B00D1501C4B5B78DBB21A1C53
:10F7C000BB1D12021A80194B1B78DBB2191CBB1D22
:10F7D000BA1D12880A431A80BB1D1B88181CFEF72D
:10F7E000CDFC002000F0C6FB002000F093FA0020C2
:10F7F000FEF722FF002000F00FFA002000F024F8AE
:10F80000002000F085F9002000F0B6F90020FFF795
:10F810000DFD00F03FFA0020FFF734FD62B6BD4653
:10F8200002B080BD00900440FFF8FFFE00F00740EA
:10F8300000D0074000E0074080F00F40FCFFFFFED3
:10F8400000E100E0FFFF00FF80B584B000AF78600A
:10F85000114BFB60FB687A681A60104B0F4A5269C3
:10F860008021C9020A435A610C4B0C4A11680C4AA8
:10F870000A401A600B4B0B4A916C0B4A0A408021DC
:10F8800049000A439A64094BFA689A64FB68181C99
:10F89000BD4604B080BDC046ACE1FF1F40F00F4044
:10F8A000FFFFFBFF00A00440FFF8FFFEBCE1FF1FCD
:10F8B00080B582B000AF7860034B8022D2029A609C
:10F8C000BD4602B080BDC046400000F880B582B0A1
:10F8D00000AF7860034B8022D2025A60BD4602B06E
:10F8E00080BDC046400000F880B584B000AF7860AD
:10F8F000104BFB60FB687A681A600F4B0E4A526926
:10F9000001210A435A610C4B0B4A126801218A43B8
:10F910001A600A4B094A1168094A0A4080214900C5
:10F920000A431A60074BFA68DA60FB68181CBD4688
:10F9300004B080BDB0E1FF1F40F00F4000A00440C4
:10F94000FFF8FFFEBCE1FF1F80B584B000AF786018
:10F95000064B1A6801231340FB60FB685A1E934153
:10F96000DBB2181CBD4604B080BDC046400000F8A4
:10F9700080B582B000AF7860024B01229A60BD462C
:10F9800002B080BD400000F880B582B000AF786062
:10F99000024B01225A60BD4602B080BD400000F813
:10F9A00080B584B000AF7860104BFB60FB687A686C
:10F9B0001A600F4B0E4A526902210A435A610C4BDE
:10F9C0000B4A126802218A431A600A4B094A51689D
:10F9D000094A0A40802149000A435A60074BFA68E5
:10F9E0001A61FB68181CBD4604B080BDB4E1FF1F5E
:10F9F00040F00F4000A00440FFF8FFFEBCE1FF1FF5
:10FA000080B584B000AF7860064B1A6802231340BB
:10FA1000FB60FB685A1E9341DBB2181CBD4604B064
:10FA200080BDC046400000F880B582B000AF78606D
:10FA3000024B02229A60BD4602B080BD400000F831
:10FA400080B582B000AF7860024B02225A60BD469A
:10FA500002B080BD400000F880B584B000AF78608F
:10FA6000104BFB60FB687A681A600F4B0E4A5269B4
:10FA700004210A435A610C4B0B4A126804218A4341
:10FA80001A600A4B094A9168094A0A4080214900D4
:10FA90000A439A60074BFA685A61FB68181CBD4616
:10FAA00004B080BDB8E1FF1F40F00F4000A004404B
:10FAB000FFF8FFFEBCE1FF1F80B584B000AF7860A7
:10FAC000064B1A6804231340FB60FB685A1E9341DF
:10FAD000DBB2181CBD4604B080BDC046400000F833
:10FAE00080B582B000AF7860024B04229A60BD46B8
:10FAF00002B080BD400000F880B582B000AF7860F1
:10FB0000024B04225A60BD4602B080BD400000F89E
:10FB100080B584B000AF7860114BFB60FB687A68F9
:10FB20001A60104B0F4A5269802149020A435A61F8
:10FB30000C4B0C4A11680C4A0A401A600B4B0B4ADA
:10FB4000116C0B4A0A40802149000A431A64094B90
:10FB5000FA68DA64FB68181CBD4604B080BDC04674
:10FB60001CE2FF1F40F00F40FFFFFEFF00A004401B
:10FB7000FFF8FFFEBCE1FF1F80B584B000AF7860E6
:10FB8000114BFB60FB687A681A60104B0F4A526990
:10FB9000802189020A435A610C4B0C4A11680C4AB5
:10FBA0000A401A600B4B0B4A516C0B4A0A408021E9
:10FBB00049000A435A64094BFA681A65FB68181C25
:10FBC000BD4604B080BDC04620E2FF1F40F00F409C
:10FBD000FFFFFDFF00A00440FFF8FFFEBCE1FF1F98
:10FBE00080B582B000AF7860034B802292029A60A9
:10FBF000BD4602B080BDC046400000F880B582B06E
:10FC000000AF7860034B802292025A60BD4602B07A
:10FC100080BDC046400000F880B584B000AF786079
:10FC20000D4BFB60FB687A681A600C4B0B4A5269FB
:10FC300008218A435A610A4B094AD168094A0A4095
:10FC4000802149000A43DA60074BFA685A64FB686E
:10FC5000181CBD4604B080BD24E2FF1F40F00F40D9
:10FC600000A00440FFF8FFFEBCE1FF1F80B584B098
:10FC700000AF7860064B1A6908231340FB60FB68ED
:10FC80005A1E9341DBB2181CBD4604B080BDC0466D
:10FC9000400000F880B500AFBD4680BD80B584B09F
:10FCA00000AF7860104BFB60FB687A681A600F4BFE
:10FCB0000E4A526901210A435A610C4B0B4A1268E1
:10FCC00001218A431A600A4B094A1168094A0A400D
:10FCD000802149000A431A60074BFA689A61FB6861
:10FCE000181CBD4604B080BD28E2FF1FC0F00F40C5
:10FCF00000C00440FFF8FFFEBCE1FF1F80B582B0EA
:10FD000000AF7860024B01225A60BD4602B080BD50
:10FD1000C00000F880B584B000AF7860104BFB6085
:10FD2000FB687A681A600F4B0E4A526902210A4337
:10FD30005A610C4B0B4A126802218A431A600A4B23
:10FD4000094A5168094A0A40802149000A435A6019
:10FD5000074BFA68DA61FB68181CBD4604B080BD29
:10FD60002CE2FF1FC0F00F4000C00440FFF8FFFE70
:10FD7000BCE1FF1F80B584B000AF7860384BFB60FA
:10FD8000FB687A689A61374BFA681A60FB68002250
:10FD90001A60FB6800229A80FB6800229A81FB6847
:10FDA00000229A60FB680022DA81FB6800229A82B6
:10FDB000FB6800221A61FB6800229A752A4A2A49C8
:10FDC0002A4BCB588021C9031943284BD150284ACC
:10FDD0002749C2239B00C958264B0B4080210904A8
:10FDE0001943C2239B00D150214B214A1268802124
:10FDF000C9000A431A60204B1F4AD1691F4A0A40B2
:10FE0000802189000A43DA611B4B1B4A91691B4A16
:10FE10000A40802189000A439A61174B164A5169AA
:10FE2000164A0A40802189000A435A61144B16225F
:10FE3000DA70134B10229A70114B20225A70104B1B
:10FE40000F4AD278D2B240210A43D2B2DA700D4BB7
:10FE5000FA681A62FB68181CBD4604B080BDC04633
:10FE600030E2FF1F4CE2FF1F00700440341000001E
:10FE700000E100E0FFFF00FF00B00440FFF8FFFEDC
:10FE800000600740BCE1FF1F80B582B000AF374B78
:10FE90001B687B60364AFB1C12781A70FB1C1B78AF
:10FEA0005BB2002B2FDA7B689B89002B2BD07B6801
:10FEB0009B68591C7A6891602D4A9279D2B21A7067
:10FEC0007B689B8801339AB27B689A807B689A88AA
:10FED0007B689B899A4216D1254B254AD278D1B2AC
:10FEE0007F220A40D2B2DA707B6800229A817B6856
:10FEF0009B7D02221343DAB27B689A757B689B690B
:10FF0000181CFEF7F1F9FB1C1A78202313402AD0A5
:10FF10007B68DA897B689B8A9A421CD214497B6889
