:1000000000600020E9040000F9040000F904000089
:1000100000000000000000000000000000000000E0
:10002000000000000000000000000000F9040000D3
:100030000000000000000000F9040000F59C000032
:10004000C19A0000D19A0000E19A0000F19A0000E4
:10005000F9040000F9040000F9040000F9040000AC
:10006000F9040000F9040000A1490000F9040000AF
:10007000F9040000B19A0000F9040000F90400003E
:10008000F9040000F9040000F9040000F90400007C
:10009000F9040000F9040000F9040000F90400006C
:1000A000F9040000F9040000F9040000F90400005C
:1000B000F9040000F9040000F90400002D4A0000D2
:10040000FFFFFFFFFFFFFFFFFFFFFFFFFE3FFFFFBD
:1004100010B5064C2378002B07D1054B002B02D0DA
:10042000044800E000BF0123237010BD08E3FF1F54
:1004300000000000280B010008B5084B002B03D07A
:100440000748084900E000BF07480368002B03D0B5
:10045000064B002B00D0984708BDC04600000000A6
:10046000280B01000CE3FF1F04E3FF1F0000000046
:10047000164B002B00D1144B9D46402292029A1A33
:10048000924600218B460F461348144A121A09F06F
:10049000AAFF0F4B002B00D098470E4B002B00D02B
:1004A00098470020002104000D000D48002802D0CC
:1004B0000C4800E000BF09F05DFF2000290004F0B7
:1004C000CFFA09F02FFFC0460000080000600020AE
:1004D000000000000000000008E3FF1FC429002006
:1004E000000000000000000072B609F049F909F0B0
:1004F00091F962B6FFF7BCFF00480047F90400001D
:10050000002934D00123002210B488422CD30124C6
:100510002407A14204D2814202D209011B01F8E75B
:10052000E400A14204D2814202D249005B00F8E714
:10053000884201D3401A1A434C08A04202D3001B40
:100540005C0822438C08A04202D3001B9C08224373
:10055000CC08A04202D3001BDC082243002803D0B1
:100560001B0901D00909E3E7101C10BC70470028E3
:1005700001D00020C04307B4024802A140180290F5
:1005800003BDC046D90000000029F0D003B5FFF735
:10059000B9FF0EBC4243891A1847C046002941D012
:1005A00010B4041C4C40A44601230022002900D5AD
:1005B0004942002800D5404288422CD30124240718
:1005C000A14204D2814202D209011B01F8E7E400F2
:1005D000A14204D2814202D249005B00F8E788427E
:1005E00001D3401A1A434C08A04202D3001B5C08F6
:1005F00022438C08A04202D3001B9C082243CC0853
:10060000A04202D3001BDC082243002803D01B09B0
:1006100001D00909E3E7101C6446002C00D54042D4
:1006200010BC7047002806D003DB0020C043400800
:1006300001E08020000607B4024802A140180290A1
:1006400003BDC046190000000029EBD003B5FFF739
:10065000A7FF0EBC4243891A1847C0467047C046E0
:10066000002B11D1002A0FD1002900D1002802D07F
:100670000021C943081C07B4024802A14018029097
:1006800003BDC046D9FFFFFF03B4684601B5029819
:1006900000F044F8019B9E4602B00CBC7047C04677
:1006A0009C460304F0B51B0C17043F0C150C1E1CD4
:1006B000041C000C7E436B4347434543FB18300C3E
:1006C0001818874202D980235B02ED18030CED183D
:1006D00063465C434A433604360CA1180004801973
:1006E0004919F0BDF0B583B0161C1F1C0090019194
:1006F00000F03EFE041C0D1C221C2B1C301C391C5F
:10070000FFF7CEFF009A019B121A8B410899201C1B
:100710000A604B60291C03B0F0BDC046F0B583B041
:10072000141C1D1C0090019100F0FEFF221C2B1CCC
:10073000061C0F1CFFF7B4FF009A019B121A8B4195
:100740000899301C0A604B60391C03B0F0BDC046EC
:10075000F0B5564644465F464D46F0B41F1C0B03A9
:100760001B0B98464B0087B0041C81465B0DC80FDD
:10077000161C9A460090002B51D06A4B9A4531D0F6
:100780008022414652030A43630FD2001A43664B4C
:1007900090460025E20091469A44002402953B03CE
:1007A0001B0B9B46FD0F7B00311C5B0D019560D040
:1007B0005C4A934254D08021584649030143720F4A
:1007C000C9001143584A8B469B18F1000020009A3B
:1007D00004436A4003920F2C00D9ADE0534EA400AD
:1007E0003459A746404604436ED10021022508240F
:1007F000884689460295D2E7009C0298C34649463E
:100800000194022864D0032800D1ABE2012800D073
:1008100038E2019A002402400025A14660E04346E8
:1008200023434AD04046002800D1C0E100F082FDB9
:10083000031E272B00DDB3E128210D1A211C083BE4
:100840004246E9409A400D1C1543221C9A40A84696
:100850009146374B00251B1A9A46002402959EE7C5
:100860005A4616430320002EB1D1B3460021022080
:10087000ADE75A4632431BD05B46002B00D18AE1DC
:10088000584600F057FD272800DD7DE12822171A81
:10089000011C321C08395B46FA408B40171C1F4371
:1008A000331C8B40BB46191C214B1B1A00208EE7C2
:1008B0000027BB460021012089E7002001250424F0
:1008C0008046814602956AE703250C24029566E777
:1008D000019C0394039D01222A400024114DA1464E
:1008E000002000212403260B0C0D2405114B34435A
:1008F0002D0523402B435B005B08D207191C48469B
:10090000114307B03CBC90469946A246AB46F0BDA9
:100910000022802424039146024DE1E700240025B3
:10092000A146DDE7FF07000001FCFFFFD4FD00004A
:100930000DFCFFFFFFFF0F805546ED1A0495D845CB
:1009400000D953E100D14EE1049C0025013C4E4604
:1009500004944746A946584603020C0E1C4309025C
:10096000250C23041B0C0091381C291C0193FFF754
:10097000C7FD019983464143381C8A46291CFFF76D
:1009800003FE330C090419438A450CD95B46091947
:10099000013B8C4200D947E18A4500D844E102225C
:1009A0005242934409195346CB1A181C291C9846E5
:1009B000FFF7A6FD071C0198291C78438246404694
:1009C000FFF7E2FD36040B04360C33439A4509D990
:1009D0001B197A1E9C4200D924E19A4500D821E1D6
:1009E000023F1B195E4632041743380CBB46009E7B
:1009F000009F51463F0C32045B1A5946BA46120C0E
:100A00000F043F0C904651467A434F4341464143C1
:100A100056467043CF19160CBE19B14202D9802731
:100A20007F02C019310C12043604120C4018B6189B
:100A3000834200D2C4E000D1BEE0191A4846861BAA
:100A4000B145BF417F42CF1BA74200D113E1291C12
:100A5000381CFFF755FD019902904143381C894627
:100A6000291CFFF791FD330C0904194389450CD962
:100A7000029B0919013B8C4200D9FFE0894500D84F
:100A8000FCE0029F0919023F02974F46CF1B381C1A
:100A9000291C0597FFF734FD071C0198291C784392
:100AA00081460598FFF770FD36040904360C0E43A5
:100AB000B14509D936197B1EB44200D9E0E0B145F1
:100AC00000D8DDE0023F3619029D4946761A290416
:100AD00039430B0457460A0C1B0C40464546584305
:100AE00055437B437A43EB18070CDB199D4202D92F
:100AF00080256D0252191D0C00041B04000C5219B4
:100B00001B18964235D300D1FCE001231943049E03
:100B1000994FF519002D00DCA1E0480709D00F23FB
:100B20000B40042B05D00B1D8B42894149428B445D
:100B3000191C5A46D20107D5904B5C46049E80276B
:100B40001C40FF00A346F5198D4B9D427ADD039CA6
:100B50000122224000248B4DA146C1E680242403BB
:100B6000474627424CD13C432403240B009A854D31
:100B7000B6E63619481EB4425ED9011C9642C4D16D
:100B8000009E9E42C1D1C2E7031C283B311C994004
:100B90008B46002188E6301C00F0CCFB203072E64A
:100BA000283B211C994000228846914651E6201C92
:100BB00000F0C0FB20303BE60021B14500D33DE70B
:100BC000009F5A46B944B945BF417F423F19FB18BF
:100BD000013A9C421ED2984200D97EE000D1B5E095
:100BE000191A93462AE7894500D8ADE64846464695
:100BF00042467708D3074608C0071E438146AAE647
:100C00005846204212D1044324032A1C240B89464F
:100C10005C4D65E6A342E3D1009F4F45DBD9211A25
:100C200093460BE7171CDDE69B46BCE63C432403DA
:100C3000240B009A534D53E6B24259D800D18AE0B2
:100C4000011C62E75F46C9087B07039E0B437C02D9
:100C50006D0501229946240B6D0D324040E64A4B4A
:100C6000049FDB1B382B10DD039C01222240002453
:100C70000025A14634E60121494248E7029304E7F2
:100C80001F1C21E7019C039441E71F2B40DC3F48D8
:100C9000049F0C1C3A1858469140DC409040204379
:100CA0000A1C511E8A41011C11435A46DA40131C8A
:100CB000480709D00F220A40042A05D00A1D8A429B
:100CC000894149425B18111C1A0234D5039C012248
:100CD000224000240125A14602E6009F022149424C
:100CE000B9448B44B945894149420919CB18A4E656
:100CF000009D881E6900A942AD416D422C1936192C
:100D000000913AE7002B00D033E70024009437E746
:100D10001F4A049C5D46121BD5402A1C202B1FD065
:100D20001C4E5F46A3199F403B1C19434B1E994123
:100D300011430023BCE75A07C9080A43039F9146A1
:100D40005B0201221C0B3A400025C9E54E45C4D880
:100D50009346002172E6009F9F42C9D3011C0FE712
:100D60000023E2E7802424035F463C432403240B52
:100D7000019A8946034DB3E5FF030000FFFFFFFE24
:100D8000FE070000FF07000002FCFFFF1E0400003A
:100D9000E2FBFFFF3E040000F0B5564644465F46C6
:100DA0004D46F0B41F1C0B031B0B9A464B0087B03B
:100DB000041C80465B0DC80F161C02938146002B55
:100DC00068D0694B0299994232D08022534652032F
:100DD0001A43D200630F1A439246644AE00089180E
:100DE00080460291002400253B031B0B9B467800A4
:100DF000FB0F321C400D039300D175E05A4B984213
:100E000069D08022594652030A43730FD2001A4315
:100E1000564B9346C018F200002303994E4671408A
:100E20001C430F2C00D9A9E0514EA4003459A74609
:100E300053461C4300D087E00025AA46A846082454
:100E40000225D1E74946022D6CD0032D00D117E2CF
:100E5000012D00D058E10D40EDB20024A946002339
:100E6000A0460020002125030A0D1C052D0B1205AC
:100E7000404B2A43134023435B004C465B08E20788
:100E8000191C4046114307B03CBC90469946A24607
:100E9000AB46F0BD5346234350D05346002B00D100
:100EA00084E1504600F046FA031E272B00DD76E170
:100EB00028210D1A211C083B5246E9409A400D1C7E
:100EC0001543221C9A40AA4690462B4B00241B1A1D
:100ED0000293002588E75B461E430323002E9CD126
:100EE000B3460022022398E75B46334321D058469D
:100EF000002800D14EE100F01DFA272800DD42E174
:100F000028210F1A021C311C083A5B46F940934015
:100F10000F1C1F43331C9340BB461A1C164B181A58
:100F200000237AE701230B4000249946A0460E4B8C
:100F300097E70027BB46002201236EE70021042427
:100F40008A46884601254FE70C2403254CE70025F7
:100F50008024A9462403A846034B82E7DA4690463C
:100F600003991D1C6FE7C046FF07000001FCFFFF4F
:100F700014FE0000FFFF0F800DFCFFFF029F160C08
:100F8000381804904046070C0004000C1204120CA0
:100F9000031C5343041C3D1C7443554398463B1C9F
:100FA00073436419A44644460293230C63449D4250
:100FB00004D9029D802464022D1902951D0C03950D
:100FC00045462C041B04240C1C1905945C46230C78
:100FD000051C58432404240C8446381C6043654394
:100FE0005F438146CC44280C6044BB46814502D90E
:100FF00080277F02BB442D04070C2D0C00044019F0
:101000005546BC462F04E3448446280C3D0C2F1C57
:101010005743B8462F1C77434243B94647463F0CD7
:101020009144BA46D14446434A4502D980225202ED
:10103000B6184F463A0CB6183A0447463F043F0CE0
:10104000B8462F1C67435D434443584365190190DC
:10105000380C2D184244B846AC4204D9019880237C
:101060005B02C0180190039C029F201C6044C019C1
:101070006045A44147466442A4462B043C0499467B
:10108000240C4C44A046D8448018C246E244904206
:101090009241574652429146F219E245BF417F4282
:1010A0004B46BC46D845BF41D4187F4263461F43D8
:1010B0002D0C7F19B24292414C45AD4152426D42D6
:1010C0001543019E7D19AB19E20D5B02059F134389
:1010D00042023A439A46531E9A41C30D101C1843CC
:1010E0006402204380465046C0010DD5454601228A
:1010F0005646049C6B082A401A43F30701341A43EE
:10110000760804949046B246049E634FF319002B70
:1011100061DD404640070BD00F2244462240042A9E
:1011200006D04246043242458041404282449046C5
:101130005546ED0107D5594B5646049F80201E4069
:10114000C000B2463B18564A934200DDEAE64446E8
:101150005546E2086807104301226C025B050A400D
:101160008046240B5B0D91467BE6DA4690461D1CBB
:1011700069E680242403574627421CD13C432403BC
:10118000240B484B6DE6031C283B311C99408B46D1
:101190000022C3E6301C00F0CDF82030ADE6283B3D
:1011A000211C994000228A4690468EE6201C00F0C1
:1011B000C1F8203078E65846204207D1044303990D
:1011C0002403240B89469046364B4AE63C432403CD
:1011D000240B344B45E6344B049E9B1B382B06DD19
:1011E00001230B4000249946A046002339E61F2B1B
:1011F00025DC049C2D4D46466019524644468640E7
:10120000DC4082405746301C2243DF40441EA04150
:1012100002433B1C540709D00F201040042805D07E
:10122000101D9042924152429B18021C1D021AD579
:1012300001230B4000249946A046012311E61C48D7
:10124000049C5546001BC540281C202B16D0194E67
:101250005746A21997403A1C43461A43531E9A41D7
:1012600002430023D6E758075B02D2081C0B012378
:101270000B401043994680460023F2E50022EBE73D
:101280008024240350460123044319402403240BE3
:101290008946044BE5E5C046FF030000FFFFFFFE63
:1012A000FE070000FF07000002FCFFFF1E04000015
:1012B000E2FBFFFF3E040000F8B5041E31D0C70F6B
:1012C00000D04442201C00F035F8184D2D1A0A2891
:1012D00019DD0B38844024036D05240B6D0D3A1C79
:1012E0000026002000210B0D2403240B1B052343A3
:1012F0000F4C2D051C402C4364006408D307211CAF
:10130000301C1943F8BD061C1536231CB3401E1CA7
:101310000B23181AC44024036D05240B6D0D3A1CD1
:10132000DFE70022002500240026DAE71E04000083
:10133000FFFF0F801C2101231B04984201D3000CE6
:1013400010391B0A984201D3000A08391B09984238
:1013500001D30009043902A2105C40187047C0464E
:10136000040302020101010100000000000000006E
:10137000F0B544465F4656464D46F0B41C1C85B059
:10138000002900DADBE00F1C0021061C8A46101C35
:10139000191C002C00DAC9E00196009089468046AD
:1013A000002951D1B84200D871E0FFF7C3FF0028EF
:1013B00009D020234546311C1B1A85408740D9405F
:1013C000A8460F4386404246150C13041B0C291CEB
:1013D000381C9B46FFF794F85B464343041C291CCA
:1013E000381C9946FFF7D0F8330C080418438145A0
:1013F00009D94044631E804500D978E1814500D871
:1014000075E1023C40444946411A8946081C291CA2
:10141000FFF776F85A464243071C291C4846934674
:10142000FFF7B2F836040904360C0E43B34507D96A
:1014300046447B1EB04502D8023FB34500D81F1C6E
:1014400024042743002403E0B94211D900240027D3
:101450005246381C211C002A03D03B1C0021584254
:10146000A14105B03CBC90469946A246AB46F0BDB2
:10147000081CFFF75FFF041E00D0BFE0B94500D293
:1014800042E1019D0099071C8D424741E0E7002899
:1014900004D101200021FFF733F880464046FFF7D2
:1014A00049FF002852D1414644460B043C1B1B0C0B
:1014B000A3460D0C00930124291C5846FFF720F881
:1014C000009F81464743291C5846FFF75DF8330CBF
:1014D000090419438F4208D94B464144013B8845D2
:1014E00002D88F4200D91AE19946C91B8B46081CC5
:1014F000291CFFF705F8009B291C4343071C58468D
:101500000093FFF741F83604009D0904360C0E43A2
:10151000B54207D946447B1EB04502D8023FB542CA
:1015200000D81F1C49460E04374391E75246D24368
:10153000031C0C1C924600215842A1412CE70027B5
:1015400046428F41012149428A4620E720231B1A47
:101550004246351C82403C1CDD40DC4087402B1C51
:10156000150C3B43291C8640201C00931704904611
:10157000FEF7C6FF3F0C011C794381468B46201CB9
:10158000291CFFF701F8009C0904230C19438B4523
:101590000CD94B464144013B884500D9BDE08B4501
:1015A00000D8BAE002225242914441445C460C1BEE
:1015B000201C291C0194FEF7A3FF391C4143041C85
:1015C0008B460198291CFEF7DFFF009A09041304DB
:1015D0001B0C19438B4509D94144631E884500D92A
:1015E00097E08B4500D894E0023C41445B46CB1A1F
:1015F00049469B460B041C4300975DE7009D202352
:101600001B1A4A468240DD401543391C009AD940D6
:1016100082408846311C0092D9403A1C82400B1C03
:10162000134301932F0C2B041B0C391C40460293CF
:10163000FEF766FF029A81464243391C40469346B4
:10164000FEF7A2FF019A0904130C19438B450AD92E
:101650004B464919013B8D425DD88B455BD902232E
:101660005B42994449195A468A1A101C391C039244
:10167000FEF746FF029B80464343391C03989B4676
:10168000FEF782FF019A090413041B0C19438B45D2
:101690000AD943464919013B8D4238D88B4536D982
:1016A00002235B42984449195D464D1BAB464946AF
:1016B000009D0F04424617432A04120C3B042D0CD4
:1016C0001B0C380C111C594342436B436843D3181D
:1016D0000D0C5B198C469A4202D980225202801866
:1016E0001D0C401983450CD303D00024B0E61C1C0C
:1016F00089E665462A041B04120C9B18A6409E42EC
:10170000F3D2013F0024A3E600240127A0E6984677
:10171000CAE71C1C6AE79946A5E7994646E70222F4
:10172000524291444144E0E6F0B55F4656464D468C
:101730004446F0B40D1C85B0061C924698460290B3
:10174000019103921F1C141C8346A946002B59D1FA
:10175000AA4269D9101CFFF7EDFD00280AD020230A
:101760001B1A311CD94085400B1C2B4386408440FA
:101770009946B346250C23041B0C291C4846984661
:10178000FEF7BEFE4646071C4643291C4846FEF7A8
:10179000FBFE5A460904130C19438E4209D9091954
:1017A0007B1E8C4200D957E18E4200D854E1023FA3
:1017B0000919891B8946081C291CFEF7A1FE43460E
:1017C0004343061C291C48469846FEF7DDFE5A4650
:1017D000130409041B0C1943884508D90919731E01
:1017E0008C4200D936E1023E884500D832E1380407
:1017F00030430027391C05B03CBC90469946A246B0
:10180000AB46F0BD019A934262D8181CFFF792FDD7
:10181000041E60D1019B9F4200D22CE1029F0399DC
:101820008F4260410027E5E7002A04D10120002112
:10183000FEF766FE041C201CFFF77CFD002800D08C
:10184000B9E023042D1B1B0CA946260C9846012742
:10185000311C4846FEF754FE41464143051C8A466A
:101860004846311CFEF790FE5A460804130C1843F4
:10187000824507D900196B1E844202D8824500D9DF
:1018800010E11D1C5346C31A181C311C9A46FEF762
:1018900037FE41464143814688465046311CFEF79B
:1018A00073FE5A46130409041B0C194388450BD9CF
:1018B0004B460919013B8C4200D9CFE0884500D83E
:1018C000CCE002235B42994428044946084391E74F
:1018D000002700208EE720231B1A424657468240ED
:1018E000DF401743524682400192321CDA40291CE5
:1018F000D9408540131C2B4302933D0C3B041B0C29
:101900008846081C291C9A46FEF7FAFD53464343B5
:101910008146291C40469B46FEF736FE029A090482
:10192000130C19438B4506D94B46C919013B8F420D
:1019300000D8ABE099465A468A1A101C291C9346D7
:10194000FEF7DEFD53464343291C804658469A461F
:10195000FEF71AFE029A090415042D0C29438A4544
:1019600006D94346C919013B8F4200D886E0984604
:101970005746CF1BBA464946019F080442461043CA
:101980003D042D0C03043F0C1B0C020C291C594375
:1019900055437B437A43EB180F0CDB198C469D4271
:1019A00002D980277F02D2191D0C521992455FD3AC
:1019B00056D000271EE720231B1A311C2F1CD940AC
:1019C000DF4085400B1C84402B4386400193B34687
:1019D0002304260C1B0C381C311C9846FEF790FD86
:1019E00042464243051C311C381C9146FEF7CCFD93
:1019F000019F09043B0C1943894507D909196B1E3E
:101A00008C424DD889454BD9023D09194A468A1A5C
:101A1000101C311C9246FEF773FD43464343071CDE
:101A2000311C50469946FEF7AFFD019A0904130494
:101A30001B0C1943894507D909197B1E8C422DD8E7
:101A400089452BD9023F09194B46CB1A2D049946DB
:101A50002F43FDE61E1CCAE61F1CAAE6994633E783
:101A600061460A041B04120C9B18A6409E42A0D299
:101A700001380027BEE600270120BBE68A4500D8D2
:101A800075E702235B429844C91971E78B4500D87A
:101A900050E702235B429944C9194CE71F1CD3E766
:101AA0001D1CB3E7023D0019ECE6C04602780B7836
:101AB00001300131002A01D09A42F7D0D01A704784
:101AC00002B4714649084900095C49008E4402BCD1
:101AD0007047C0468446101C62468C46191C6346FB
:101AE00000E0C0461FB500F03DFC002801D40021F5
:101AF000C8421FBD10B500F06DFB4042013010BD63
:101B000010B500F02FFC002801DB002010BD0120E3
:101B100010BDC04610B500F025FC002801DD0020F6
:101B200010BD012010BDC04610B500F09DFB00287F
:101B300001DC002010BD012010BDC04610B500F032
:101B400093FB002801DA002010BD012010BDC04623
:101B500038B50E4B0C4A041C0D1CFFF7EFFF002894
:101B600004D1201C291C00F0AFFF38BD074B064AEA
:101B7000201C291C00F074FC00F0A6FF80231B062B
:101B8000C018F2E7C046C046000000000000E04177
:101B9000F8B55F46564644464D46F0B40C034D003A
:101BA000CE0F610A440F2143C40018038046580039
:101BB000400D8246D80F84464046400A530F0343E7
:101BC000D0006D0D371C83465246664500D1A4E017
:101BD000AF1A002F00DC09E1002A3BD1184300D0E6
:101BE000EAE0630700D187E00F232340042B00D1F4
:101BF00082E0221DA242A4416442802309191B04F1
:101C00000B40371C141C002B00D17CE0CE4B01355F
:101C10009D4200D105E1CD4BE40819404807490237
:101C200004430B0B002000211B031A0B0B0D6D0549
:101C30001B0513436A08C64DFF071D4015436D0081
:101C40006D08291C3943201C3CBC90469946A2468D
:101C5000AB46F8BDBC488542C3D080200004034396
:101C6000382F00DDF0E01F2F00DD24E12020C01B15
:101C70001A1C814682405846F84002439446584612
:101C80004A469040421E9041FB40624602431F1C60
:101C9000A21A9442A4416442C91B091B141C0B02E2
:101CA0009FD549024F0A002F00D1C8E0381CFFF72A
:101CB00041FB021C083A1F2A00DDB5E02821091A61
:101CC000201C9740C84007439440954200DDB2E095
:101CD000551B691C1F2900DDDCE01F22551B3B1C26
:101CE000221CAB40CA40AC40651EAC411343CF4000
:101CF0001C43391C002574E780231B040B40371C50
:101D0000002B00D082E7904B4807E4080443C90841
:101D10009D4248D009030B0B84E7AA1A9446002A77
:101D200000DC98E05046002852D08748854200D118
:101D300057E78020000403436246382A00DDFCE0B8
:101D40001F2A00DD4AE120226046101A1A1C824038
:101D50008246914658466246D0404A4602439046E3
:101D6000584652469040421E9041424602436046C9
:101D7000C3401219A242A441644259180919141C03
:101D8000080200D42DE7704B01359D4200D122E1BD
:101D90006E4B60081940012323401C1C0443CB07F1
:101DA0001C4349081DE7231C0B433AD080231B0327
:101DB0000B431B031B0B35E7013F002F65D1584632
:101DC000221A9442A4416442C91A091B141C66E7F2
:101DD0005846184300D104E7012252429444604619
:101DE000002800D0C5E058460219C3E7002F73D180
:101DF000681C4005400D012800DCDEE05A46A21AAE
:101E00009442BF41C81A7F42C71B380200D489E000
:101E10005A46141BA3459241591A52428F1A6646DC
:101E200041E700230024FDE6271C283887400024D2
:101E3000954200DC4CE74549AD1A3940D1E6201CFB
:101E4000FFF778FA203034E75A461A43531E9A4176
:101E5000D2B200271CE7002A00D0DCE0681C420553
:101E6000520D012A00DC8DE0374DA84200D1F3E08D
:101E70005D462A19A242A441644259180919CC07A7
:101E8000520814434908051CABE62F48854200D090
:101E9000E6E6A6E62B1C1F3B3A1CDA40131C202961
:101EA0006CD03F22551BAF403C43601E84411C4315
:101EB0000021002595E6381C20381A1CC240101C51
:101EC000202F5DD04022D71BBB405A461A43531ED9
:101ED0009A4102430027DBE6002D3BD01A4DAA456C
:101EE00000D193E080252D047F422943382F00DD67
:101EF000ACE01F2F00DD29E12025ED1B081C261C6E
:101F0000A840FE40AC400643651EAC413443F94056
:101F10005D462C1BA34592415B1A5242991A5546C5
:101F20006646BCE6131C3B43141C002B00D0BAE6EB
:101F30000027002100250024E5E65A461A43531ED7
:101F40009A41D2B2002314E7FF070000FFFF7FFF92
:101F5000FFFF0F800D1C254358D0FF43002F51D1A8
:101F6000041BA3459241591A5242891A55466646A6
:101F700095E69648854200D0DEE632E6002793E7F4
:101F80000023A2E7081C2043002D00D0C4E0002855
:101F900000D1F7E05846184300D122E6584602190E
:101FA000A242A441644259180919141C0A0200D41F
:101FB00017E6874B0125194013E6081C2043002D26
:101FC00039D1002871D15946194303D0191C5C46F8
:101FD000664606E600270021002494E66046203885
:101FE0001A1CC24060469146202800D1ACE0402235
:101FF000121A93405A461A43531E9A414B461A43AB
:102000000023B6E6714DAA4500D06FE7191C5C4667
:1020100055466646E5E5002D22D10D1C254377D0B7
:10202000D543002D71D15C445C4592415918524210
:1020300089185546A4E600284DD15946194300D1C8
:1020400094E0191C5C466646604DCAE50C43611E6F
:102050008C41E4B200215BE7051C0021002452E61C
:102060005A4DAA4554D05542802210040143382DC0
:1020700000DD81E01F2D00DD92E02022501B0A1CB4
:1020800084468240201CE8400243904662469440C9
:10209000601E844142461443E9405C445C459241E1
:1020A000CB185242991855466AE65846184300D153
:1020B00097E55846271ABC429241C81A5242801AE4
:1020C000020266D55846041BA3459241591A524252
:1020D000891A664685E55846184333D04807E40810
:1020E00004438020C9080003014208D0DD080542EE
:1020F00005D15946CA085C071443291C6646630F7C
:10210000C9001943E400314D6BE5304A9245AED128
:10211000191C5C46554664E5002836D058461843DD
:1021200010D080254807E408C9082D03044329423C
:10213000E5D0D8082842E2D15D46EA085C0714439E
:10214000011CDCE7214D4CE5002353E73D1C203DFD
:102150000A1CEA40151C202F34D04026F71BB9403A
:102160000C43611E8C412C430021D1E680210027C5
:10217000C903164D0024C6E50C43611E8C41E4B230
:1021800000218AE7191C5C462BE5191C5C460F4DA3
:1021900027E5031C3B4300D11CE7011C3C1C20E548
:1021A0002020404240190A1CC2409046202D0BD0EE
:1021B0004020451BA9400C43611E8C4145462C43E1
:1021C00000216AE70021CBE70021F4E7FF070000C8
:1021D000FFFF7FFFF0B55F4656464D464446F0B4DC
:1021E0000D1C041C8046E80F814618030F03000BEA
:1021F0003F0B83B084461B48009749005E00DF0F09
:10220000490D9246760DBB4681420CD01548864258
:1022100010D00120B14215D003B03CBC9046994685
:10222000A246AB46F0BD009F01202743F4D10D48E4
:102230008642EED1604602430120002AECD1012003
:10224000B142E9D1009B6345E6D1D045E4D1D945FF
:1022500006D00029E0D11C43201C441EA041DBE72E
:102260000020D9E7FF070000F0B55F4656464D460F
:102270004446F0B4CD0FDE0FAC461D032D0BB14626
:10228000374E0F034C00AB465D0080463F0B640D9C
:1022900092466D0DB44232D0314EB54235D0002C4D
:1022A0000ED1384341424141081C002D0BD000297A
:1022B00019D1CC452DD0654668420123184318E05A
:1022C000002DF6D1281C59460A4353425341002899
:1022D00006D1002BEDD0634658420123184308E095
:1022E0000020002B05D14A46504250414042012374
:1022F00018433CBC90469946A246AB46F0BD3E1CF6
:102300000643C9D002204042F3E75E461643C6D0DA
:10231000F8E7AC4207DC0BDA6146484248414042EC
:1023200001231843E5E76646704201231843E0E7BE
:102330005F450AD80ED000205F45DAD26546684274
:102340006841404201231843D3E7624650420123CB
:102350001843CEE7D045F8D80020D045EED3C8E7E3
:10236000FF070000F0B556464D4644465F46F0B4C0
:102370000D1C83B0041C0190E80F814618030F0365
:10238000000B3F0B84463548009749005E00DF0F85
:10239000490D9246760DB846814234D02F48864288
:1023A00036D0002918D0002E1FD1341C67463A437E
:1023B00053425341002C1FD00020002B05D1424630
:1023C0005042504140420123184303B03CBC904668
:1023D0009946A246AB46F0BD009804436042604176
:1023E000041C002EE2D00028E9D1C14515D04F468B
:1023F000784201231843E8E7002BF6D04B465842B9
:1024000001231843E1E7009F02202743DDD1C5E700
:10241000674602201743D8D1C3E7B14204DD4A46DC
:10242000504201231843D0E7B14207DB00986045D2
:10243000E4D80AD0009F00206745C6D24F467842B4
:102440007841404201231843BFE7019A5245D5D84D
:10245000019A00205245F1D3B7E7C046FF070000BC
:10246000F8B55F46564644464D46F0B40C034D0061
:10247000CF0F610A440F2143C4001803DE0F8046CA
:10248000B44646465800760A530F3343D600D14A25
:102490006D0DBA46400DB346904200D1F5E062465C
:1024A000012672409446674500D1ABE02F1A002FF9
:1024B00000DC11E100283ED15846184300D0F1E07D
:1024C000600700D197E00F232340042B00D122E1C5
:1024D000221DA242A4416442802309191B04012742
:1024E00050460B400740141C002B00D179E0B94B3B
:1024F00001359D4200D10BE1B74BE4081940480774
:10250000490204430B0B002000211B031A0B0B0D87
:102510006D051B0513436A08B04DFF071D401543A9
:102520006D006D08291C3943201C3CBC904699461F
:10253000A246AB46F8BDA7488542C1D08020000422
:102540000343382F00DDFDE01F2F00DD31E12020A7
:10255000C01B1A1C5E468240FE40324394465A46D7
:102560008240101C421E9041FB40624602431F1CE9
:10257000A21A9442A4416442C91B091B141C0A02FA
:102580009ED549024F0A002F00D1D6E0381CFEF735
:10259000D1FE021C083A1F2A00DDC3E02821231CBB
:1025A000091A9740CB401F439440954200DDC0E09C
:1025B000551B691C1F2900DDEAE01F22551B3B1C2F
:1025C000221CAB40CA40AC40651EAC411343CF4017
:1025D0001C43391C002573E780217E4D0027C90369
:1025E00000247C4B4807E4080443C9089D4250D0AE
:1025F00009030B0B87E780231B04012752460B407E
:10260000174071E72A1A9446002A00DCA1E000284E
:1026100054D07048854200D152E780200004034323
:102620006046382800DD0EE11F2800DD57E16246D4
:102630002020801A1E1C8640B1465E46D6404A467F
:1026400032435E4686409046301C421E90414246D0
:1026500002436046C3401219A242A4416442591881
:102660000919141C080200D42AE75A4B01359D426F
:1026700000D131E1584B60081940012323401C1C54
:102680000443CB071C4349081AE71E4300D00AE75E
:1026900005E7231C0B433BD080231B030B431B0389
:1026A0001B0B30E7013F002F6DD15E46A21B944209
:1026B000A4416442C91A091B141C60E75846184318
:1026C00000D1FDE601267642B4446046002800D0E1
:1026D000D0E05E463219BFE7002F00D080E0681CD2
:1026E0004005400D012800DCE8E05A46A21A944259
:1026F000BF41C81A7F42C71B3E0200D498E058462B
:10270000041BA3459241591A52428F1AE2463AE7F6
:1027100000230024F7E680231B04012756460B40C4
:102720003740E1E6271C283887400024954200DC2A
:102730003EE72949AD1A3940C2E6201CFEF7FAFDF2
:10274000203026E75A461A43531E9A41D2B2002738
:102750000EE7002A00D0DEE0681C4605760D012E4B
:1027600000DC90E01B4DA84200D1F5E05E46321936
:10277000A242A441644259180919CC0752081443D3
:102780004908051C9CE61348854200D0D9E697E627
:102790002B1C1F3B3E1CDE40331C20296FD03F22E8
:1027A000551BAF403C43601E84411C430021002563
:1027B00086E6381C20381E1CC640301C202F60D0F6
:1027C0004022D71BBB405A461A43531E9A4102432C
:1027D0000027CDE6FF070000FFFF7FFFFFFF0F8010
:1027E000002D37D0B64DA84200D18FE080252D04B2
:1027F0007F422943382F00DDA8E01F2F00DD24E1B0
:102800002025ED1B0E1CAE40B046261CFE40424665
:10281000AC401643651EAC413443F9405A46141B84
:10282000A34592415B1A5242991A051CE246A6E65C
:10283000131C3B43141C002B00D0A4E600270021EE
:1028400000250024CDE65A461A43531E9A41D2B2BF
:10285000002300E70D1C254358D0FF43002F51D122
:102860005A46141BA3459241591A5242891A051C13
:10287000E24684E69248854200D0D1E620E6002771
:1028800090E700239FE7081C2043002D00D0C2E002
:10289000002800D1EFE05846184300D110E6584612
:1028A0000219A242A441644259180919141C0A02CF
:1028B00000D405E6834B0125194001E6081C20439E
:1028C000002D38D100286FD15946194303D0191C67
:1028D0005C46E246F4E500270021002481E66046DC
:1028E00020381A1CC2406646101C202E00D1AAE0D7
:1028F0004022921B93405A461A43531E9A41024368
:102900000023A8E66E4DA84200D073E7191C5C4670
:10291000051CE246D4E5002D22D10D1C254376D0BE
:10292000D543002D70D15C445C4592415918524208
:102930008918051C96E600284CD15946194300D148
:102940004AE6191C5C46E2465D4DB9E50C43611E42
:102950008C41E4B2002161E7051C0021002440E61F
:10296000574DA84253D05542802216043143382D8A
:102970007BDC1F2D00DD8CE02022561B0A1CB44698
:10298000B240261CEE403243904662469440661E9A
:10299000B44142461443E9405C445C459241CB1843
:1029A00052429918051C5DE65846184300D187E548
:1029B0005E46A71BBC429241C81A5242801A0602C8
:1029C00060D55846041BA3459241591A5242891AB0
:1029D000E24675E55846184333D04807E4080443F7
:1029E0008020C9080003014208D0DD08054205D156
:1029F0005946CA085C071443291CE246630FC90004
:102A00001943E4002E4D5BE52D4A9042AFD1191CCD
:102A10005C46051C54E5002830D05846184310D0B9
:102A200080254807E408C9082D0304432942E5D05E
:102A3000D8082842E2D15D46EA085C071443011C2D
:102A4000DCE71F4D3CE5002355E73D1C203D0E1CF7
:102A5000EE40351C202F2ED04026F71BB9400C43EA
:102A6000611E8C412C430021D8E60C43611E8C4131
:102A7000E4B2002190E7191C5C4621E5191C5C4674
:102A80000F4D1DE5031C3B4300D124E7011C3C1CFA
:102A900016E52026764276190A1CF2409046202D33
:102AA0000BD04026751BA9400C43611E8C41454646
:102AB0002C43002170E70021D1E70021F4E7C04654
:102AC000FF070000FFFF7FFF70B50B1C124C0903CE
:102AD0000E0B5900021C490DDD0F0020A14211DD33
:102AE0000E4881420FDC8020400306430C48401A08
:102AF0001F280BDD0B4A521AD640321C5042002DC3
:102B000000D1101C70BD084BE818FBE7074BC24012
:102B1000C9188E403243F1E7FE0300001D04000097
:102B20003304000013040000FFFFFF7FEDFBFFFFF5
:102B300010B5041E28D0FEF7FDFB154A121A0A280C
:102B400015DD0B38844024035205240B520D00235D
:102B5000002000212403181C0B0D240B1B0523430C
:102B60000C4C12051C4014436400610810BD031C8A
:102B70001533211C99400B1C0B21081AC440240357
:102B80005205240B520DE3E7002200240023DFE767
:102B90001E040000FFFF0F80F0B54B000D03420F35
:102BA0005B0D6D0A15435A1C5205CC0FC600520D21
:102BB000012A27DD394FDA19FE2A1ADC002A35DD11
:102BC0008001ED00431E98412843760F30434307B0
:102BD00004D00F230340042B00D004308021C9040B
:102BE000014027D00132FF2A1DD083015B0AD1B2F8
:102BF00001E0FF2100235802C905400AE407084309
:102C00002043F0BD002B06D1354311D10021002017
:102C100043025B0AEFE72E43EBD08020ED008004F7
:102C20002843FF22D3E7FF210023E4E717320DDA20
:102C300005200022C008D1B2FF2AE9D10028D9D04E
:102C40008023DB0303435B025B0AD4E78022144941
:102C500012041543C91A1F290DDC124A371C9B1890
:102C6000281C9F4098403B1C5A1E93411843CE405D
:102C700030430022ABE70C4F2A1CFF1AFA40171C06
:102C8000202909D0094A98188540281C3043461E3F
:102C9000B041384300229AE70020F7E780FCFFFFAD
:102CA0009E03000082FCFFFF7E030000A2FCFFFFEA
:102CB00080B500AF06F082FEBD4680BD80B500AF96
:102CC00006F04AFF02F0AAFBFFF7F2FFBD4680BD07
:102CD000F0B5C7B002AFF860B9607A60FB68181C45
:102CE00007F07DFC031C802B0AD9B968E54A7B6894
:102CF000081C111C1A1C07F03BFC002300F055FEB9
:102D0000FB68181C0A2100F0D7FFFB68181C0D2176
:102D100000F0D2FFFB68181C00F0F8FF00238620AB
:102D20004000C019036033E086214900C9190B68CF
:102D3000FA68D21886246400E4192368F968C9186F
:102D40003B1CEB3309781970CF4B19683B1CEB33F4
:102D50001B785BB20133CB181B78DBB2191C032341
:102D60000B40012B05D13B1CEB331B785BB22033AE
:102D700003E03B1CEB331B785BB2DBB213708625A0
:102D80006D00ED192B68013386267600F619336045
:102D900086204000C0190368FA68D3181B78002BFE
:102DA000C2D13B1C643300221A6000225A60002208
:102DB0009A600022DA6000221A613B1C5033002224
:102DC0001A6000225A6000229A600022DA60002213
:102DD0001A613B1C443300221A6000225A60002210
:102DE0001A813B1C383300221A6000225A600022EC
:102DF0001A81FA683B1C643314210091101C191CC1
:102E00002022002301F064FEFA683B1C5033142199
:102E10000091101C191C2022012301F059FE3A1CBC
:102E200064329A4B101C191CFEF740FE031C002B49
:102E300000D07CE03A1C50323B1C44330A21009104
:102E4000101C191C2C22002301F042FE3A1C5032A7
:102E50003B1C38330A210091101C191C2C22012321
:102E600001F036FE3B1C4433E421C9190B603B1CC6
:102E70003833E022D2191360E424E4192368181CC3
:102E80000021102207F03CFC031CDC25ED192B600F
:102E9000E026F6193368181C0021102207F030FCD8
:102EA000031CD820C0190360DC21C9190B685F2BF3
:102EB00004DCDC22D2191368002B0ADAB968744AE0
:102EC0007B68081C111C1A1C07F052FB002300F041
:102ED0006CFDD824E4192368002B04DBD825ED19F8
:102EE0002B68FF2B0ADDB9686A4A7B68081C111C35
:102EF0001A1C07F03DFB002300F057FDDC26F619F5
:102F00003268D820C0190368101C191C01F080F920
:102F1000B86861497A68DC24E4192368D825ED197A
:102F20002C68009407F024FB012300F03EFD3A1CBE
:102F300064325A4B101C191CFEF7B8FD031C002B01
:102F400000D0B5E001F0C0FA3B1C50331B78002BD9
:102F500028D03B1C5033181C0021102207F0D0FB56
:102F6000031CD426F6193360D420C0190368181C3A
:102F70001821FDF769FB0B1C1A1C494B9200D35812
:102F80004849D424E41922688A181278141CB868B5
:102F90004549D425ED192A68009407F0E9FA012380
:102FA00000F003FDBB6800221A700023842676001F
:102FB000F61933600023781DFF3003605AE0791D55
:102FC000FF310B685A1C7C1DFF342368DB00013382
:102FD0007D1DFF3529680131CC00381C783033491C
:102FE000009407F0C5FABA683B1C7833101C191C12
:102FF00007F0E0FA00237E1CFF3633602EE0284BFA
:10300000781CFF3002689200D3582649842464005B
:10301000E41922688A181278141C381C7830224966
:1030200084256D00ED192A68009407F0A1FABA68AA
:103030003B1C7833101C191C07F0BCFA8426760060
:10304000F6193368013384204000C0190360791CED
:10305000FF310B6801337A1CFF3213607C1CFF3494
:103060002368172BCBDD7D1DFF352B6801337E1DBB
:10307000FF363360781DFF300368032B9FDD01238B
:1030800000F093FC30E9000064E2FF1F54E9000007
:1030900058E900007CE90000A8E90000C4E900004C
:1030A00000E2FF1F20F6FF1FC8E90000D8E900007A
:1030B0003A1C6432D74B101C191CFEF7F7FC031C9A
:1030C000002B3AD101F000FABA687B68101C191C79
:1030D00007F07DFA0023FC21C9190B601BE0CE4AE2
:1030E000FC24E4192368D3181B78391C7831CB4AA7
:1030F000081C111C1A1C07F03BFABA683B1C7833F9
:10310000101C191C07F056FAFC25ED192B68013329
:10311000FC26F6193360FC20C01903685F2BDEDD46
:10312000BB68181C07F05BFA031C013BBA68D31894
:1031300000221A70012300F038FC3A1C6432B84BAC
:10314000101C191CFEF7B2FC031C002B3ED13B1CCB
:1031500050331B78002B0AD1B968B24A7B68081C2F
:10316000111C1A1C07F004FA002300F01EFC3B1C83
:103170005033181C0021102207F0C2FA031CD02182
:10318000C9190B60D022D2191368202B04DCD0247B
:10319000E4192368002B0ADCB968A34A7B68081C81
:1031A000111C1A1C07F0E4F9002300F0FEFBD025E7
:1031B000ED192B68181C01F0A5FB031CB8689B498E
:1031C0007A6807F0D5F9012300F0EFFB3A1C64326E
:1031D000974B101C191CFEF769FC031C002B0AD02E
:1031E0003A1C6432934B101C191CFEF75FFC031C45
:1031F000002B00D0DBE03A1C50323B1C44330A2148
:103200000091101C191C2C22002301F061FC3A1CB7
:1032100050323B1C38330A210091101C191C2C22FF
:10322000012301F055FC3B1C4433181C07F06EF8D9
:10323000031CA426F61933603B1C3833181C07F016
:1032400065F8031CA020C0190360A421C9190B68EC
:10325000202B04DCA422D2191368002B09DCB968E6
:10326000754A7B68081C111C1A1C07F081F90023A1
:103270009BE3A424E4192368013B002B00DA073305
:10328000DB101A1C131C5B009B18DB009C25ED193E
:103290002B60A426F61933685A1E684B134004D5D8
:1032A000013B082252421343013305339820C019D1
:1032B00003600023F821C9190B60A022D2191368FA
:1032C000182B2AD8A024E41923689A005C4BD31841
:1032D0001B689F460023F825ED192B6027E001238A
:1032E000F826F619336022E00223F820C0190360A3
:1032F0001DE00323F821C9190B6018E00423F8220C
:10330000D219136013E00523F824E41923600EE0BA
:103310000623F825ED192B6009E0B968494A7B6856
:10332000081C111C1A1C07F023F900233DE39C26FE
:10333000F61932689820C0190368D3189C22D21954
:1033400011689824E41922688A183F498A5C702120
:103350008A43D1B23C4AD1549C25ED192A6898265B
:10336000F6193368D3189C20C01901689824E41911
:1033700022688A183449895CF825ED192A68D2B286
:103380001201D2B20A43D1B22F4AD1542F4B01229B
:103390001A70B8682E497A68A426F6193368A025F1
:1033A000ED192C68009407F0E3F80123FDE23A1CC4
:1033B0006432284B101C191CFEF778FB031C002BF1
:1033C0004ED13B1C50331B78002B09D100F076FE08
:1033D000031CB86820497A6807F0CAF80123E4E2C0
:1033E0003B1C5033181C06F091FF031CCC26F61929
:1033F0003360CC20C0190368181C00F053FEB86875
:1034000016497A68CC24E419236807F0B1F801233F
:10341000CBE2C046F4E9000020F6FF1FF8E9000007
:1034200000EA000004EA000028EA00004CEA00007C
:1034300054EA000058EA000060EA0000070000803B
:1034400054FE000084EA000084F6FF1F39E7FF1FE6
:10345000A4EA0000BCEA0000C4EA0000D0EA0000D0
:103460003A1C6432C64B101C191CFEF71FFB031CD0
:10347000002B00D098E03A1C50323B1C44330A2108
:103480000091101C191C2C22002301F021FB3A1C76
:1034900050323B1C38330A210091101C191C2C227D
:1034A000012301F015FB3B1C4433C825ED192B60AB
:1034B0003B1C3833181C06F029FF021C3B1CC73389
:1034C000511E8A411A70C826F6193268AD4B101C7D
:1034D000191CFEF7EBFA031C002B29D10123F42061
:1034E000C019036010E0F421C9190A683B1CC733F6
:1034F0001B78101C191C00F07BFAF422D2191368F7
:103500000133F424E4192360F425ED192B68202BF2
:10351000E9DD3B1CC7331B78002B01D09A4B00E040
:103520009A4BB8689A497A6807F022F801233CE27E
:10353000C826F6193368181C06F0E8FE031CC020E4
:10354000C0190360C021C9190B68202B04DCC022FC
:10355000D2191368002B09DCB9688E4A7B68081CF5
:10356000111C1A1C07F004F800231EE2C023DB190B
:103570001A683B1CC7331B78101C191C00F038FA62
:103580003B1CC7331B78002B01D07F4B00E07F4BE7
:10359000B86881497A68C025ED192C680093231C0E
:1035A00006F0E6FF012300E23A1C64327B4B101C5C
:1035B000191CFEF77BFA031C002B39D13B1C50333E
:1035C000181C06F0A3FE031CBC26F6193360BC20B1
:1035D000C0190368202B04DCBC21C9190B68002B1F
:1035E00009DCB9686E4A7B68081C111C1A1C06F0BD
:1035F000BFFF0023D9E1BC22D2191368181C00F0C8
:103600000BFB031C0C1CB025ED192B606C60B8681B
:1036100064497A68BC26F6193568B026F61933680D
:103620007468009301942B1C06F0A2FF0123BCE1F7
:103630003A1C64325C4B101C191CFEF737FA031C51
:10364000002B4CD1594BD0229A70584BD0229A76ED
:10365000564A3223D021D154544A4A23D021D1543E
:103660000023F020C019036027E00023EC21C919D2
:103670000B6016E0F023DB191A68131C5B009B1823
:10368000DB001A1CEC24E4192368D3180533474ADD
:103690000521D154EC25ED192B680133EC26F619E0
:1036A0003360EC20C0190368072BE3DDF021C91952
:1036B0000B680133F022D2191360F024E419236857
:1036C000032BD2DD3A4B01221A70B968394A7B6864
:1036D000081C111C1A1C06F04BFF012365E13A1C63
:1036E0006432354B101C191CFEF7E0F9031C002B4B
:1036F0000FD100F0A7FD00F0F1FF00F0E5FEB96882
:103700002E4A7B68081C111C1A1C06F031FF01238D
:103710004BE13A1C64322A4B101C191CFEF7C6F907
:10372000031C002B0CD100F039FB80239B05AC253A
:10373000ED192B60AC26F6193368224A1A60FEE7B1
:103740003A1C6432204B101C191CFEF7AFF9031C05
:10375000002B3DD13B1C2433181C01F0FFF93B1C0E
:103760001033181C01F00CFAB86818497A683B1C31
:1037700024333C1C1034009406F0FAFE012314E1BB
:10378000E4EA0000ECEA0000F0EA0000F4EA0000DD
:10379000F8EA000014EB000038EB000054EB0000E6
:1037A00058EB00007CEB00008CEB000084F6FF1F60
:1037B00039E7FF1F94EB0000ACEB0000B4EB000016
:1037C000C0EB00006B63694ECCEB0000D0EB000057
:1037D0003A1C6432774B101C191CFEF767F9031C66
:1037E000002B00D0C9E0B968734A7B68081C111C23
:1037F0001A1C06F0BDFEBB68181C06F0F0FE031C88
:10380000BA68D2186D4B111C1A1C2B23081C111CF2
:103810001A1C06F0DFFDBB68181C06F0E0FE031C56
:10382000BA68D218664B111C1A1C5223081C111CB2
:103830001A1C06F0CFFDBB68181C06F0D0FE031C56
:10384000BA68D2185F4B111C1A1C2A23081C111CC1
:103850001A1C06F0BFFDBB68181C06F0C0FE031C56
:10386000BA68D218584B111C1A1C2623081C111CAC
:103870001A1C06F0AFFDBB68181C06F0B0FE031C56
:10388000BA68D218514B111C1A1C2623081C111C93
:103890001A1C06F09FFDBB68181C06F0A0FE031C56
:1038A000BA68D2184A4B111C1A1C2423081C111C7C
:1038B0001A1C06F08FFDBB68181C06F090FE031C56
:1038C000BA68D218434B111C1A1C5C23081C111C2B
:1038D0001A1C06F07FFDBB68181C06F080FE031C56
:1038E000BA68D2183C4B111C1A1C2423081C111C4A
:1038F0001A1C06F06FFDBB68181C06F070FE031C56
:10390000BA68D218354B111C1A1C3123081C111C23
:103910001A1C06F05FFDBB68181C06F060FE031C55
:10392000BA68D2182E4B111C1A1C1F23081C111C1C
:103930001A1C06F04FFDBB68181C06F050FE031C55
:10394000BA68D218274B111C1A1C2523081C111CFD
:103950001A1C06F03FFDBB68181C06F040FE031C55
:10396000BA68D218204B111C1A1C1623081C111CF3
:103970001A1C06F02FFD012317E03B1C64331A7854
:103980003B1CAB331A703B1CAB331B78FF2B04D1B1
:10399000BB6800221A70002307E0B86813497A68F0
:1039A0003B1C643306F0E4FD0023181CBD4645B003
:1039B000F0BDC046F4EB0000FCEB00000CEC000096
:1039C00038EC00008CEC0000B8EC0000E0EC0000EB
:1039D00008ED00002CED000088ED0000ACED0000CB
:1039E000E0ED000000EE000028EE000040EE0000D8
:1039F00080B58AB000AF78600A1CFB1C1A707B6827
:103A0000013B002B00DA0733DB101A1C131C5B0090
:103A10009B18DB007B627B685A1E564B134004D513
:103A2000013B082252421343013305333B627A6A59
:103A30003B6AD318FB617B6A1533BB617B6A0D332C
:103A40007B617B6A0E333B617B685A1E494B134096
:103A500004D5013B08225242134301330122111CB9
:103A600099400B1CFB60444BEC22DA70424B602205
:103A7000DA76414A33236021D1543F4A4B236021F7
:103A8000D154FB1C1B78002B37D03B4AFB69D31861
:103A90001B7808229343DAB23749FB69CB181A70B6
:103AA000354AFB69D3181A7878231340DAB23249C1
:103AB000FB69CB181A70304A7B69D3181B78DAB2CD
:103AC000FB68DBB21343DBB2DAB22B497B69CB185C
:103AD0001A70294A3B69D3181B78DAB2FB68DBB24B
:103AE0001343DBB2DAB224493B69CB181A70224A7D
:103AF000BB69D31820221A7036E01F4AFB69D3181D
:103B00001B78802252421343DAB21B49FB69CB185F
:103B10001A70194AFB69D3181B7801221343DAB2D1
:103B20001549FB69CB181A70134A7B69D3181B78A7
:103B3000DBB2FA68D2B2D243D2B21340DBB2DAB20D
:103B40000D497B69CB181A700B4A3B69D3181B7857
:103B5000DBB2FA68D2B2D243D2B21340DBB2DAB2ED
:103B600005493B69CB181A70044B01221A70BD46F7
:103B70000AB080BD0700008084F6FF1F39E7FF1FF1
:103B800080B586B000AF78607B68013B002B00DA1F
:103B90000733DB101A1C131C5B009B18DB007B61D6
:103BA0007B685A1E184B134004D5013B0822524231
:103BB0001343013305333B617A693B69D318134AD8
:103BC000D35C1B09DBB21A1C07231340FB60FB68A4
:103BD000062B13D8FB689A000D4BD3181B689F4621
:103BE00001230CE002230AE0042308E0062306E098
:103BF000082304E00C2302E0182300E00023181C33
:103C0000BD4606B080BDC0460700008084F6FF1F99
:103C1000B8FE000000000000F0B585B000AF78608D
:103C20007B68181C00F06EFE031CFB607B68181C90
:103C3000FFF7A6FF031CBB60F868FDF73DFB031C04
:103C40000C1C181C211C174B154AFDF7A5F8031C6A
:103C50000C1C1D1C261CB868FDF72EFB031C0C1C3D
:103C6000114812491A1C231CFCF772FD031C0C1C82
:103C7000181C211C0E4A0F4BFCF76AFD031C0C1C80
:103C8000281C311C1A1C231CFDF786F8031C0C1C75
:103C9000181C211CBD4605B0F0BDC046C046C0463C
:103CA0000000000000408F400000000000002240A3
:103CB000000000000000704180B584B000AF786063
:103CC0000A1CFB1C1A707B68FB607B68BB6012E0FF
:103CD000FB685A1CFA601A78BB681A70BB681B78BC
:103CE000FA1C127852B25BB2D31A5A1E9341DBB25D
:103CF000BA68D318BB60FB681B78002BE8D1BB689F
:103D000000221A70BD4604B080BDC04680B584B0A4
:103D100000AF78600023FB600023BB601CE0FB6801
:103D20007A68D3181B785BB2082B09D1BB68002BCB
:103D300002D0BB68013BBB60FB680133FB600BE05A
:103D4000BB685A1CBA607A68D218FB68591CF960C3
:103D50007968CB181B781370FB687A68D3181B78C6
:103D6000002BDCD1BB687A68D31800221A70BD46DC
:103D700004B080BD80B500AF064B0020191C802226
:103D800003F0E4FF044B0120191C802204F0DCFB4B
:103D9000BD4680BD28E3FF1FA8E3FF1F80B500AF2D
:103DA000002004F023FB012004F020FBBD4680BD71
:103DB00080B584B000AF3B1D0020191C04F00AF848
:103DC0007B68002B06D1294B0020191C802203F0B0
:103DD000BDFF48E07B688022D31ABB600023FB60F4
:103DE0003DE0224AFB68D3181B780D2B34D1FB68C9
:103DF0001F491E4A081C111C1A1C06F0EBFA002071
:103E000004F01CF8194B0020191C802203F09EFFBF
:103E1000FB680133164A0021D1541549154A164B47
:103E2000081C111C1A1CFEF753FF124B181C06F03D
:103E3000D6FB031C1A1C0F4BD218104B111C1A1C5A
:103E40000323081C111C1A1C06F0C4FA094B181C89
:103E5000002100F03DF906E0FB680133FB60FA68E1
:103E6000BB689A42BDDBBD4604B080BD28E3FF1F9E
:103E700028E4FF1FDCE7FF1F60EE000068EE000093
:103E800080B584B000AF0023FB603B1D0120191CEE
:103E900004F09EFB7B68002B09D1394B0120191CD3
:103EA000802204F051FB374B00221A6064E07B68EB
:103EB0005A42344B1B68D31A8033BB60314B1B68AA
:103EC000FB604FE0C046FA682F4BD3180120191C45
:103ED000012204F0F5FA031C002BF4D12A4AFB68F6
:103EE000D3181B780D2B3AD1264B1A68FB68D318D0
:103EF0002649254A081C111C1A1C06F06BFA0120E1
:103F000004F09EFB204B0120191C802204F01CFBB6
:103F1000FB6801331D4A0021D1541C491C4A1D4B2A
:103F2000081C111C1A1CFEF7D3FE194B181C06F0B6
:103F300056FB031C1A1C164BD218174B111C1A1CCB
:103F40000623081C111C1A1C06F044FA104B181CFE
:103F5000012100F0BDF80B4B00221A600CE0FB6859
:103F60000133FB60074B1A68BB68D218FB689A42A2
:103F7000A8DC044BFA681A60BD4604B080BDC04698
:103F800028E3FF1FA8E4FF1FA8E3FF1FACE4FF1F07
:103F9000DCE7FF1F60EE00006CEE000080B500AFB4
:103FA000134B1A68134B1B689A421AD0104B1968AE
:103FB000114B1B68581C104A1060104A081C191C31
:103FC00000F01EF80D4B181C002100F081F8084B82
:103FD0001B680133064A1360642B02D1044B002294
:103FE0001A60FFF7E5FEFFF74BFFBD4680BDC046F8
:103FF00034E7FF1F30E7FF1F2CE5FF1F30E5FF1FF1
:1040000080B59EB000AFF860B9607A607968204AE8
:10401000BB68081C111C1A1C06F0AAFA00237B6757
:1040200018E01C4BFA6851017A6F8A189200D35835
:10403000391C1031184A081C111C1A1C06F098FA79
:104040007A683B1C1033101C191C06F0B3FA7B6F06
:1040500001337B677B6F1F2BE3DD104B1B68391C23
:1040600010310F4A081C111C1A1C06F081FA0B4B68
:104070001B68002B02D0094B00221A607A683B1C97
:104080001033101C191C06F095FABD461EB080BDF9
:1040900074EE0000E4F6FF1F80EE000024E3FF1F33
:1040A00088EE000080B582B000AF7860024B7A687D
:1040B0001A60BD4602B080BD24E3FF1F80B500AF8B
:1040C000024B1B68181CBD4680BDC04624E3FF1F81
:1040D00080B582B000AF786039603B68002B02D0B9
:1040E000012B10D01FE0C0467B68181C06F077FA41
:1040F000031C7A680020111C1A1C03F0E3FD031C4A
:10410000002BF1D10FE0C0467B68181C06F067FA5F
:10411000031C7A680120111C1A1C04F0D1F9031C3D
:10412000002BF1D1C046BD4602B080BD80B500AFC6
:10413000BD4680BD80B582B000AF78600A1CFB1C14
:104140001A70FB1C1B780D20191C04F0FBFEBD46E9
:1041500002B080BD80B582B000AF78600D2004F061
:1041600047FF031C5A1E9341DBB2181CBD4602B028
:1041700080BDC04680B500AF0C4B1B68002B00D043
:1041800011E00A4B64221A600120FFF7E3FF031CD1
:10419000002B04D001200021FFF7CCFF03E0012019
:1041A0000121FFF7C7FFBD4680BDC046DCEFFF1F02
:1041B00080B582B000AF78607A680123134005D0E3
:1041C000C0239B00181C04F0DBFE04E0C0239B000E
:1041D000181C04F0F1FE7A680223134004D00B4B44
:1041E000181C04F0CDFE03E0084B181C04F0E4FE9C
:1041F0007A680423134003D0052004F0C1FE02E0D6
:10420000052004F0D9FEBD4602B080BD01030000C8
:1042100080B582B000AF786039603B68DAB205499A
:104220007B68CB181A70044B01221A70BD4602B08D
:1042300080BDC04684F6FF1F39E7FF1F80B500AF81
:10424000BD4680BD80B500AFFA235B00181C00F0AE
:1042500029FC122004F0B0FE0C2004F0ADFE8923EE
:104260005B00181C04F0A8FEFA235B00181C00F089
:1042700019FC122004F084FE0C2004F081FEFA23C5
:104280005B00181C00F00EFC122004F095FEFA23CF
:104290005B00181C00F006FC122004F071FEFA23EB
:1042A0005B00181C00F0FEFB00F0F4F90120B621C1
:1042B000012200F081F9FA235B00181C00F0F2FBE8
:1042C00000F0E8F90E2000F0F7F9FA235B00181C63
:1042D00000F0E8FB00F0DEF9012096210E2200F04C
:1042E0006BF90220D0210F2200F066F90320EC21A7
:1042F0000F2200F061F9BD4680BDC04680B500AF19
:10430000074B1B78DBB2002B08D0064B1B78002B29
:1043100004D000F0F5F9024B00221A70BD4680BDB2
:1043200038E7FF1F3BE7FF1F90B585B000AF0023C4
:10433000FB60B9E00023BB60AFE0FA68131C5B00D0
:104340009B18DB001A1CBB68D3187B60BB68002B72
:104350000BD15A4A7B68D3181B7801221343DAB277
:1043600056497B68CB181A7071E0BB68012B0ED1DF
:10437000FB68002B05D1514A7B68D318F6221A70CE
:1043800065E04E4A7B68D318D6221A705FE0BB689E
:10439000022B17D1494A7B68D3181B78402252421E
:1043A0001343DAB245497B68CB181A70434A7B68DD
:1043B000D3181B7824229343DAB240497B68CB1888
:1043C0001A7044E0BB68032B0CD13C4A7B68D318BD
:1043D0001B78202252421343DAB238497B68CB184B
:1043E0001A7034E0BB68042B0BD1344A7B68D318B5
:1043F0001B7810229343DAB230497B68CB181A70CD
:1044000025E0BB68152B0BD12C4A7B68D3181A7892
:1044100020231340DAB229497B68CB181A7016E0C2
:10442000BB68162B05D1254A7B68D31800221A7069
:104430000DE0BB68172B0AD1204A7B68D3181A7885
:104440000A231340DAB21D497B68CB181A701C4A44
:104450007B68D3181A7819497B68CB181B789A4265
:1044600018D0BB68D9B2154A7B68D3181A780120D6
:10447000FB68041C9C40231CDBB2081C111C1A1C8A
:1044800000F09AF80D4A7B68D3181A780C497B68BB
:10449000CB181A70BB680133BB60BB68172B00DCFC
:1044A0004BE7FB680133FB60FB68032B00DC41E753
:1044B000044B00221A70BD4605B090BD84F6FF1F64
:1044C00020F6FF1F39E7FF1F80B584B000AF00233F
:1044D000FB6037E00122FB68111C99400B1CDBB22A
:1044E000181C00F08DF8202000F036F8172000F09E
:1044F00033F80023BB601CE0FA68131C5B009B18B8
:10450000DB001A1CBB68D3187B60002000F024F885
:10451000031C1A1C0E497B68CB181A700C4A7B6866
:10452000D3181A780B497B68CB181A70BB68013313
:10453000BB60BB68172BDFDD002000F061F8FB6873
:104540000133FB60FB68032BC4DDBD4604B080BDB6
:1045500020F6FF1F84F6FF1F80B584B000AF021C59
:10456000FB1D1A70C046134B1B78DBB21A1C2023AC
:104570001340F8D004E00F4A3B1C0F3392791A70B5
:104580000C4B1B78DBB2DBB25BB2002BF3DB094BCD
:10459000FA1D12789A71C046064B1B78DBB2DBB26B
:1045A0005BB2002BF8DA034B9B79DBB2181CBD46DB
:1045B00004B080BD0060074080B582B000AFFB1D35
:1045C0001870BB1D19707B1D1A707B1D1B78181C81
:1045D00000F016F8FB1D1B784033DBB2181CFFF708
:1045E000BBFF0020FFF7B8FFBB1D1B78181CFFF7AF
:1045F000B3FF002000F004F8BD4602B080BDC04605
:1046000080B582B000AF021CFB1D1A70FB1D1B7829
:10461000002B14D11423FF33181C04F0B1FC122317
:10462000FF33181C04F0ACFC0423FF33181C04F007
:10463000A7FC0223FF33181C04F0A2FC27E0FB1D9B
:104640001A780123134004D01423FF33181C04F0FC
:10465000B3FCFB1D1A780223134004D01223FF334E
:10466000181C04F0A9FCFB1D1A780423134004D085
:104670000423FF33181C04F09FFCFB1D1A78082349
:10468000134004D00223FF33181C04F095FCBD46F0
:1046900002B080BD80B500AF0F20FFF7B1FF112041
:1046A000FFF75AFF0020FFF7ABFF024B01221A7001
:1046B000BD4680BD3AE7FF1F80B582B000AF78608D
:1046C0007B68DBB2181CFFF79BFF0620FFF744FF57
:1046D0000020FFF795FFBD4602B080BD80B500AF5A
:1046E0000F20FFF78DFF0820FFF736FF0020FFF7B0
:1046F00087FF024B01221A70BD4680BD3BE7FF1FBA
:1047000090B585B000AF0023FB600023BB60784B01
:104710001B78002B02D0FFF707FECDE0CCE0FB6852
:10472000012B0CD002DC002B05D014E0022B0AD0A8
:10473000032B0CD00FE00120FFF762FF0BE00220FB
:10474000FFF75EFF07E00420FFF75AFF03E00820B1
:10475000FFF756FFC0461220FFF7FEFE0020FFF7CE
:10476000FBFE031C1B047B60624B1A68624B9100CA
:10477000FA688A1892007968D1500020FFF7ECFEA1
:10478000031C1B027B605B4B1B685B4A9800F9684B
:104790004118890089587A688918574A9800FB6837
:1047A000C3189B0099500020FFF7D6FE031C7B60C6
:1047B000504B1B68504A9800F96841188900895885
:1047C0007A6889184C4A9800FB68C3189B00995076
:1047D0000023BB6067E00020FFF7BEFE031C1B0642
:1047E0007B60444B1868FB68DA00BB68D2187968B4
:1047F000424B400182189200D1500020FFF7ACFEDE
:10480000031C1B047B603B4B1B68FA68D100BA6831
:104810008818FA68D100BA688918384A5C016118AA
:1048200089008A58111C7A688A18111C334A5B0166
:104830001B189B0099500020FFF78EFE031C1B02E3
:104840007B602C4B1B68FA68D100BA688818FA683C
:10485000D100BA688918294A5C01611889008A5810
:10486000111C7A688A18111C244A5B011B189B00D2
:104870009950204B1868FB68DA00BB68D2181D4BB2
:104880001C68FB68D900BB68C9181C4B640161181F
:104890008900CB581912194B400182189200D1504F
:1048A000BB680133BB60BB68072B94DD0020FFF7BA
:1048B000A7FEFB680133FB60FB68032B00DC2EE7DF
:1048C0000C4B1B685A1C0B4B1A600A4B1A680C4B9A
:1048D0001B689A4202D10A4B00221A60054B1B68E2
:1048E000642B02D1034B00221A60BD4605B090BD77
:1048F00039E7FF1F30E7FF1FE0EFFF1FE4F6FF1F60
:1049000034E7FF1F80B584B000AF78600B4B1B68A5
:10491000FB60FB68013BFB60FB68002B01DA642352
:10492000FB607B685A1E064BF96849018A189200A1
:10493000D358181CBD4604B080BDC04630E7FF1FE9
:10494000E4F6FF1F80B582B000AF78607A68A023DC
:1049500001214942D150BD4602B080BD80B582B030
:1049600000AF786039603B68012B06D909489C2369
:104970005900094A094B05F0ABFC79683A68842371
:104980005B0012018A18D31801225A60BD4602B09A
:1049900080BDC04668EF0000D4FE0000D8EF0000E4
:1049A00080B500AF002002F045FABD4680BDC0468C
:1049B00080B500AF184B1B68181C0021FFF7CEFF15
:1049C000164B1B88002B05D0144B1B88013B9AB259
:1049D000124B1A80124B1B88002B05D0104B1B88E2
:1049E000013B9AB20E4B1A800E4B1B88002B05D050
:1049F0000C4B1B88013B9AB20A4B1A800A4B1B884E
:104A00009BB2002B06D0084B1B889BB2013B9AB28D
:104A1000054B1A80BD4680BD3C010100DCEFFF1F45
:104A2000E428002080F6FF1FD8E7FF1F80B500AF05
:104A3000024B181CFFF786FFBD4680BD00C0044036
:104A400080B500AF044B181CFFF77CFF034B01221D
:104A50001A70BD4680BDC0460090044038E7FF1F75
:104A600080B500AFFEF72AF9FFF784F90C4B181C4C
:104A70000121FFF72DFBFFF759FBFFF7DFFBFFF7E6
:104A8000E1FBFFF72BFEFFF71FFD0220FFF790FB76
:104A9000FFF770FBFFF732FCFFF780FAF8E7C0463C
:104AA00000F0000080B582B000AF021CBB1D1A8070
:104AB000BB1D1B88DAB2054B1A70C046034B1B782E
:104AC000DBB2002BFAD1BD4602B080BDE428002045
:104AD00080B588B000AFF860B9603B60FB1D1A700C
:104AE0000023FB610023BB6100237B612AE07B691B
:104AF000FA68D3181B78FA1D127852B25BB29A4248
:104B000003D1FB690133FB6119E0FA693B689A4202
:104B100015D1BB695A1CBA61BA68D3187A69F968A9
:104B20008A1812781A70BB69BA68D31800221A70F2
:104B30003B1C28331A78BB699A4200D108E07B6994
:104B400001337B617B69FA68D3181B78002BCED1C7
:104B5000FB69181CBD4608B080BDC04690B585B045
:104B600002AF78600122052300247868034900948D
:104B700005F0FEFCBD4603B090BDC04620F000002D
:104B800090B585B000AF7860214B181C04F030FA66
:104B9000031CDC001F4B181C04F02AFA031C9B00AA
:104BA000E4181D4B181C04F023FA031C5B00E418E6
:104BB00080239B00181C04F01BFA031CE318FB6005
:104BC000FB680E2B0CD00F2B15D17A68134B111CE0
:104BD0001A1C0423081C111C1A1C05F0FBFB14E012
:104BE0007A680F4B111C1A1C0423081C111C1A1C78
:104BF00005F0F0FB09E07A680A4B111C1A1C082327
:104C0000081C111C1A1C05F0E5FBBD4605B090BD43
:104C10000302000002020000010200002CF000006C
:104C200030F0000034F0000090B585B000AFF860BF
:104C3000B9607A60BB68002B02D101235B421AE0A5
:104C4000FB68012B05D0FB68022B02D001235B42DD
:104C500011E00B4B1B78002B02D101235B420AE0D1
:104C6000074B9C68064B59687B68BA68081C111C86
:104C70001A1CA0477B68181CBD4605B090BDC046F5
:104C80003CE7FF1F90B585B000AFF860B9607A606F
:104C9000FB68002B02D001235B4211E00A4B1B781A
:104CA000002B02D101235B420AE0074BDC68064B74
:104CB00059687B68BA68081C111C1A1CA0477B68DD
:104CC000181CBD4605B090BD3CE7FF1F80B584B001
:104CD00000AF7860114B1B68002B02D10F4B104ABC
:104CE0001A600E4B1B68FB600C4B1A687B68D2186D
:104CF0000C4B9A4207D905F00FFB031C0C221A60DB
:104D000001235B4206E0054B1A687B68D218034B0F
:104D10001A60FB68181CBD4604B080BD4CE7FF1F3D
:104D2000C8290020C839002080B584B000AF021C1B
:104D30003960FB1D1A70FB1D1B785BB21A1C0E320A
:104D400006DA1549154A164B081C462105F0C0FA2B
:104D5000FB1D1B785BB21F2B06DD0F490F4A114B61
:104D6000081C472105F0B4FAFB1D1B785BB21A1C26
:104D700010320D4B9200D358FB60FB1D1B785BB2C9
:104D80001A1C10323968084B9200D150FB68181C6D
:104D9000BD4604B080BDC0463CF00000ECFE000003
:104DA0007CF00000A8F0000000E0FF1F80B500AF1D
:104DB000084B1B68002B0AD0064B1B685A1E054B7C
:104DC0001A60044B1B68002B00D000E062B6BD46A1
:104DD00080BDC04650E7FF1F80B500AF72B6034BE1
:104DE0001B685A1C014B1A60BD4680BD50E7FF1F6F
:104DF00080B582B000AF78600A1CFB1C1A707B681B
:104E00000F481A18FB1C1B785B09DBB20D495B18B5
:104E10009B00D3181A1CFB1C19781F230B40DB05C1
:104E20001343802252051343FA1C11781F220A40B3
:104E30000121081C9040021C1A60BD4602B080BDD2
:104E400034100000FDFFFF3F80B582B000AF7860F6
:104E50000A1CFB1C1A707B680C495A18FB1C1B7837
:104E60005B09DBB20A495B189B00D3181A1CFB1CB8
:104E700019781F230B40DB0513438022520513438F
:104E800000221A60BD4602B080BDC046341000004A
:104E9000FDFFFF3F80B582B000AF78600A1CFB1CAD
:104EA0001A707B680D495A18FB1C1B785B09DBB232
:104EB0000B495B189B00D3181A1CFB1C19781F2385
:104EC0000B40DB0513438022520513431B685A1E17
:104ED0009341DBB2181CBD4602B080BD3410000007
:104EE000FDFFFF3F80B582B000AF78607B68054A68
:104EF0009B18054A13431B68DBB2181CBD4602B061
:104F000080BDC046441000000000181E80B582B06D
:104F100000AF78607B68054A9B18054A13431B68FD
:104F2000DBB2181CBD4602B080BDC0464410000074
:104F30000000101880B582B000AF78607B689C22BA
:104F4000520513431B78DBB25A1E9341DBB2181C87
:104F5000BD4602B080BDC04698B500AF094B181CD5
:104F600000F01AFD041C084B181CFFF7BBFF031CC4
:104F70000133201C191CFBF7C3FA031C181CBD4687
:104F800098BDC046004006400070044098B500AF90
:104F9000094B181C00F000FD041C084B181CFFF7FF
:104FA000A1FF031C0133201C191CFBF7A9FA031CE9
:104FB000181CBD4698BDC046004006400070044025
:104FC00098B500AFFFF7E2FF041C074B181CFFF772
:104FD0009DFF031C0133201C191CFBF791FA031CD5
:104FE000181CBD4698BDC0460070044080B500AF97
:104FF000074B1B68181CFFF79DFF031C002B02D0FA
:10500000044B1B6800E00023181CBD4680BDC04651
:10501000BCFF0000E828002090B585B000AF7860A4
:105020003C1C0B34134A7B68101C191C00F0E6FB77
:10503000031C23703B1C0B331B78022B06D0032B65
:1050400009D0012B0ED10C4BFB600EE0FFF7CEFF19
:10505000031CFB6009E0094B181C00F06FFC031CEB
:10506000FB6002E00023FB60C046FB68181CBD46E5
:1050700005B090BD00700440006CDC0200400640AA
:1050800080B582B000AF78607B68012B05D90A48F3
:105090000A490B4A0B4B05F01BF97B68002B03D127
:1050A000FFF78EFF031C02E0FFF770FF031C181CC4
:1050B000BD4602B080BDC046D4F000001102000021
:1050C00014FF000024F1000080B582B000AF7860CA
:1050D0007B68042B06D909488C239900084A094BA0
:1050E00005F0F6F8084A7B68D3181B78074A101CAD
:1050F000191CFFF77DFEBD4602B080BDD4F0000054
:105100002CFF000044F1000004FF00000070044088
:1051100080B582B000AF78607B68012B05D9094863
:1051200009490A4A0A4B05F0D3F80A4A7B68D318A2
:105130001B78094A101C191CFFF75AFEBD4602B025
:1051400080BDC046D4F000009102000048FF00007E
:10515000B8F100000CFF00000070044080B582B080
:1051600000AF78607B68012B05D9094809490A4AD4
:105170000A4B05F0ADF80A4A7B68D3181B78094A38
:10518000101C191CFFF734FEBD4602B080BDC0469E
:10519000D4F00000F302000064FF000028F20000D9
:1051A00010FF00000070044080B582B000AF78604E
:1051B0007B68012B05D9094809490A4A0A4B05F0C1
:1051C00087F80A4A7B68D3181B78094A101C191CF7
:1051D000FFF73AFEBD4602B080BDC046D4F00000E5
:1051E0000103000080FF000028F2000010FF000013
:1051F0000070044080B582B000AF78607B68012BFE
:1052000005D90A480A490B4A0B4B05F061F80B4ACD
:105210007B68D3181B780A4A101C191CFFF73AFE4A
:10522000031C181CBD4602B080BDC046D4F000006F
:105230000F030000A0FF000028F2000010FF000094
:105240000070044080B500AF074B1A680423134078
:1052500004D1FFF781FE031C1B0902E0FFF77CFE6F
:10526000031C181CBD4680BD10E000E080B582B074
:1052700000AF78600A1CFB1C1A707B68002B06D1FB
:105280000C490D4A0D4B081C762105F021F87B686E
:10529000FA1C12785A707B6800221A707B68002210
:1052A0005A607B6800229A600023181CBD4602B039
:1052B00080BDC046A0F20000C0FF0000D0F2000098
:1052C00080B582B000AF78607B68002B06D10F49B3
:1052D0000F4A104B081CCE2104F0FAFF7B685B7864
:1052E000DBB2FF2B01D101230BE0FFF775FD7B68DB
:1052F0005B78DBB20133DAB27B685A70FFF756FD98
:105300000023181CBD4602B080BDC046A0F20000BC
:10531000D0FF0000D0F2000080B582B000AF78600E
:105320007B68002B06D10649064A074B081CE5217D
:1053300004F0CEFF0023181CBD4602B080BDC0465D
:10534000A0F20000E0FF0000D0F2000080B582B0C3
:1053500000AF786039607B68002B07D10B48DE23F3
:10536000191CFF310A4A0B4B04F0B2FFFFF734FD62
:105370007B68DA683B681A437B68DA60FFF716FDE2
:105380000023181CBD4602B080BDC046A0F200003C
:10539000F0FF0000E0F2000080B582B000AF04230F
:1053A0007B60124A7B681B01D318083300221A6005
:1053B0000AE07B6801331A010C4BD2180B497B6859
:1053C0001B01CB1808331A607B685A1E7A60002BC9
:1053D000EFD1074B054A1A60064B064A9A60054B07
:1053E000044ADA60BD4602B080BDC04654E7FF1FE4
:1053F000A4E7FF1FA8E7FF1F80B582B000AF786069
:1054000039607B68DBB25AB23B68101C191CFFF78D
:105410008BFC031C181CBD4602B080BD80B500AFDC
:10542000FFF7BAFF04F074FC0023181CBD4680BDD2
:1054300080B582B000AF78607B680422DA707B6848
:1054400000229A707B6800225A707B6800225A7191
:105450007B6800221A71BD4602B080BD80B58EB057
:1054600000AFF860B9607A60BB68BB6101235B4242
:10547000FB6107233B630823BB623B6B0133BA6AC2
:1054800053439B017868191CFBF73AF8031C3B62F5
:1054900000237B6331E002237B620023FB6223E075
:1054A0007B6B01337A6A53437868191CFBF728F841
:1054B000031C7B61BA697B699A420FD3BA697B6925
:1054C000D31A3B61FA693B699A4207D93B69FB6190
:1054D0007B6B3B63FB6ABB627B693B627B6A5B0005
:1054E0007B62FB6A0133FB62FB6A082B02D8FB6913
:1054F000002BD5D17B6B01337B637B6B072B02D8F1
:10550000FB69002BC7D1BB6ADAB20F231340DAB2B2
:105510003B6BDBB21B01D9B270230B40DBB21343F0
:10552000DAB2FB685A703B6A181CBD460EB080BDEB
:1055300080B582B000AF78600A1CFB1C1A707B68D3
:1055400003338422520513431A1CFB1C19780123D0
:105550000B40DBB2DB18DBB213707B6802339022A6
:1055600052051343FA1C117802220A405208D2B2A3
:105570001201D2B21A70BD4602B080BD80B582B0B1
:1055800000AF7860081C111C1A1CFB1C1870BB1C97
:1055900019707B1C1A707B6803338C2252051343ED
:1055A000FA1C1278D200D2B21A707B6803338822B8
:1055B00052051343BA1C12789200D2B21A707B685B
:1055C00003338022520513437A1C12781A70BD46A9
:1055D00002B080BD80B582B000AF78600A1CFB1CB1
:1055E0001A707B680233802252051343FA1C11782B
:1055F00001220A40D2B21A707B6802338C22520513
:105600001343FA1C117802220A405208D2B2D20087
:10561000D2B21A70BD4602B080BDC04680B582B01D
:1056200000AF7860FB1C1970BB1C1A70FB1C1B7848
:10563000032B0AD17B6802339C2252051343BA1C08
:105640001278D201D2B21A7018E0FB1C1B78012B21
:105650000AD17B6803339C2252051343BA1C12788B
:10566000D201D2B21A7009E07B680333942252054A
:105670001343BA1C12785201D2B21A70BD4602B05E
:1056800080BDC04680B582B000AF7860081C111C98
:105690001A1CFB1C1870BB1C19707B1C1A707B68D1
:1056A0000B33802252051343FA1C12781A707B6860
:1056B0000B33942252051343BA1C12785201D2B212
:1056C0001A707B680B339022520513437A1C1278B0
:1056D0001201D2B21A70BD4602B080BD80B582B050
:1056E00000AF7860FB1C1970BB1C1A70FB1C1B7888
:1056F000012B0BD17B680B338422520513431A1CF8
:10570000BB1C1B78DB18DBB2137009E07B680B3322
:10571000882252051343BA1C12789200D2B21A7032
:10572000BD4602B080BDC04680B582B000AF786093
:105730000A1CFB1C1A707B68DB7ADBB21A1C08237C
:105740001340DB0817D17B680B338C2252051343BF
:1057500008221A70FB1C1B780122111C99400B1C9B
:10576000DAB27B689A727B680B338C225205134342
:1057700000221A7008E0FB1C1B780122111C9940C2
:105780000B1CDAB27B689A72BD4602B080BDC0467F
:1057900080B584B000AFF860B960FB1D1A70BB68BB
:1057A000012B06D90F49104A104B081C602104F048
:1057B0008FFDBB68002B09D1FB680D4A9B180D4A71
:1057C0001343FA1D127892061A6008E0FB68084A33
:1057D0009B18094A1343FA1D127812071A60BD4636
:1057E00004B080BD04F300000000010040F300009D
:1057F000041000000000081D0000081E80B582B0E3
:1058000000AF786039603B68012B06D90E490F4A1A
:105810000F4B081C762104F05BFD3B68002B07D181
:105820007B680C4A9B180C4A13431B68DBB206E0EA
:105830007B68084A9B18094A13431B68DBB2181C93
:10584000BD4602B080BDC04604F300001800010050
:1058500040F30000041000000000081D0000081EB6
:1058600080B584B000AFF860B960FB1D1A70BB68EA
:10587000012B06D91049114A114B081CBD2104F017
:1058800027FDBB68002B0AD1FB680E4A9B188822B3
:1058900052051343FA1D127892001A6009E0FB6862
:1058A000084A9B18982252051343FA1D1278920158
:1058B0001A60BD4604B080BD04F300003000010052
:1058C00040F300001010000080B582B000AF786097
:1058D0007B680633034A13431B78DBB2181CBD46B2
:1058E00002B080BD0000081180B582B000AF7860C2
:1058F0007B688422520513431B78DBB2002B06D150
:105900007B68181CFFF7E0FF031C012B0CD17B68A0
:1059100001338022520513431B78DBB2012B01D1E6
:10592000044B02E0044B00E00023181CBD4602B00B
:1059300080BDC04600127A0080841E0080B584B00D
:1059400000AF78607B680833114A13431A1C3B1C74
:105950000F3312781A707B6818330E4A13431A1CDF
:105960003B1C0E3312781A707B68181CFFF7BCFFC3
:10597000021C3B1C0F3319783B1C0E331B78CB18D1
:10598000111CD9400B1C181CBD4604B080BDC0467C
:10599000000090100000101090B585B000AF786046
:1059A0003C1C0F347B68181CFFF78EFF031C237010
:1059B0003B1C0F331B78002B01D1114B1CE03B1C0F
:1059C0000F331B78012B0ED17B68181CFFF78CFF5F
:1059D000021C7B6808330B490B431B78DBB2111C9C
:1059E000D9400B1C08E03B1C0F331B78022B02D163
:1059F000054B1B6800E00023181CBD4605B090BD98
:105A0000006CDC0200009010E828002080B582B015
:105A100000AF78607B680B4A1A607B680A4A5A605C
:105A20007B6800229A60C0467B680833CC2252050E
:105A300013431B68002BF7D17B6800221A61BD4617
:105A400002B080BD0400000F00C01FC080B58AB046
:105A500000AFF860B9607A600423FB617B68FA6983
:105A60005343B868191CFAF74BFD031C1A1C3B1C66
:105A700026331A803B1C26331B88002B03D13B1C8A
:105A8000263301221A803B1C26331B88FA695343B4
:105A9000B868191CFAF734FD031C3B613A697B684E
:105AA0009A4204D93A697B68D31A7B6103E07A6829
:105AB0003B69D31A7B613B1C223305221A8047E0E5
:105AC0003B1C22331B887A685343B868191CFAF7C9
:105AD00017FD031C1A1C3B1C24331A803B1C243367
:105AE0001B88002B03D13B1C243301221A803B1C52
:105AF00022331B883A1C243212885343B868191C7D
:105B0000FAF7FEFC031C3B613A697B689A4204D9B0
:105B10003A697B68D31ABB6103E07A683B69D31AA0
:105B2000BB61BA697B699A420BD8BB697B613B1C3C
:105B300022331B88FB613B1C26333A1C243212881B
:105B40001A803B1C22331A883B1C223301321A80F4
:105B50003B1C22331B88202BB2D97B68181C642184
:105B6000FAF7CEFC031C1A1C131C5B009A187B6905
:105B70009A421ED9FB69032B09D9FB69072B06D86A
:105B8000FB68C42252051343802292021A60FB680C
:105B9000E12252051343FA69013A12061A60FB68C2
:105BA0008322520513433A1C263212881A600023BE
:105BB00000E00223181CBD460AB080BD80B582B04B
:105BC00000AF78600A1CFB1C1A70FB1C1B78022BB0
:105BD00007D17B68F42252051343802292051A6094
:105BE0000EE07B680833902252051343FA1C1278AA
:105BF00012011A607B68F4225205134300221A60D6
:105C0000BD4602B080BDC04680B582B000AF7860AE
:105C10000A1CFB1C1A707B6808338422520513434C
:105C2000FA1C12785208D2B252001A607B6808330C
:105C3000802252051343FA1C117801220A401A608F
:105C4000BD4602B080BDC04680B586B000AFF860EA
:105C5000B960FB1D1A70BB681B0C7B61BB6801221D
:105C6000111C99400B1C3B617B69042B00D96CE033
:105C70007B699A00374BD3181B689F46FB1D1B7826
:105C8000002B06D0FB688022120513433A691A6084
:105C90005CE0FB688022D20413433A69D2431A6065
:105CA00054E0FB1D1B78002B07D0FB6804338022D7
:105CB000120513433A691A6048E0FB6804338022F6
:105CC000D20413433A69D2431A603FE0FB1D1B78AC
:105CD000002B07D0FB6808338022120513433A6972
:105CE0001A6033E0FB6808338022D20413433A6918
:105CF000D2431A602AE0FB1D1B78002B07D0FB68FB
:105D00000C338022120513433A691A601EE0FB68C7
:105D10000C338022D20413433A69D2431A6015E04F
:105D2000FB1D1B78002B07D0FB6810338022120567
:105D300013433A691A6009E0FB6810338022D204E9
:105D400013433A69D2431A6000E0C046BD4606B02C
:105D500080BDC0464C00010080B584B000AF7860C3
:105D600039603B681B0CBB603B1C0F3300221A7070
:105D7000BB68042B41D8BB689A00244BD3181B681E
:105D80009F467B681A683B68DA4001231A403B1C37
:105D90000F33511E8A411A7030E07B685A683B68A5
:105DA000DA4001231A403B1C0F33511E8A411A70FE
:105DB00024E07B689A683B68DA4001231A403B1C68
:105DC0000F33511E8A411A7018E07B68DA683B680D
:105DD000DA4001231A403B1C0F33511E8A411A70CE
:105DE0000CE07B681A693B68DA4001231A403B1CCF
:105DF0000F33511E8A411A7000E0C0463B1C0F331E
:105E00001B78181CBD4604B080BDC0466000010070
:105E100080B584B000AF786039603B1C0F3300223E
