:1000000000600020E9040000F9040000F904000089
:1000100000000000000000000000000000000000E0
:10002000000000000000000000000000F9040000D3
:100030000000000000000000F9040000D1B300003F
:1000400091B10000A1B10000B1B10000C1B1000048
:10005000F9040000F9040000F9040000F9040000AC
:10006000F9040000F9040000E5580000F90400005C
:10007000F904000081B10000F9040000A559000056
:10008000F9040000F9040000F9040000F90400007C
:10009000F9040000F9040000F9040000F90400006C
:1000A000F9040000F9040000F9040000F90400005C
:1000B000F9040000F9040000F9040000715900007F
:10040000FFFFFFFFFFFFFFFFFFFFFFFFFE3FFFFFBD
:1004100010B5064C2378002B07D1054B002B02D0DA
:10042000044800E000BF0123237010BD08E3FF1F54
:1004300000000000B026010008B5084B002B03D0D7
:100440000748084900E000BF07480368002B03D0B5
:10045000064B002B00D0984708BDC04600000000A6
:10046000B02601000CE3FF1F04E3FF1F00000000A3
:10047000164B002B00D1144B9D46402292029A1A33
:10048000924600218B460F461348144A121A0BF06D
:100490004EFB0F4B002B00D098470E4B002B00D08B
:1004A00098470020002104000D000D48002802D0CC
:1004B0000C4800E000BF0BF001FB2000290005F014
:1004C00075FA0BF0D3FAC046000008000060002067
:1004D000000000000000000008E3FF1FC429002006
:1004E000000000000000000072B60AF0A1FC0AF053
:1004F000E9FC62B6FFF7BCFF00480047F9040000C2
:10050000002934D00123002210B488422CD30124C6
:100510002407A14204D2814202D209011B01F8E75B
:10052000E400A14204D2814202D249005B00F8E714
:10053000884201D3401A1A434C08A04202D3001B40
:100540005C0822438C08A04202D3001B9C08224373
:10055000CC08A04202D3001BDC082243002803D0B1
:100560001B0901D00909E3E7101C10BC70470028E3
:1005700001D00020C04307B4024802A140180290F5
:1005800003BDC046D90000000029F0D003B5FFF735
:10059000B9FF0EBC4243891A1847C046002941D012
:1005A00010B4041C4C40A44601230022002900D5AD
:1005B0004942002800D5404288422CD30124240718
:1005C000A14204D2814202D209011B01F8E7E400F2
:1005D000A14204D2814202D249005B00F8E788427E
:1005E00001D3401A1A434C08A04202D3001B5C08F6
:1005F00022438C08A04202D3001B9C082243CC0853
:10060000A04202D3001BDC082243002803D01B09B0
:1006100001D00909E3E7101C6446002C00D54042D4
:1006200010BC7047002806D003DB0020C043400800
:1006300001E08020000607B4024802A140180290A1
:1006400003BDC046190000000029EBD003B5FFF739
:10065000A7FF0EBC4243891A1847C0467047C046E0
:10066000002B11D1002A0FD1002900D1002802D07F
:100670000021C943081C07B4024802A14018029097
:1006800003BDC046D9FFFFFF03B4684601B5029819
:1006900000F044F8019B9E4602B00CBC7047C04677
:1006A0009C460304F0B51B0C17043F0C150C1E1CD4
:1006B000041C000C7E436B4347434543FB18300C3E
:1006C0001818874202D980235B02ED18030CED183D
:1006D00063465C434A433604360CA1180004801973
:1006E0004919F0BDF0B583B0161C1F1C0090019194
:1006F00001F012FC041C0D1C221C2B1C301C391C8C
:10070000FFF7CEFF009A019B121A8B410899201C1B
:100710000A604B60291C03B0F0BDC046F0B583B041
:10072000141C1D1C0090019101F0D2FD221C2B1CF9
:10073000061C0F1CFFF7B4FF009A019B121A8B4195
:100740000899301C0A604B60391C03B0F0BDC046EC
:10075000F8B543024400C50F4E024800240E2A1C7F
:100760009B09000EC90FB6098D425BD0221A002AE0
:1007700000DC89E000281DD1002E00D075E058076C
:1007800004D00F221A40042A00D004338021C90467
:1007900019402A1C00293AD00134FF2C00D17FE0F7
:1007A0009B015B0A5B02E4B2E405580AD2072043CE
:1007B0001043F8BDFF2CE2D08021C9040E431B2A50
:1007C00000DD2DE1311C2020D140821A9640721E9E
:1007D00096410E439B1B5801D1D59B019F09381CA4
:1007E00001F07CFB421F974094425BDC141B1F23EB
:1007F0001B1B3A1C9F40611C3B1CCA405F1EBB4137
:1008000013430024BBE7131EB9D100230022DB08E9
:10081000FF2C04D1002B43D08020C00303435B0294
:100820005B0ABFE7211A002940DD002823D0FF2CF6
:10083000A5D08020C00406431B2900DDEEE0301C5B
:100840002027C840791A8E40711E8E4106439B199D
:10085000590100D493E70134FF2C55D0714901228E
:100860001A400B405B08134389E7013A002AB1D0D4
:10087000FF2CA4D183E7002E00D180E701390029A5
:10088000E5D0FF2CD8D17AE7002A1BD1621CD2B266
:10089000012A4BDD9F1B7A0123D5F71A0D1C9EE719
:1008A00000237FE75F4BA41A3B4068E7002946D14D
:1008B000611CC8B2012829DDFF2924D0F3185B0888
:1008C0000C1C5CE7002C13D0FF2818D08024E40413
:1008D000524223431B2A4DDD0123F31A041C0D1C35
:1008E00079E7002F00D07AE70023002200248EE76A
:1008F000002B3BD0D243002AEFD0FF28EAD1331C93
:10090000FF240D1C3BE7FF24002380E7002C5CD173
:10091000002B00D180E0002E00D130E79B19580158
:1009200000D42CE73F4A0124134028E7002C15D1BE
:10093000002B40D1002E63D0331C0D1C1FE7002C70
:1009400021D1002B54D0C943002904D0FF284CD01A
:100950001B2958DD01239B19041C79E7002B19D1B1
:10096000002E48D0331C0D1CFF2408E7331C041C48
:100970000D1C04E71C1C2025D440AA1A93405A1EC3
:1009800093412343A9E7FF282FD08024E404494260
:100990002343DDE7FF24002E00D1F0E68022DB08B0
:1009A000D203134204D0F608164201D1331C0D1CA9
:1009B000DB00FF24E3E6002E00D1E0E69A1B5001A5
:1009C00000D420E7F31A0D1CD9E6002B0DD0FF242C
:1009D000002E00D1D3E68022DB08D2031342E7D0F9
:1009E000F6081642E4D1331CE2E7331CFF24C6E6C6
:1009F000331C041CC3E6802300229B04FF2406E76B
:100A0000231C002203E71C1C2027CC40791A8B40B2
:100A1000591E8B4123439EE7331CB0E6012616E79F
:100A20000126D7E6FFFFFFFBF0B55F4656464D4671
:100A30004446F0B446024500C00F85B00F1C760A4C
:100A40002D0E804641D0FF2D26D080242404002185
:100A50002643F6007F3D89468B46F90F7C027800DD
:100A6000640A000E00918A463CD0FF2834D08023CF
:100A70001B041C430023E4007F380193009F43467E
:100A8000019A7B4049469C4611430F2900D971E0E9
:100A9000764F89007F58BF46002E3ED108220223A0
:100AA00091469B46D9E75A46341CC24601920199A9
:100AB000022937D0032900D1CFE0012900D0ABE0D3
:100AC00053460B400022002632E0002E19D10421AB
:100AD000012289469346C0E7221C531E9A410232E6
:100AE0000192CBE701270197002CC7D0201C01F011
:100AF000F5F9431F9C4076235B420021181A0191AF
:100B0000BCE7301C01F0EAF97625431F9E406D4298
:100B100000232D1A99469B469FE70C2303219946F3
:100B20008B469AE7D446012367463B40FF220026C6
:100B30007602D205700ADB071043184305B03CBCAF
:100B400090469946A246AB46F0BD80260023F603A8
:100B5000FF22EDE700220026EAE78020C0030642DC
:100B60003BD0044239D1061C26437602760A009B0C
:100B7000FF22DDE7281A039076016401A64239D3EB
:100B8000361B1A2201230120311C5B00760000294C
:100B900001DBB44201D8361B0343013A002AF3DCDF
:100BA000741EA641341C1C43039A7F32002A27DDA1
:100BB000630704D00F232340042B00D00434270103
:100BC00003D52B4B039A1C408032FE2A0BDD0123F8
:100BD00061460B40FF220026AAE706437602760A0A
:100BE0004346FF22A4E7A40101236746660AD2B266
:100BF0003B409DE7039F1B22013F03970023C2E771
:100C00007E23039F5B42DB1B1B2B07DD0123614619
:100C10000B40002200268BE7D446C5E7221CDA40B1
:100C2000039B9E339C40231C5C1EA34113435A0725
:100C300004D00F221A40042A00D004335F0105D5E6
:100C4000012361460B400122002671E79E016246A6
:100C500001231340760A00226AE78026F603264322
:100C60007602760A5346FF2262E7C046D817010093
:100C7000FFFFFFF7F0B55F4656464D464446F0B4D9
:100C80004402460083B00F1C640A360EC50F002EC6
:100C900041D0FF2E22D080231B0400201C43E400FF
:100CA0007F3E82468046391C4B007F02C90F7F0A77
:100CB0001B0E8B463BD0FF2B34D0802212041743EF
:100CC000FF007F3B00215A466A40019252460A4388
:100CD0000F2A63D87A48920082589746002C3FD159
:100CE0000822022392469846DDE7019540460228F5
:100CF0002AD1019A01251540FF2300246402DB0557
:100D0000600AED071843284303B03CBC904699465F
:100D1000A246AB46F0BD002C27D10420012282461A
:100D20009046C0E7391C4A1E91410231CBE70121B0
:100D3000002FC8D0381C01F0D1F8431F9F40762304
:100D40005B421B1A0021BEE7032800D1AEE0012858
:100D50004FD1019842461040C5B200230024CDE790
:100D60000C2303209A4680469DE7201C01F0B6F82C
:100D70007626431F9C4076420023361A9A469846B0
:100D800091E780240025E403FF23B7E75B463C1C82
:100D900001938846AAE73C1C8846A7E7250C240453
:100DA0003A0C240C3F04F6183F0C211C231C7943F9
:100DB00053436F435543FB180A0C9B18B1469F429F
:100DC00002D980225202AD1809041A04090C5218E3
:100DD00094011B0C611E8C41920EED181443AD0161
:100DE0002C43230105D501226308012014408144CE
:100DF0001C434B467F33002B2DDD600704D00F22B0
:100E00002240042A00D00434220103D52D4B1C407B
:100E10004B468033FE2B17DD019B01251D4000242E
:100E2000FF236BE78020C003044208D0074206D1AD
:100E3000041C3C436402640A5D46FF235EE70443EE
:100E40006402640AFF2359E70198A4010125640A9A
:100E5000DBB2054052E77E235B424A469B1A1B2BBE
:100E600005DD019B01251D400024002346E7221CCF
:100E7000DA404B469E339C40231C5C1EA341134327
:100E8000580704D00F221A40042A00D004335A0114
:100E900005D5019B01251D40002401232EE7019863
:100EA0009C010125640A0540002327E78027FF03F2
:100EB000019B3C43640201251D40640AFF231DE79A
:100EC00018180100FFFFFFF7F8B5C20F43024400F6
:100ED0004D024800240E161C9B09000EC90FAD09D7
:100EE000FF2800D183E0012779408A425CD0221A92
:100EF000002A00DC8EE000281ED1002D00D07AE010
:100F0000580704D00F221A40042A00D0043380214D
:100F1000C90401221940324000293AD00134FF2C83
:100F200000D183E09B015B0A5B02E4B2E405580A4E
:100F3000D20720431043F8BDFF2CE1D08021C90423
:100F40000D431B2A00DD31E1291C2020D140821AEB
:100F500095406A1E95410D435B1B5801D0D59B01FE
:100F60009F09381C00F0BAFF421F974094425FDC93
:100F7000141B1F231B1B3A1C9F40611C3B1CCA40B7
:100F80005F1EBB4113430024BAE7131EB8D10023F0
:100F90000022DB08FF2C04D1002B47D08020C003A7
:100FA00003435B025B0ABFE7211A002944DD0028E6
:100FB00027D0FF2CA4D08020C00405431B2900DDCE
:100FC000F2E0281C2027C840791A8D40691E8D4107
:100FD00005435B19590100D492E70134FF2C59D025
:100FE000734901221A400B405B08134388E7002D28
:100FF00000D07AE777E7013A002AADD0FF2CA0D1E4
:101000007EE7002D00D17BE701390029E1D0FF2CDC
:10101000D4D175E7002A1BD1621CD2B2012A4BDD64
:101020005F1B7A0123D5EF1A0E1C9AE700237BE79A
:101030005F4BA41A3B4063E7002946D1611CC8B24C
:10104000012829DDFF2924D0EB185B080C1C57E789
:10105000002C13D0FF2818D08024E40452422343EC
:101060001B2A4DDD0123EB1A041C0E1C75E7002F13
:1010700000D076E70023002200248AE7002B3BD033
:10108000D243002AEFD0FF28EAD12B1CFF240E1CEC
:1010900036E7FF2400237CE7002C5CD1002B00D135
:1010A00080E0002D00D12BE75B19580100D427E721
:1010B0003F4A0124134023E7002C15D1002B40D1D7
:1010C000002D63D02B1C0E1C1AE7002C21D1002B05
:1010D00054D0C943002904D0FF284CD01B2958DD27
:1010E00001235B19041C75E7002B19D1002D48D092
:1010F0002B1C0E1CFF2403E72B1C041C0E1CFFE6FC
:101100001C1C2026D440B21A93405A1E93412343FC
:10111000A9E7FF282FD08024E40449422343DDE7D8
:10112000FF24002D00D1EBE68022DB08D20313421E
:1011300004D0ED08154201D12B1C0E1CDB00FF244E
:10114000DEE6002D00D1DBE65A1B500100D41CE77F
:10115000EB1A0E1CD4E6002B0DD0FF24002D00D17D
:10116000CEE68022DB08D2031342E7D0ED08154219
:10117000E4D12B1CE2E72B1CFF24C1E62B1C041C32
:10118000BEE6802300229B04FF2402E7231C0022EA
:10119000FFE61C1C2027CC40791A8B40591E8B413E
:1011A00023439EE72B1CABE6012512E70125D3E67E
:1011B000FFFFFFFB10B5041E33D000F08FFE9E230F
:1011C0001B1A962B09DC083884406402640ADBB2DF
:1011D0006402DB05600A184310BD992B0ADD052265
:1011E000121A211CD1400A1C011C1B318C40611EAB
:1011F0008C411443052801DD421F9440144A2240CB
:10120000610704D00F210C40042C00D0043251019E
:101210000AD59F23181AFF2816D09401640AC3B276
:10122000D6E700230024D3E7D208FF2B03D05402D3
:10123000640ADBB2CCE7002A06D08024E40314431E
:101240006402640AFF23C3E7FF230024C0E7C0460B
:10125000FFFFFFFBF0B5564644465F464D46F0B4EF
:101260001F1C0B031B0B98464B0087B0041C8146C8
:101270005B0DC80F161C9A460090002B51D06A4B8C
:101280009A4531D08022414652030A43630FD2006F
:101290001A43664B90460025E20091469A4400248A
:1012A00002953B031B0B9B46FD0F7B00311C5B0D26
:1012B000019560D05C4A934254D08021584649033E
:1012C0000143720FC9001143584A8B469B18F10025
:1012D0000020009A04436A4003920F2C00D9ADE02D
:1012E000534EA4003459A746404604436ED1002112
:1012F00002250824884689460295D2E7009C029878
:10130000C34649460194022864D0032800D1ABE2C9
:10131000012800D038E2019A002402400025A146AD
:1013200060E0434623434AD04046002800D1C0E154
:1013300000F0D4FD031E272B00DDB3E128210D1A98
:10134000211C083B4246E9409A400D1C1543221CD3
:101350009A40A8469146374B00251B1A9A4600240E
:1013600002959EE75A4616430320002EB1D1B3469C
:1013700000210220ADE75A4632431BD05B46002BCA
:1013800000D18AE1584600F0A9FD272800DD7DE163
:101390002822171A011C321C08395B46FA408B4080
:1013A000171C1F43331C8B40BB46191C214B1B1AB7
:1013B00000208EE70027BB460021012089E700209E
:1013C000012504248046814602956AE703250C2402
:1013D000029566E7019C0394039D01222A400024A4
:1013E000114DA146002000212403260B0C0D2405DD
:1013F000114B34432D0523402B435B005B08D20780
:10140000191C4846114307B03CBC90469946A24679
:10141000AB46F0BD0022802424039146024DE1E753
:1014200000240025A146DDE7FF07000001FCFFFFC7
:10143000581801000DFCFFFFFFFF0F805546ED1A05
:101440000495D84500D953E100D14EE1049C002514
:10145000013C4E4604944746A946584603020C0EEA
:101460001C430902250C23041B0C0091381C291C69
:101470000193FFF745F8019983464143381C8A469A
:10148000291CFFF781F8330C090419438A450CD94C
:101490005B460919013B8C4200D947E18A4500D8D7
:1014A00044E102225242934409195346CB1A181CB4
:1014B000291C9846FFF724F8071C0198291C78433B
:1014C00082464046FFF760F836040B04360C33437F
:1014D0009A4509D91B197A1E9C4200D924E19A45E4
:1014E00000D821E1023F1B195E4632041743380C35
:1014F000BB46009E009F51463F0C32045B1A594682
:10150000BA46120C0F043F0C904651467A434F43A3
:101510004146414356467043CF19160CBE19B1429D
:1015200002D980277F02C019310C12043604120C34
:101530004018B618834200D2C4E000D1BEE0191AA8
:101540004846861BB145BF417F42CF1BA74200D111
:1015500013E1291C381CFEF7D3FF01990290414387
:10156000381C8946291CFFF70FF8330C090419436E
:1015700089450CD9029B0919013B8C4200D9FFE037
:10158000894500D8FCE0029F0919023F02974F46A7
:10159000CF1B381C291C0597FEF7B2FF071C0198CA
:1015A000291C784381460598FEF7EEFF36040904AE
:1015B000360C0E43B14509D936197B1EB44200D909
:1015C000E0E0B14500D8DDE0023F3619029D494612
:1015D000761A290439430B0457460A0C1B0C404663
:1015E0004546584355437B437A43EB18070CDB19B8
:1015F0009D4202D980256D0252191D0C00041B0466
:10160000000C52191B18964235D300D1FCE001237F
:101610001943049E994FF519002D00DCA1E04807FD
:1016200009D00F230B40042B05D00B1D8B428941A1
:1016300049428B44191C5A46D20107D5904B5C464F
:10164000049E80271C40FF00A346F5198D4B9D4248
:101650007ADD039C0122224000248B4DA146C1E685
:1016600080242403474627424CD13C432403240BC7
:10167000009A854DB6E63619481EB4425ED9011C63
:101680009642C4D1009E9E42C1D1C2E7031C283BB2
:10169000311C99408B46002188E6301C00F01EFC6E
:1016A000203072E6283B211C994000228846914652
:1016B00051E6201C00F012FC20303BE60021B14531
:1016C00000D33DE7009F5A46B944B945BF417F4228
:1016D0003F19FB18013A9C421ED2984200D97EE085
:1016E00000D1B5E0191A93462AE7894500D8ADE63E
:1016F0004846464642467708D3074608C0071E4379
:101700008146AAE65846204212D1044324032A1CEB
:10171000240B89465C4D65E6A342E3D1009F4F450B
:10172000DBD9211A93460BE7171CDDE69B46BCE686
:101730003C432403240B009A534D53E6B24259D83C
:1017400000D18AE0011C62E75F46C9087B07039E5F
:101750000B437C026D0501229946240B6D0D32402E
:1017600040E64A4B049FDB1B382B10DD039C012213
:10177000224000240025A14634E60121494248E7E1
:10178000029304E71F1C21E7019C039441E71F2BF0
:1017900040DC3F48049F0C1C3A1858469140DC40FE
:1017A000904020430A1C511E8A41011C11435A4695
:1017B000DA40131C480709D00F220A40042A05D03A
:1017C0000A1D8A42894149425B18111C1A0234D50C
:1017D000039C0122224000240125A14602E6009F2D
:1017E00002214942B9448B44B9458941494209190A
:1017F000CB18A4E6009D881E6900A942AD416D4248
:101800002C19361900913AE7002B00D033E7002459
:10181000009437E71F4A049C5D46121BD5402A1CE2
:10182000202B1FD01C4E5F46A3199F403B1C194321
:101830004B1E994111430023BCE75A07C9080A43CC
:10184000039F91465B0201221C0B3A400025C9E52B
:101850004E45C4D89346002172E6009F9F42C9D3EB
:10186000011C0FE70023E2E7802424035F463C438A
:101870002403240B019A8946034DB3E5FF030000BE
:10188000FFFFFFFEFE070000FF07000002FCFFFF56
:101890001E040000E2FBFFFF3E040000F0B55646C8
:1018A00044465F464D46F0B41F1C0B031B0B9A4683
:1018B0004B0087B0041C80465B0DC80F161C0293BA
:1018C0008146002B68D0694B0299994232D0802220
:1018D000534652031A43D200630F1A439246644A96
:1018E000E000891880460291002400253B031B0B71
:1018F0009B467800FB0F321C400D039300D175E02E
:101900005A4B984269D08022594652030A43730FBA
:10191000D2001A43564B9346C018F2000023039995
:101920004E4671401C430F2C00D9A9E0514EA40033
:101930003459A74653461C4300D087E00025AA46E9
:10194000A84608240225D1E74946022D6CD0032D74
:1019500000D117E2012D00D058E10D40EDB2002476
:10196000A9460023A0460020002125030A0D1C05DE
:101970002D0B1205404B2A43134023435B004C467A
:101980005B08E207191C4046114307B03CBC904677
:101990009946A246AB46F0BD5346234350D053462A
:1019A000002B00D184E1504600F098FA031E272B4B
:1019B00000DD76E128210D1A211C083B5246E94042
:1019C0009A400D1C1543221C9A40AA4690462B4B68
:1019D00000241B1A0293002588E75B461E4303235D
:1019E000002E9CD1B3460022022398E75B46334386
:1019F00021D05846002800D14EE100F06FFA272888
:101A000000DD42E128210F1A021C311C083A5B4616
:101A1000F94093400F1C1F43331C9340BB461A1CD4
:101A2000164B181A00237AE701230B40002499462D
:101A3000A0460E4B97E70027BB46002201236EE726
:101A4000002104248A46884601254FE70C240325FB
:101A50004CE700258024A9462403A846034B82E7CF
:101A6000DA46904603991D1C6FE7C046FF07000049
:101A700001FCFFFF98180100FFFF0F800DFCFFFF26
:101A8000029F160C381804904046070C0004000C06
:101A90001204120C031C5343041C3D1C7443554395
:101AA00098463B1C73436419A44644460293230C96
:101AB00063449D4204D9029D802464022D1902953D
:101AC0001D0C039545462C041B04240C1C1905947D
:101AD0005C46230C051C58432404240C8446381C03
:101AE000604365435F438146CC44280C6044BB4659
:101AF000814502D980277F02BB442D04070C2D0CA1
:101B0000000440195546BC462F04E3448446280C83
:101B10003D0C2F1C5743B8462F1C77434243B94610
:101B200047463F0C9144BA46D14446434A4502D900
:101B300080225202B6184F463A0CB6183A0447466D
:101B40003F043F0CB8462F1C67435D434443584352
:101B500065190190380C2D184244B846AC4204D99E
:101B6000019880235B02C0180190039C029F201CF7
:101B70006044C0196045A44147466442A4462B0412
:101B80003C049946240C4C44A046D8448018C246D4
:101B9000E24490429241574652429146F219E24540
:101BA000BF417F424B46BC46D845BF41D4187F4217
:101BB00063461F432D0C7F19B24292414C45AD4103
:101BC00052426D421543019E7D19AB19E20D5B0235
:101BD000059F134342023A439A46531E9A41C30D4E
:101BE000101C18436402204380465046C0010DD5A6
:101BF000454601225646049C6B082A401A43F307C7
:101C000001341A43760804949046B246049E634F0A
:101C1000F319002B61DD404640070BD00F224446EC
:101C20002240042A06D042460432424580414042C6
:101C3000824490465546ED0107D5594B5646049FC0
:101C400080201E40C000B2463B18564A934200DD39
:101C5000EAE644465546E2086807104301226C0252
:101C60005B050A408046240B5B0D91467BE6DA4615
:101C700090461D1C69E680242403574627421CD148
:101C80003C432403240B484B6DE6031C283B311CCA
:101C900099408B460022C3E6301C00F01FF920302B
:101CA000ADE6283B211C994000228A4690468EE6EC
:101CB000201C00F013F9203078E65846204207D166
:101CC000044303992403240B89469046364B4AE685
:101CD0003C432403240B344B45E6344B049E9B1BAE
:101CE000382B06DD01230B4000249946A046002333
:101CF00039E61F2B25DC049C2D4D464660195246C3
:101D000044468640DC4082405746301C2243DF4038
:101D1000441EA04102433B1C540709D00F20104031
:101D2000042805D0101D9042924152429B18021C7B
:101D30001D021AD501230B4000249946A046012319
:101D400011E61C48049C5546001BC540281C202B4E
:101D500016D0194E5746A21997403A1C43461A43CB
:101D6000531E9A4102430023D6E758075B02D2086C
:101D70001C0B01230B401043994680460023F2E5DB
:101D80000022EBE78024240350460123044319403A
:101D90002403240B8946044BE5E5C046FF030000FD
:101DA000FFFFFFFEFE070000FF07000002FCFFFF31
:101DB0001E040000E2FBFFFF3E040000F8B5041E15
:101DC00031D0C70F00D04442201C00F087F8184DD6
:101DD0002D1A0A2819DD0B38844024036D05240BC5
:101DE0006D0D3A1C0026002000210B0D2403240B4E
:101DF0001B0523430F4C2D051C402C436400640835
:101E0000D307211C301C1943F8BD061C1536231CB2
:101E1000B3401E1C0B23181AC44024036D05240B69
:101E20006D0D3A1CDFE70022002500240026DAE7CA
:101E30001E040000FFFF0F8043001B0E5A1C4102CE
:101E4000D2B270B54C0AC50F012A17DDE02292000C
:101E50006407090B9818002200231E0D221C34056C
:101E60000C431B49400540082140014349004908F3
:101E7000ED070B1C2B43101C191C70BD002B15D13A
:101E8000002C1CD0201C00F029F80A281ADC0B2199
:101E9000091A231CCB40191C031C15339C400D4B05
:101EA0000903181A4005090B400DD4E7002C03D094
:101EB0006407090B0848CEE707480021CBE700205C
:101EC0000021C8E7011C0B398C40211C0024E6E7E7
:101ED000FFFF0F8089030000FF0700001C21012382
:101EE0001B04984201D3000C10391B0A984201D3FD
:101EF000000A08391B09984201D30009043902A2DB
:101F0000105C40187047C046040302020101010141
:101F10000000000000000000F0B544465F46564651
:101F20004D46F0B41C1C85B0002900DADBE00F1C24
:101F30000021061C8A46101C191C002C00DAC9E07E
:101F40000196009089468046002951D1B84200D8B8
:101F500071E0FFF7C3FF002809D020234546311C5C
:101F60001B1A85408740D940A8460F438640424609
:101F7000150C13041B0C291C381C9B46FEF7C0FAD9
:101F80005B464343041C291C381C9946FEF7FCFAA7
:101F9000330C08041843814509D94044631E804529
:101FA00000D978E1814500D875E1023C40444946BA
:101FB000411A8946081C291CFEF7A2FA5A464243D8
:101FC000071C291C48469346FEF7DEFA360409042E
:101FD000360C0E43B34507D946447B1EB04502D8A4
:101FE000023FB34500D81F1C24042743002403E00C
:101FF000B94211D9002400275246381C211C002A5E
:1020000003D03B1C00215842A14105B03CBC904686
:102010009946A246AB46F0BD081CFFF75FFF041EC1
:1020200000D0BFE0B94500D242E1019D0099071CF4
:102030008D424741E0E7002804D101200021FEF74E
:102040005FFA80464046FFF749FF002852D14146DB
:1020500044460B043C1B1B0CA3460D0C00930124AF
:10206000291C5846FEF74CFA009F81464743291C1D
:102070005846FEF789FA330C090419438F4208D9F0
:102080004B464144013B884502D88F4200D91AE1B2
:102090009946C91B8B46081C291CFEF731FA009B88
:1020A000291C4343071C58460093FEF76DFA36047B
:1020B000009D0904360C0E43B54207D946447B1EE9
:1020C000B04502D8023FB54200D81F1C49460E0455
:1020D000374391E75246D243031C0C1C9246002121
:1020E0005842A1412CE7002746428F410121494235
:1020F0008A4620E720231B1A4246351C82403C1C9E
:10210000DD40DC4087402B1C150C3B43291C8640DE
:10211000201C009317049046FEF7F2F93F0C011CB7
:10212000794381468B46201C291CFEF72DFA009C22
:102130000904230C19438B450CD94B464144013B00
:10214000884500D9BDE08B4500D8BAE00222524252
:10215000914441445C460C1B201C291C0194FEF751
:10216000CFF9391C4143041C8B460198291CFEF70A
:102170000BFA009A090413041B0C19438B4509D967
:102180004144631E884500D997E08B4500D894E010
:10219000023C41445B46CB1A49469B460B041C4318
:1021A00000975DE7009D20231B1A4A468240DD40D0
:1021B0001543391C009AD94082408846311C009250
:1021C000D9403A1C82400B1C134301932F0C2B0463
:1021D0001B0C391C40460293FEF792F9029A814685
:1021E0004243391C40469346FEF7CEF9019A090452
:1021F000130C19438B450AD94B464919013B8D42B3
:102200005DD88B455BD902235B42994449195A46F4
:102210008A1A101C391C0392FEF772F9029B804641
:102220004343391C03989B46FEF7AEF9019A090413
:1022300013041B0C19438B450AD943464919013B2A
:102240008D4238D88B4536D902235B4298444919D0
:102250005D464D1BAB464946009D0F044246174361
:102260002A04120C3B042D0C1B0C380C111C594376
:1022700042436B436843D3180D0C5B198C469A425A
:1022800002D98022520280181D0C401983450CD3BC
:1022900003D00024B0E61C1C89E665462A041B0412
:1022A000120C9B18A6409E42F3D2013F0024A3E6E5
:1022B00000240127A0E69846CAE71C1C6AE7994655
:1022C000A5E7994646E70222524291444144E0E69E
:1022D000F0B55F4656464D464446F0B40D1C85B0F9
:1022E000061C924698460290019103921F1C141CF2
:1022F0008346A946002B59D1AA4269D9101CFFF781
:10230000EDFD00280AD020231B1A311CD94085403E
:102310000B1C2B43864084409946B346250C23046E
:102320001B0C291C48469846FEF7EAF84646071C4F
:102330004643291C4846FEF727F95A460904130C60
:1023400019438E4209D909197B1E8C4200D957E1E5
:102350008E4200D854E1023F0919891B8946081CA6
:10236000291CFEF7CDF843464343061C291C48466A
:102370009846FEF709F95A46130409041B0C194341
:10238000884508D90919731E8C4200D936E1023EEE
:10239000884500D832E1380430430027391C05B0A5
:1023A0003CBC90469946A246AB46F0BD019A93428A
:1023B00062D8181CFFF792FD041E60D1019B9F425A
:1023C00000D22CE1029F03998F4260410027E5E78C
:1023D000002A04D101200021FEF792F8041C201CE1
:1023E000FFF77CFD002800D0B9E023042D1B1B0C57
:1023F000A946260C98460127311C4846FEF780F86E
:1024000041464143051C8A464846311CFEF7BCF84C
:102410005A460804130C1843824507D900196B1E4D
:10242000844202D8824500D910E11D1C5346C31ACC
:10243000181C311C9A46FEF763F841464143814619
:1024400088465046311CFEF79FF85A46130409048B
:102450001B0C194388450BD94B460919013B8C428B
:1024600000D9CFE0884500D8CCE002235B429944F4
:1024700028044946084391E7002700208EE72023DF
:102480001B1A424657468240DF401743524682405D
:102490000192321CDA40291CD9408540131C2B4381
:1024A00002933D0C3B041B0C8846081C291C9A46D1
:1024B000FEF726F8534643438146291C40469B4677
:1024C000FEF762F8029A0904130C19438B4506D9EA
:1024D0004B46C919013B8F4200D8ABE099465A469A
:1024E0008A1A101C291C9346FEF70AF853464343E8
:1024F000291C804658469A46FEF746F8029A090477
:1025000015042D0C29438A4506D94346C919013BB8
:102510008F4200D886E098465746CF1BBA464946B8
:10252000019F0804424610433D042D0C03043F0C58
:102530001B0C020C291C594355437B437A43EB186F
:102540000F0CDB198C469D4202D980277F02D219DD
:102550001D0C521992455FD356D000271EE7202349
:102560001B1A311C2F1CD940DF4085400B1C8440B6
:102570002B4386400193B3462304260C1B0C381CC6
:10258000311C9846FDF7BCFF42464243051C311CF6
:10259000381C9146FDF7F8FF019F09043B0C1943D5
:1025A000894507D909196B1E8C424DD889454BD9ED
:1025B000023D09194A468A1A101C311C9246FDF741
:1025C0009FFF43464343071C311C50469946FDF785
:1025D000DBFF019A090413041B0C1943894507D931
:1025E00009197B1E8C422DD889452BD9023F091928
:1025F0004B46CB1A2D0499462F43FDE61E1CCAE616
:102600001F1CAAE6994633E761460A041B04120C14
:102610009B18A6409E42A0D201380027BEE60027A4
:102620000120BBE68A4500D875E702235B42984447
:10263000C91971E78B4500D850E702235B429944E2
:10264000C9194CE71F1CD3E71D1CB3E7023D001955
:10265000ECE6C04602780B7801300131002A01D047
:102660009A42F7D0D01A704702B47146490849001F
:10267000095C49008E4402BC7047C0468446101C69
:1026800062468C46191C634600E0C0461FB500F048
:102690003DFC002801D40021C8421FBD10B500F048
:1026A0006DFB4042013010BD10B500F02FFC00283A
:1026B00001DB002010BD012010BDC04610B500F0A8
:1026C00025FC002801DD002010BD012010BDC04602
:1026D00010B500F09DFB002801DC002010BD01209A
:1026E00010BDC04610B500F093FB002801DA0020B1
:1026F00010BD012010BDC04638B50E4B0C4A041C5D
:102700000D1CFFF7EFFF002804D1201C291C00F04E
:10271000AFFF38BD074B064A201C291C00F074FC93
:1027200000F0A6FF80231B06C018F2E7C046C04693
:10273000000000000000E041F8B55F465646444600
:102740004D46F0B40C034D00CE0F610A440F2143F7
:10275000C400180380465800400D8246D80F8446B6
:102760004046400A530F0343D0006D0D371C83468B
:102770005246664500D1A4E0AF1A002F00DC09E103
:10278000002A3BD1184300D0EAE0630700D187E07C
:102790000F232340042B00D182E0221DA242A4413A
:1027A0006442802309191B040B40371C141C002BA6
:1027B00000D17CE0CE4B01359D4200D105E1CD4BEF
:1027C000E40819404807490204430B0B002000218C
:1027D0001B031A0B0B0D6D051B0513436A08C64D31
:1027E000FF071D4015436D006D08291C3943201C4F
:1027F0003CBC90469946A246AB46F8BDBC488542D3
:10280000C3D0802000040343382F00DDF0E01F2FE9
:1028100000DD24E12020C01B1A1C8146824058465E
:10282000F8400243944658464A469040421E904122
:10283000FB40624602431F1CA21A9442A441644218
:10284000C91B091B141C0B029FD549024F0A002FFC
:1028500000D1C8E0381CFFF741FB021C083A1F2AD0
:1028600000DDB5E02821091A201C9740C840074325
:102870009440954200DDB2E0551B691C1F2900DD24
:10288000DCE01F22551B3B1C221CAB40CA40AC4065
:10289000651EAC411343CF401C43391C002574E72F
:1028A00080231B040B40371C002B00D082E7904B89
:1028B0004807E4080443C9089D4248D009030B0BAC
:1028C00084E7AA1A9446002A00DC98E050460028C3
:1028D00052D08748854200D157E780200004034347
:1028E0006246382A00DDFCE01F2A00DD4AE1202292
:1028F0006046101A1A1C824082469146584662462B
:10290000D0404A4602439046584652469040421EA6
:102910009041424602436046C3401219A242A4417C
:10292000644259180919141C080200D42DE7704B91
:1029300001359D4200D122E16E4B60081940012310
:1029400023401C1C0443CB071C4349081DE7231CE0
:102950000B433AD080231B030B431B031B0B35E7B0
:10296000013F002F65D15846221A9442A441644287
:10297000C91A091B141C66E75846184300D104E71E
:102980000122524294446046002800D0C5E05846D7
:102990000219C3E7002F73D1681C4005400D0128C0
:1029A00000DCDEE05A46A21A9442BF41C81A7F42B8
:1029B000C71B380200D489E05A46141BA345924134
:1029C000591A52428F1A664641E700230024FDE659
:1029D000271C283887400024954200DC4CE74549F5
:1029E000AD1A3940D1E6201CFFF778FA203034E7E1
:1029F0005A461A43531E9A41D2B200271CE7002AB6
:102A000000D0DCE0681C4205520D012A00DC8DE09C
:102A1000374DA84200D1F3E05D462A19A242A441F5
:102A2000644259180919CC07520814434908051C77
:102A3000ABE62F48854200D0E6E6A6E62B1C1F3BFE
:102A40003A1CDA40131C20296CD03F22551BAF40A2
:102A50003C43601E84411C430021002595E6381C40
:102A600020381A1CC240101C202F5DD04022D71BDA
:102A7000BB405A461A43531E9A4102430027DBE6E5
:102A8000002D3BD01A4DAA4500D193E080252D049E
:102A90007F422943382F00DDACE01F2F00DD29E104
:102AA0002025ED1B081C261CA840FE40AC40064318
:102AB000651EAC413443F9405D462C1BA345924151
:102AC0005B1A5242991A55466646BCE6131C3B43B4
:102AD000141C002B00D0BAE600270021002500249A
:102AE000E5E65A461A43531E9A41D2B2002314E730
:102AF000FF070000FFFF7FFFFFFF0F800D1C254336
:102B000058D0FF43002F51D1041BA3459241591ABD
:102B10005242891A5546664695E69648854200D047
:102B2000DEE632E6002793E70023A2E7081C2043F5
:102B3000002D00D0C4E0002800D1F7E0584618432B
:102B400000D122E658460219A242A4416442591813
:102B50000919141C0A0200D417E6874B01251940F5
:102B600013E6081C2043002D39D1002871D15946A5
:102B7000194303D0191C5C46664606E6002700216F
:102B8000002494E6604620381A1CC24060469146F4
:102B9000202800D1ACE04022121A93405A461A4332
:102BA000531E9A414B461A430023B6E6714DAA457F
:102BB00000D06FE7191C5C4655466646E5E5002DDA
:102BC00022D10D1C254377D0D543002D71D15C4413
:102BD0005C4592415918524289185546A4E600288E
:102BE0004DD15946194300D194E0191C5C46664604
:102BF000604DCAE50C43611E8C41E4B200215BE7E5
:102C0000051C0021002452E65A4DAA4554D05542D5
:102C1000802210040143382D00DD81E01F2D00DDEE
:102C200092E02022501B0A1C84468240201CE8406F
:102C30000243904662469440601E844142461443DB
:102C4000E9405C445C459241CB1852429918554684
:102C50006AE65846184300D197E55846271ABC4201
:102C60009241C81A5242801A020266D55846041B85
:102C7000A3459241591A5242891A664685E558463B
:102C8000184333D04807E40804438020C9080003F0
:102C9000014208D0DD08054205D15946CA085C0743
:102CA0001443291C6646630FC9001943E400314DE3
:102CB0006BE5304A9245AED1191C5C46554664E539
:102CC000002836D05846184310D080254807E4081D
:102CD000C9082D0304432942E5D0D8082842E2D18F
:102CE0005D46EA085C071443011CDCE7214D4CE516
:102CF000002353E73D1C203D0A1CEA40151C202FF1
:102D000034D04026F71BB9400C43611E8C412C4344
:102D10000021D1E680210027C903164D0024C6E515
:102D20000C43611E8C41E4B200218AE7191C5C4609
:102D30002BE5191C5C460F4D27E5031C3B4300D1D6
:102D40001CE7011C3C1C20E52020404240190A1CC5
:102D5000C2409046202D0BD04020451BA9400C437B
:102D6000611E8C4145462C4300216AE70021CBE7D8
:102D70000021F4E7FF070000FFFF7FFFF0B55F468B
:102D800056464D464446F0B40D1C041C8046E80FE0
:102D9000814618030F03000B3F0B83B084461B488A
:102DA000009749005E00DF0F490D9246760DBB4645
:102DB00081420CD01548864210D00120B14215D076
:102DC00003B03CBC90469946A246AB46F0BD009F7E
:102DD00001202743F4D10D488642EED160460243DC
:102DE0000120002AECD10120B142E9D1009B6345CA
:102DF000E6D1D045E4D1D94506D00029E0D11C4325
:102E0000201C441EA041DBE70020D9E7FF0700009B
:102E1000F0B55F4656464D464446F0B4CD0FDE0F42
:102E2000AC461D032D0BB146374E0F034C00AB468D
:102E30005D0080463F0B640D92466D0DB44232D06A
:102E4000314EB54235D0002C0ED13843414241417C
:102E5000081C002D0BD0002919D1CC452DD065467A
:102E600068420123184318E0002DF6D1281C59466A
:102E70000A4353425341002806D1002BEDD063464C
:102E800058420123184308E00020002B05D14A4690
:102E9000504250414042012318433CBC9046994661
:102EA000A246AB46F0BD3E1C0643C9D002204042BC
:102EB000F3E75E461643C6D0F8E7AC4207DC0BDA10
:102EC000614648424841404201231843E5E76646CF
:102ED000704201231843E0E75F450AD80ED0002076
:102EE0005F45DAD265466842684140420123184393
:102EF000D3E76246504201231843CEE7D045F8D8C5
:102F00000020D045EED3C8E7FF070000F0B55646D5
:102F10004D4644465F46F0B40D1C83B0041C01903E
:102F2000E80F814618030F03000B3F0B844635481A
:102F3000009749005E00DF0F490D9246760DB846B6
:102F4000814234D02F48864236D0002918D0002E36
:102F50001FD1341C67463A4353425341002C1FD0C3
:102F60000020002B05D142465042504140420123EF
:102F7000184303B03CBC90469946A246AB46F0BD10
:102F80000098044360426041041C002EE2D00028F7
:102F9000E9D1C14515D04F46784201231843E8E7EF
:102FA000002BF6D04B46584201231843E1E7009F1F
:102FB00002202743DDD1C5E7674602201743D8D159
:102FC000C3E7B14204DD4A46504201231843D0E72B
:102FD000B14207DB00986045E4D80AD0009F00208A
:102FE0006745C6D24F467842784140420123184394
:102FF000BFE7019A5245D5D8019A00205245F1D336
:10300000B7E7C046FF070000F8B55F46564644469E
:103010004D46F0B40C034D00CF0F610A440F21431D
:10302000C4001803DE0F8046B44646465800760AB0
:10303000530F3343D600D14A6D0DBA46400DB34607
:10304000904200D1F5E06246012672409446674501
:1030500000D1ABE02F1A002F00DC11E100283ED197
:103060005846184300D0F1E0600700D197E00F23E5
:103070002340042B00D122E1221DA242A44164423C
:10308000802309191B04012750460B400740141CDC
:10309000002B00D179E0B94B01359D4200D10BE105
:1030A000B74BE40819404807490204430B0B0020C2
:1030B00000211B031A0B0B0D6D051B0513436A083A
:1030C000B04DFF071D4015436D006D08291C3943A5
:1030D000201C3CBC90469946A246AB46F8BDA7488A
:1030E0008542C1D0802000040343382F00DDFDE07D
:1030F0001F2F00DD31E12020C01B1A1C5E468240DC
:10310000FE40324394465A468240101C421E904173
:10311000FB40624602431F1CA21A9442A44164422F
:10312000C91B091B141C0A029ED549024F0A002F15
:1031300000D1D6E0381CFEF7D1FE021C083A1F2A47
:1031400000DDC3E02821231C091A9740CB401F4310
:103150009440954200DDC0E0551B691C1F2900DD2D
:10316000EAE01F22551B3B1C221CAB40CA40AC406E
:10317000651EAC411343CF401C43391C002573E747
:1031800080217E4D0027C90300247C4B4807E408BA
:103190000443C9089D4250D009030B0B87E78023E5
:1031A0001B04012752460B40174071E72A1A944628
:1031B000002A00DCA1E0002854D07048854200D1EC
:1031C00052E78020000403436046382800DD0EE10A
:1031D0001F2800DD57E162462020801A1E1C864011
:1031E000B1465E46D6404A4632435E4686409046E9
:1031F000301C421E9041424602436046C3401219B1
:10320000A242A441644259180919141C080200D4AE
:103210002AE75A4B01359D4200D131E1584B6008F5
:103220001940012323401C1C0443CB071C434908BD
:103230001AE71E4300D00AE705E7231C0B433BD0E7
:1032400080231B030B431B031B0B30E7013F002FA5
:103250006DD15E46A21B9442A4416442C91A091B67
:10326000141C60E75846184300D1FDE6012676425B
:10327000B4446046002800D0D0E05E463219BFE773
:10328000002F00D080E0681C4005400D012800DCC4
:10329000E8E05A46A21A9442BF41C81A7F42C71BAF
:1032A0003E0200D498E05846041BA3459241591AA7
:1032B00052428F1AE2463AE700230024F7E68023C1
:1032C0001B04012756460B403740E1E6271C2838EF
:1032D00087400024954200DC3EE72949AD1A394079
:1032E000C2E6201CFEF7FAFD203026E75A461A43B4
:1032F000531E9A41D2B200270EE7002A00D0DEE02A
:10330000681C4605760D012E00DC90E01B4DA8429E
:1033100000D1F5E05E463219A242A4416442591838
:103320000919CC07520814434908051C9CE61348A8
:10333000854200D0D9E697E62B1C1F3B3E1CDE40A1
:10334000331C20296FD03F22551BAF403C43601EE9
:1033500084411C430021002586E6381C20381E1CB1
:10336000C640301C202F60D04022D71BBB405A469D
:103370001A43531E9A4102430027CDE6FF0700007F
:10338000FFFF7FFFFFFF0F80002D37D0B64DA84213
:1033900000D18FE080252D047F422943382F00DDA6
:1033A000A8E01F2F00DD24E12025ED1B0E1CAE4000
:1033B000B046261CFE404246AC401643651EAC415A
:1033C0003443F9405A46141BA34592415B1A5242BA
:1033D000991A051CE246A6E6131C3B43141C002B5D
:1033E00000D0A4E60027002100250024CDE65A469F
:1033F0001A43531E9A41D2B2002300E70D1C254305
:1034000058D0FF43002F51D15A46141BA345924177
:10341000591A5242891A051CE24684E692488542AE
:1034200000D0D1E620E6002790E700239FE7081CA4
:103430002043002D00D0C2E0002800D1EFE0584624
:10344000184300D110E658460219A242A441644232
:1034500059180919141C0A0200D405E6834B0125EA
:10346000194001E6081C2043002D38D100286FD1F7
:103470005946194303D0191C5C46E246F4E500277F
:103480000021002481E6604620381A1CC2406646AE
:10349000101C202E00D1AAE04022921B93405A46D5
:1034A0001A43531E9A4102430023A8E66E4DA842D8
:1034B00000D073E7191C5C46051CE246D4E5002DDC
:1034C00022D10D1C254376D0D543002D70D15C440C
:1034D0005C459241591852428918051C96E600280D
:1034E0004CD15946194300D14AE6191C5C46E246C4
:1034F0005D4DB9E50C43611E8C41E4B2002161E7EA
:10350000051C0021002440E6574DA84253D05542E7
:10351000802216043143382D7BDC1F2D00DD8CE02A
:103520002022561B0A1CB446B240261CEE403243F1
:10353000904662469440661EB44142461443E940B8
:103540005C445C459241CB1852429918051C5DE6DB
:103550005846184300D187E55E46A71BBC429241FE
:10356000C81A5242801A060260D55846041BA34569
:103570009241591A5242891AE24675E55846184353
:1035800033D04807E40804438020C90800030142FF
:1035900008D0DD08054205D15946CA085C07144326
:1035A000291CE246630FC9001943E4002E4D5BE578
:1035B0002D4A9042AFD1191C5C46051C54E50028E9
:1035C00030D05846184310D080254807E408C90871
:1035D0002D0304432942E5D0D8082842E2D15D46B4
:1035E000EA085C071443011CDCE71F4D3CE500239F
:1035F00055E73D1C203D0E1CEE40351C202F2ED0E3
:103600004026F71BB9400C43611E8C412C4300211E
:10361000D8E60C43611E8C41E4B2002190E7191CEE
:103620005C4621E5191C5C460F4D1DE5031C3B4320
:1036300000D124E7011C3C1C16E5202676427619B1
:103640000A1CF2409046202D0BD04026751BA94045
:103650000C43611E8C4145462C43002170E700213C
:10366000D1E70021F4E7C046FF070000FFFF7FFF1E
:1036700070B50B1C124C09030E0B5900021C490DAE
:10368000DD0F0020A14211DD0E4881420FDC8020B9
:10369000400306430C48401A1F280BDD0B4A521A00
:1036A000D640321C5042002D00D1101C70BD084B7A
:1036B000E818FBE7074BC240C9188E403243F1E7D8
:1036C000FE0300001D04000033040000130400008A
:1036D000FFFFFF7FEDFBFFFF10B5041E28D0FEF7B4
:1036E000FDFB154A121A0A2815DD0B388440240305
:1036F0005205240B520D0023002000212403181C26
:103700000B0D240B1B0523430C4C12051C401443CA
:103710006400610810BD031C1533211C99400B1C6B
:103720000B21081AC44024035205240B520DE3E771
:10373000002200240023DFE71E040000FFFF0F80AB
:10374000F0B54B000D03420F5B0D6D0A15435A1C7B
:103750005205CC0FC600520D012A27DD394FDA1968
:10376000FE2A1ADC002A35DD8001ED00431E984157
:103770002843760F3043430704D00F230340042B24
:1037800000D004308021C904014027D00132FF2A33
:103790001DD083015B0AD1B201E0FF210023580252
:1037A000C905400AE40708432043F0BD002B06D1B9
:1037B000354311D10021002043025B0AEFE72E437D
:1037C000EBD08020ED0080042843FF22D3E7FF21C7
:1037D0000023E4E717320DDA05200022C008D1B239
:1037E000FF2AE9D10028D9D08023DB0303435B0201
:1037F0005B0AD4E78022144912041543C91A1F2911
:103800000DDC124A371C9B18281C9F4098403B1C1B
:103810005A1E93411843CE4030430022ABE70C4F71
:103820002A1CFF1AFA40171C202909D0094A9818A7
:103830008540281C3043461EB041384300229AE799
:103840000020F7E780FCFFFF9E03000082FCFFFFE3
:103850007E030000A2FCFFFF80B500AF07F006FC6E
:10386000BD4680BD80B500AF07F0DEFC02F094FEDF
:10387000FFF7F2FFBD4680BDF0B5DDB008AF78625E
:103880003962FA617B6A181C08F04DFA031C802B20
:103890000AD9396AD14AFB69081C111C1A1C08F0A4
:1038A0000BFA002300F020FF7B6A181C0A2101F0AC
:1038B000BBF87B6A181C0D2101F0B6F87B6A181C56
:1038C00001F0DCF80023A6204000C019036037E0B7
:1038D000A6214900C9190B687A6AD218A624640087
:1038E000E4192368796AC9182C25FF357B190978F2
:1038F0001970BB4B19682C26FF36BB191B785BB2BD
:103900000133CB181B78DBB2191C03230B40012BAE
:1039100006D12C20FF303B181B785BB2203304E02B
:103920002C21FF317B181B785BB2DBB21370A6220F
:103930005200D21913680133A6246400E4192360ED
:10394000A6256D00ED192B687A6AD3181B78002B19
:10395000BED13B1CA03300221A6000225A60002214
:103960009A600022DA6000221A613B1C8C3300222C
:103970001A6000225A6000229A600022DA60002257
:103980001A613B1C803300221A6000225A60002218
:103990001A813B1C743300221A6000225A600022F4
:1039A0001A817A6A3B1CA03314210091101C191C47
:1039B0002022002302F032F87A6A3B1C8C33142157
:1039C0000091101C191C2022012302F027F83A1C38
:1039D000A032844B101C191CFEF73CFE031C002B6C
:1039E00000D08AE03A1C8C323B1C80330A210091C3
:1039F000101C191C2C22002302F010F83A1C8C32E7
:103A00003B1C74330A210091101C191C2C22012329
:103A100002F004F83B1C803392267600F6193360DE
:103A20003B1C743390204000C01903609221490070
:103A3000C9190B68181C0021102208F005FA031C94
:103A40008E225200D219136090246400E419236876
:103A5000181C0021102208F0F7F9031C8C256D00BA
:103A6000ED192B608E267600F61933685F2B05DC86
:103A70008E204000C0190368002B0ADA396A5A4ABE
:103A8000FB69081C111C1A1C08F016F9002300F031
:103A90002BFE8C214900C9190B68002B05DB8C22F9
:103AA0005200D2191368FF2B0ADD396A4F4AFB69AD
:103AB000081C111C1A1C08F0FFF8002300F014FE6B
:103AC0008E235B00DB191A688C246400E4192368D8
:103AD000101C191C01F03EFB386A4549FA698E2515
:103AE0006D00ED192B688C267600F6193468009469
:103AF00008F0E2F8012300F0F7FD3A1CA0323D4B3C
:103B0000101C191CFEF7A6FD031C002B00D0C6E0FC
:103B100001F07CFC3B1C8C331B78002B2CD03B1C15
:103B20008C33181C0021102208F08EF9031C8A2007
:103B30004000C01903608A214900C9190B68181C8C
:103B40001821FCF781FD0B1C1A1C2B4B9200D3583B
:103B50002A498A246400E41922688A181278141CFD
:103B6000386A27498A256D00ED192A68009408F003
:103B7000A3F8012300F0B8FD3B6A00221A7000236D
:103B8000A4267600F61933600023A2204000C01955
:103B900003607AE0A2214900C9190B685A1CA224CB
:103BA0006400E4192368DB000133A2256D00ED19E0
:103BB00029680131CC00381CB4301249009408F057
:103BC0007BF83A6A3B1CB433101C191C08F096F8B9
:103BD0000023A0267600F619336047E07800010044
:103BE00064E2FF1F9C000100A0000100C40001006E
:103BF000F00001000C01010000E2FF1F20F6FF1F92
:103C00001001010020010100CE4BA0204000C0198E
:103C100002689200D358CC49A4246400E4192268B5
:103C20008A181278141C381CB430C849A4256D00B9
:103C3000ED192A68009408F03FF83A6A3B1CB43347
:103C4000101C191C08F05AF8A4267600F6193368DF
:103C50000133A4204000C0190360A0214900C91904
:103C60000B680133A0225200D2191360A024640013
:103C7000E4192368172BC7DDA2256D00ED192B6809
:103C80000133A2267600F6193360A2204000C01945
:103C90000368032B00DC7DE7012300F025FD3A1CBF
:103CA000A032AB4B101C191CFEF7D4FC031C002BDC
:103CB0003FD101F0ABFB3A6AFB69101C191C08F0FC
:103CC0002AF800239E214900C9190B601EE09E4A74
:103CD0009E246400E4192368D3181B78391CB4317E
:103CE0009C4A081C111C1A1C07F0E6FF3A6A3B1C90
:103CF000B433101C191C08F001F89E256D00ED1955
:103D00002B6801339E267600F61933609E20400012
:103D1000C01903685F2BDADD3B6A181C08F003F852
:103D2000031C013B3A6AD31800221A70012300F0E9
:103D3000DBFC3A1CA032884B101C191CFEF78AFCD5
:103D4000031C002B42D13B1C8C331B78002B0AD167
:103D5000396A824AFB69081C111C1A1C07F0ACFF67
:103D6000002300F0C1FC3B1C8C33181C00211022E6
:103D700008F06AF8031C88214900C9190B608822E1
:103D80005200D2191368202B05DC88246400E41942
:103D90002368002B0ADC396A714AFB69081C111C74
:103DA0001A1C07F089FF002300F09EFC88256D0097
:103DB000ED192B68181C01F047FD031C386A69498E
:103DC000FA6907F079FF012300F08EFC3A1CA0325B
:103DD000654B101C191CFEF73DFC031C002B0AD080
:103DE0003A1CA032614B101C191CFEF733FC031C5B
:103DF000002B00D005E13A1C8C323B1C80330A2199
:103E00000091101C191C2C22002301F007FE3A1C03
:103E10008C323B1C74330A210091101C191C2C227B
:103E2000012301F0FBFD3B1C8033181C07F012FE40
:103E3000031CE026F61933603B1C7433181C07F092
:103E400009FE031CDC20C0190360E021C9190B68BE
:103E5000202B04DCE022D2191368002B0ADC396A1B
:103E6000434AFB69081C111C1A1C07F025FF00239C
:103E700000F03AFCE024E4192368013B002B00DA4F
:103E80000733DB101A1C131C5B009B18DB00D825C2
:103E9000ED192B60E026F61933685A1E354B134096
:103EA00004D5013B08225242134301330533D42089
:103EB000C019036000239C214900C9190B60DC2252
:103EC000D2191368182B31D8DC24E41923689A001E
:103ED000294BD3181B689F4600239C256D00ED19C4
:103EE0002B604DE001239C267600F619336047E0F5
:103EF00002239C204000C019036041E003239C2161
:103F00004900C9190B603BE004239C225200D219DE
:103F1000136035E005239C246400E41923602FE03E
:103F200006239C256D00ED192B6029E0396A134AA0
:103F3000FB69081C111C1A1C07F0BEFE002300F0D0
:103F4000D3FBC04600E2FF1F20F6FF1F1001010057
:103F50003C01010040010100480101004C01010049
:103F600070010100940101009C010100A001010009
:103F7000A801010007000080D8180100CC01010051
:103F8000D826F6193268D420C0190368D318D8226D
:103F9000D2191168D424E41922688A18DF498A5C8E
:103FA00070218A43D1B2DD4AD154D825ED192A684F
:103FB000D426F6193368D318D820C0190168D42440
:103FC000E41922688A18D549895C9C256D00ED1991
:103FD0002A68D2B21201D2B20A43D1B2CF4AD15426
:103FE000CF4B01221A70386ACE49FA69E026F619D9
:103FF0003368DC25ED192C68009407F05DFE012381
:1040000072E33A1CA032C84B101C191CFEF722FBAD
:10401000031C002B2AD13B1C8C331B78002B09D1AD
:1040200000F0EEFF031C386AC049FA6907F044FE4D
:10403000012359E33B1C8C33181C07F00BFD031CB8
:1040400086267600F619336086204000C019036882
:10405000181C00F0C9FF386AB549FA698624640063
:10406000E419236807F028FE01233DE33A1CA0323F
:10407000B04B101C191CFEF7EDFA031C002B00D0EE
:10408000A5E03A1C8C323B1C80330A210091101CA5
:10409000191C2C22002301F0C1FC3A1C8C323B1C61
:1040A00074330A210091101C191C2C22012301F0E9
:1040B000B5FC3B1C803384256D00ED192B603B1C47
:1040C0007433181C07F0C6FC021C0826FF36BB1907
:1040D000511E8A411A7084204000C0190268964B14
:1040E000101C191CFEF7B6FA031C002B30D101235B
:1040F0009A214900C9190B6014E09A235B00DB196F
:104100001A680824FF343B191B78101C191C00F096
:1041100027FB9A256D00ED192B6801339A2676004E
:10412000F61933609A204000C0190368202BE4DDA3
:104130000821FF317B181B78002B01D07F4B00E05A
:104140007F4B386A7F49FA6907F0B6FD0123CBE25D
:1041500084225200D2191368181C07F07BFC031C40
:104160007C1CFF3423607D1CFF352B68202B04DC76
:104170007E1CFF363368002B09DC396A724AFB6902
:10418000081C111C1A1C07F097FD0023ACE2781CD8
:10419000FF3002680821FF317B181B78101C191CA6
:1041A00000F0DEFA0822FF32BB181B78002B01D08A
:1041B000624B00E0624B386A6449FA697D1CFF3546
:1041C0002C680093231C07F077FD01238CE23A1C36
:1041D000A0325F4B101C191CFEF73CFA031C002B8D
:1041E00039D13B1C8C33181C07F034FC031CFC2613
:1041F000F6193360FC20C0190368202B04DCFC2175
:10420000C9190B68002B09DC396A524AFB69081C82
:10421000111C1A1C07F050FD002365E2FC22D21984
:104220001368181C00F0B0FB031C0C1CF025ED19E2
:104230002B606C60386A4849FA69FC26F6193568C3
:10424000F026F61933687468009301942B1C07F06C
:1042500033FD012348E23A1CA032404B101C191CCC
:10426000FEF7F8F9031C002B00D07BE02B4BD0228B
:104270009A702A4BD0229A76284A3223D021D154E0
:10428000264A4A23D021D154002398204000C01947
:1042900003602FE0002396214900C9190B601AE042
:1042A00098235B00DB191A68131C5B009B18DB006A
:1042B0001A1C96246400E4192368D3180533174A9E
:1042C0000521D15496256D00ED192B6801339626F2
:1042D0007600F619336096204000C0190368072B5A
:1042E000DEDD98214900C9190B680133982252007C
:1042F000D219136098246400E4192368032BC9DDE4
:10430000074B01221A70396A154AFB69081C111CF7
:104310001A1C07F0D1FC0123E6E1C04684F6FF1F1A
:1043200039E7FF1FEC010100040201000C0201004B
:10433000180201002C0201003402010038020100C1
:104340003C020100400201005C0201008002010009
:104350009C020100A0020100C4020100D40201007D
:10436000DC0201003A1CA032E14B101C191CFEF7C4
:1043700071F9031C002B0FD100F006FF01F050F97A
:1043800001F044F8396ADB4AFB69081C111C1A1C4D
:1043900007F092FC0123A7E13A1CA032D64B101C77
:1043A000191CFEF757F9031C002B14D172B600F04C
:1043B00097FCD24B1B681B68EC25ED192B60EC2693
:1043C000F6193368E820C0190360E821C9190B68A1
:1043D00000209847FEE73A1CA032C94B101C191C5C
:1043E000FEF738F9031C002B15D13B1C6033181C59
:1043F00001F05AFB3B1C4C33181C01F067FB386A78
:10440000C049FA693B1C60333C1C4C34009407F0F3
:1044100053FC012368E13A1CA032BB4B101C191C51
:10442000FEF718F9031C002B0DD13B1C2C33181C74
:1044300001F0A0FB386AB549FA693B1C2C3307F040
:104440003BFC012350E13A1CA032B14B101C191C5B
:10445000FEF700F9031C002B1AD13B1C8C33181CEF
:1044600001F0ACFB031C002B08D0386AA949FA699B
:104470003B1C8C3307F020FC012335E1396AA64A46
:10448000FB69081C111C1A1C07F016FC01232BE108
:104490003A1CA032A14B101C191CFEF7DBF8031CC0
:1044A000002B34D100F040FB031C181CFDF7C4FCAA
:1044B0003861796100F066FB031C181CFDF7BCFC39
:1044C000B860F96000F084FB031C181CFDF7B4FC15
:1044D000051C0E1C00F0A2FB031C181CFDF7ACFC15
:1044E00038607960386A8E49FA693B697C69009363
:1044F0000194BB68FC6802930394049505963C689C
:104500007D680694079507F0D7FB0123ECE03A1C81
:10451000A032844B101C191CFEF79CF8031C002BC6
:1045200000D0C9E0396A804AFB69081C111C1A1CBA
:1045300007F0C2FB3B6A181C07F0F5FB031C3A6A44
:10454000D2187A4B111C1A1C2B23081C111C1A1C84
:1045500007F0E4FA3B6A181C07F0E5FB031C3A6A13
:10456000D218734B111C1A1C5223081C111C1A1C44
:1045700007F0D4FA3B6A181C07F0D5FB031C3A6A13
:10458000D2186C4B111C1A1C2A23081C111C1A1C53
:1045900007F0C4FA3B6A181C07F0C5FB031C3A6A13
:1045A000D218654B111C1A1C2623081C111C1A1C3E
:1045B00007F0B4FA3B6A181C07F0B5FB031C3A6A13
:1045C000D2185E4B111C1A1C2623081C111C1A1C25
:1045D00007F0A4FA3B6A181C07F0A5FB031C3A6A13
:1045E000D218574B111C1A1C2423081C111C1A1C0E
:1045F00007F094FA3B6A181C07F095FB031C3A6A13
:10460000D218504B111C1A1C5C23081C111C1A1CBC
:1046100007F084FA3B6A181C07F085FB031C3A6A12
:10462000D218494B111C1A1C2423081C111C1A1CDB
:1046300007F074FA3B6A181C07F075FB031C3A6A12
:10464000D218424B111C1A1C3123081C111C1A1CB5
:1046500007F064FA3B6A181C07F065FB031C3A6A12
:10466000D2183B4B111C1A1C1F23081C111C1A1CAE
:1046700007F054FA3B6A181C07F055FB031C3A6A12
:10468000D218344B111C1A1C2523081C111C1A1C8F
:1046900007F044FA3B6A181C07F045FB031C3A6A12
:1046A000D2182D4B111C1A1C1623081C111C1A1C85
:1046B00007F034FA012317E03B1CA0331A783B1CA7
:1046C000E7331A703B1CE7331B78FF2B04D13B6A9E
:1046D00000221A70002307E0386A2049FA693B1C5F
:1046E000A03307F0E9FA0023181CBD4655B0F0BD11
:1046F000F4020100FC020100080301001C00001C80
:1047000014030100180301003C03010040030100F1
:104710004C030100540301007003010094030100E5
:104720009C030100C8030100D0030100E003010065
:104730000C040100600401008C040100B4040100B9
:10474000DC040100000501005C050100800501009A
:10475000B4050100D4050100FC05010014060100A8
:1047600080B58AB000AF78600A1CFB1C1A707B68A9
:10477000013B002B00DA0733DB101A1C131C5B0013
:104780009B18DB007B627B685A1E564B134004D596
:10479000013B082252421343013305333B627A6ADC
:1047A0003B6AD318FB617B6A1533BB617B6A0D33AF
:1047B0007B617B6A0E333B617B685A1E494B134019
:1047C00004D5013B08225242134301330122111C3C
:1047D00099400B1CFB60444BEC22DA70424B602288
:1047E000DA76414A33236021D1543F4A4B2360217A
:1047F000D154FB1C1B78002B37D03B4AFB69D318E4
:104800001B7808229343DAB23749FB69CB181A7038
:10481000354AFB69D3181A7878231340DAB2324943
:10482000FB69CB181A70304A7B69D3181B78DAB24F
:10483000FB68DBB21343DBB2DAB22B497B69CB18DE
:104840001A70294A3B69D3181B78DAB2FB68DBB2CD
:104850001343DBB2DAB224493B69CB181A70224AFF
:10486000BB69D31820221A7036E01F4AFB69D3189F
:104870001B78802252421343DAB21B49FB69CB18E2
:104880001A70194AFB69D3181B7801221343DAB254
:104890001549FB69CB181A70134A7B69D3181B782A
:1048A000DBB2FA68D2B2D243D2B21340DBB2DAB290
:1048B0000D497B69CB181A700B4A3B69D3181B78DA
:1048C000DBB2FA68D2B2D243D2B21340DBB2DAB270
:1048D00005493B69CB181A70044B01221A70BD467A
:1048E0000AB080BD0700008084F6FF1F39E7FF1F74
:1048F00080B586B000AF78607B68013B002B00DAA2
:104900000733DB101A1C131C5B009B18DB007B6158
:104910007B685A1E184B134004D5013B08225242B3
:104920001343013305333B617A693B69D318134A5A
:10493000D35C1B09DBB21A1C07231340FB60FB6826
:10494000062B13D8FB689A000D4BD3181B689F46A3
:1049500001230CE002230AE0042308E0062306E01A
:10496000082304E00C2302E0182300E00023181CB5
:10497000BD4606B080BDC0460700008084F6FF1F1C
:104980003C19010000000000F0B585B000AF786070
:104990007B68181C00F058FF031CFB607B68181C28
:1049A000FFF7A6FF031CBB60F868FDF707FA031CBE
:1049B0000C1C181C211C174B154AFCF76FFF031C1D
:1049C0000C1C1D1C261CB868FDF7F8F9031C0C1CF8
:1049D000114812491A1C231CFCF73CFC031C0C1C3C
:1049E000181C211C0E4A0F4BFCF734FC031C0C1C3A
:1049F000281C311C1A1C231CFCF750FF031C0C1C28
:104A0000181C211CBD4605B0F0BDC046C046C046BE
:104A10000000000000408F40000000000000224025
:104A2000000000000000704180B584B000AF7860E5
:104A30000A1CFB1C1A707B68FB607B68BB6012E081
:104A4000FB685A1CFA601A78BB681A70BB681B783E
:104A5000FA1C127852B25BB2D31A5A1E9341DBB2DF
:104A6000BA68D318BB60FB681B78002BE8D1BB6821
:104A700000221A70BD4604B080BDC04680B584B027
:104A800000AF78600023FB600023BB601CE0FB6884
:104A90007A68D3181B785BB2082B09D1BB68002B4E
:104AA00002D0BB68013BBB60FB680133FB600BE0DD
:104AB000BB685A1CBA607A68D218FB68591CF96046
:104AC0007968CB181B781370FB687A68D3181B7849
:104AD000002BDCD1BB687A68D31800221A70BD465F
:104AE00004B080BD80B584B000AF021CBB1D1A802D
:104AF0000B4BFB600B4BBB60BB1D1B88181CFCF7F2
:104B000059FB031C181CF968FCF7B4F8031C181CAB
:104B1000B968FBF789FF031C181CBD4604B080BDB3
:104B20000000204000FF7F4780B582B000AF124BED
:104B30007B60124B114AD26810210A43DA60104B95
:104B4000002000211A1C06F0EFF80020002106F0DA
:104B50001BF90020002106F043F9031C181CFFF785
:104B6000C1FF031C3B6038687968FCF783F8031CBD
:104B7000181CBD4602B080BD3B708C4000B00340A5
:104B80009421010080B582B000AF8023DB057B60FB
:104B90000E4B002000211A1C06F0C6F80020002150
:104BA00006F0F2F80020002106F01AF9031C181C88
:104BB000FFF798FF031C3B6038687968FCF75AF8E8
:104BC000031C181CBD4602B080BDC04698210100E0
:104BD00080B582B000AF8023DB057B600E4B0020E8
:104BE00000211A1C06F0A0F80020002106F0CCF8E5
:104BF0000020002106F0F4F8031C181CFFF772FFD8
:104C0000031C3B6038687968FCF734F8031C181CF7
:104C1000BD4602B080BDC0468C21010080B586B083
:104C200000AF204B7B61204B3B61204BFB60204B56
:104C30001F4AD26810218A43DA601E4B00200021EF
:104C40001A1C06F071F80020002106F09DF80020E3
:104C5000002106F0C5F8031C181CFFF743FF031CD6
:104C6000BB60F868B968FCF72FF9031C181C396998
:104C7000FBF7DAFE031C7B6078693969FBF768FD96
:104C8000031C181C7968FBF7F5FF031CF868191C56
:104C9000FCF71AF9031CBB60BB68181CBD4606B0C4
:104CA00080BDC0460000CC42CDCC20420000204058
:104CB00000B003409021010080B500AF064B0020FA
:104CC000191C802204F04AFA044B0120191C80228E
:104CD00004F042FEBD4680BD28E3FF1FA8E3FF1F8E
:104CE00080B500AF002004F089FD012004F086FDAE
:104CF000BD4680BD80B584B000AF3B1D0020191CAF
:104D000004F070FA7B68002B06D1294B0020191C97
:104D1000802204F023FA48E07B688022D31ABB602B
:104D20000023FB603DE0224AFB68D3181B780D2B63
:104D300034D1FB681F491E4A081C111C1A1C06F0BE
:104D4000EDFE002004F082FA194B0020191C80228D
:104D500004F004FA174AFB68D31800221A701549A8
:104D6000154A164B081C111C1A1CFEF785FD124B28
:104D7000181C06F0D8FF031C1A1C0F4BD218104B3E
:104D8000111C1A1C0323081C111C1A1C06F0C6FE59
:104D9000094B181C002100F03DF906E0FB680133C7
:104DA000FB60FA68BB689A42BDDBBD4604B080BDBB
:104DB00028E3FF1F28E4FF1FDCE7FF1F3406010084
:104DC0003C06010080B584B000AF0023FB603B1DB2
:104DD0000120191C04F004FE7B68002B09D1394B1B
:104DE0000120191C802204F0B7FD374B00221A6005
:104DF00064E07B685A42344B1B68D31A8033BB6033
:104E0000314B1B68FB604FE0C046FA682F4BD3184C
:104E10000120191C012204F05BFD031C002BF4D1BE
:104E20002A4AFB68D3181B780D2B3AD1264B1A68F7
:104E3000FB68D3182649254A081C111C1A1C06F0C9
:104E40006DFE012004F004FE204B0120191C80227D
:104E500004F082FD1E4AFB68D31800221A701C4918
:104E60001C4A1D4B081C111C1A1CFEF705FD194B92
:104E7000181C06F058FF031C1A1C164BD218174BAF
:104E8000111C1A1C0623081C111C1A1C06F046FED5
:104E9000104B181C012100F0BDF80B4B00221A60CA
:104EA0000CE0FB680133FB60074B1A68BB68D21843
:104EB000FB689A42A8DC044BFA681A60BD4604B04D
:104EC00080BDC04628E3FF1FA8E4FF1FA8E3FF1F23
:104ED000ACE4FF1FDCE7FF1F4006010048060100AD
:104EE00080B500AF134B1A68134B1B689A421AD057
:104EF000104B1968114B1B68581C104A1060104A5F
:104F0000081C191C00F01EF80D4B181C002100F0A5
:104F100081F8084B1B680133064A1360642B02D1E9
:104F2000044B00221A60FFF7E5FEFFF74BFFBD467A
:104F300080BDC04634E7FF1F30E7FF1F2CE5FF1F91
:104F400030E5FF1F80B59EB000AFF860B9607A60B1
:104F50007968204ABB68081C111C1A1C06F0ACFEBC
:104F600000237B6718E01C4BFA6851017A6F8A189E
:104F70009200D358391C1031184A081C111C1A1CF5
:104F800006F09AFE7A683B1C1033101C191C06F0C0
:104F9000B5FE7B6F01337B677B6F1F2BE3DD104B0F
:104FA0001B68391C10310F4A081C111C1A1C06F012
:104FB00083FE0B4B1B68002B02D0094B00221A60AA
:104FC0007A683B1C1033101C191C06F097FEBD4676
:104FD0001EB080BD50060100E4F6FF1F5C06010014
:104FE00024E3FF1F6406010080B582B000AF786043
:104FF000024B7A681A60BD4602B080BD24E3FF1FF1
:1050000080B500AF024B1B68181CBD4680BDC04672
:1050100024E3FF1F80B582B000AF786039603B6841
:10502000002B02D0012B10D01FE0C0467B68181C5B
:1050300006F079FE031C7A680020111C1A1C04F08B
:1050400049F8031C002BF1D10FE0C0467B68181C07
:1050500006F069FE031C7A680120111C1A1C04F07A
:1050600037FC031C002BF1D1C046BD4602B080BD09
:1050700080B500AFBD4680BD80B582B000AF78601E
:105080000A1CFB1C1A70FB1C1B780D20191C05F058
:1050900061F9BD4602B080BD80B582B000AF7860D6
:1050A0000D2005F0ADF9031C5A1E9341DBB2181C0C
:1050B000BD4602B080BDC04680B500AF0C4B1B683A
:1050C000002B00D011E00A4B64221A600120FFF788
:1050D000E3FF031C002B04D001200021FFF7CCFFCD
:1050E00003E001200121FFF7C7FFBD4680BDC04698
:1050F000DCEFFF1F80B582B000AF78607A680123D3
:10510000134005D0C0239B00181C05F041F904E0B2
:10511000C0239B00181C05F057F97A68022313403E
:1051200004D00B4B181C05F033F903E0084B181C96
:1051300005F04AF97A680423134003D0052005F0EE
:1051400027F902E0052005F03FF9BD4602B080BD19
:105150000103000080B582B000AF786039603B6821
:10516000DAB205497B68CB181A70044B01221A7019
:10517000BD4602B080BDC04684F6FF1F39E7FF1F61
:1051800080B500AFBD4680BD80B500AFFA235B009F
:10519000181C00F02DFC122005F016F90C2005F06B
:1051A00013F989235B00181C05F00EF9FA235B0044
:1051B000181C00F01DFC122005F0EAF80C2005F088
:1051C000E7F8FA235B00181C00F012FC122005F02F
:1051D000FBF8FA235B00181C00F00AFC122005F013
:1051E000D7F8FA235B00181C00F002FC00F0F4F979
:1051F0000120B621012200F081F9FA235B00181C7E
:1052000000F0F6FB00F0E8F90E2000F0F7F9FA23C1
:105210005B00181C00F0ECFB00F0DEF90120962189
:105220000E2200F06BF90220D0210F2200F066F967
:105230000320EC210F2200F061F9BD4680BDC0467D
:1052400080B500AF074B1B78DBB2002B08D0064BB4
:105250001B78002B04D000F0F5F9024B00221A70E5
:10526000BD4680BD38E7FF1F3BE7FF1F90B585B007
:1052700000AF0023FB60B9E00023BB60AFE0FA6839
:10528000131C5B009B18DB001A1CBB68D3187B60E7
:10529000BB68002B0BD15A4A7B68D3181B780122BC
:1052A0001343DAB256497B68CB181A7071E0BB68B9
:1052B000012B0ED1FB68002B05D1514A7B68D31816
:1052C000F6221A7065E04E4A7B68D318D6221A700F
:1052D0005FE0BB68022B17D1494A7B68D3181B7863
:1052E000402252421343DAB245497B68CB181A7008
:1052F000434A7B68D3181B7824229343DAB240498F
:105300007B68CB181A7044E0BB68032B0CD13C4A75
:105310007B68D3181B78202252421343DAB23849F3
:105320007B68CB181A7034E0BB68042B0BD1344A6D
:105330007B68D3181B7810229343DAB230497B681C
:10534000CB181A7025E0BB68152B0BD12C4A7B6853
:10535000D3181A7820231340DAB229497B68CB1876
:105360001A7016E0BB68162B05D1254A7B68D31846
:1053700000221A700DE0BB68172B0AD1204A7B6807
:10538000D3181A780A231340DAB21D497B68CB1868
:105390001A701C4A7B68D3181A7819497B68CB1895
:1053A0001B789A4218D0BB68D9B2154A7B68D318CB
:1053B0001A780120FB68041C9C40231CDBB2081CEB
:1053C000111C1A1C00F09AF80D4A7B68D3181A7841
:1053D0000C497B68CB181A70BB680133BB60BB6893
:1053E000172B00DC4BE7FB680133FB60FB68032BEA
:1053F00000DC41E7044B00221A70BD4605B090BDA9
:1054000084F6FF1F20F6FF1F39E7FF1F80B584B029
:1054100000AF0023FB6037E00122FB68111C9940BC
:105420000B1CDBB2181C00F08DF8202000F036F8C1
:10543000172000F033F80023BB601CE0FA68131C4F
:105440005B009B18DB001A1CBB68D3187B60002034
:1054500000F024F8031C1A1C0E497B68CB181A7044
:105460000C4A7B68D3181A780B497B68CB181A70E2
:10547000BB680133BB60BB68172BDFDD002000F089
:1054800061F8FB680133FB60FB68032BC4DDBD469C
:1054900004B080BD20F6FF1F84F6FF1F80B584B0E6
:1054A00000AF021CFB1D1A70C046134B1B78DBB209
:1054B0001A1C20231340F8D004E00F4A3B1C0F3382
:1054C00092791A700C4B1B78DBB2DBB25BB2002B0B
:1054D000F3DB094BFA1D12789A71C046064B1B7814
:1054E000DBB2DBB25BB2002BF8DA034B9B79DBB2A9
:1054F000181CBD4604B080BD0060074080B582B076
:1055000000AFFB1D1870BB1D19707B1D1A707B1D31
:105510001B78181C00F016F8FB1D1B784033DBB21B
:10552000181CFFF7BBFF0020FFF7B8FFBB1D1B785F
:10553000181CFFF7B3FF002000F004F8BD4602B0CE
:1055400080BDC04680B582B000AF021CFB1D1A7042
:10555000FB1D1B78002B14D11423FF33181C04F0FF
:1055600017FF1223FF33181C04F012FF0423FF332C
:10557000181C04F00DFF0223FF33181C04F008FF71
:1055800027E0FB1D1A780123134004D01423FF33B6
:10559000181C04F019FFFB1D1A780223134004D0D5
:1055A0001223FF33181C04F00FFFFB1D1A7804238D
:1055B000134004D00423FF33181C04F005FFFB1D27
:1055C0001A780823134004D00223FF33181C04F078
:1055D000FBFEBD4602B080BD80B500AF0F20FFF7D7
:1055E000B1FF1120FFF75AFF0020FFF7ABFF024B7E
:1055F00001221A70BD4680BD3AE7FF1F80B582B018
:1056000000AF78607B68DBB2181CFFF79BFF0620B9
:10561000FFF744FF0020FFF795FFBD4602B080BDB5
:1056200080B500AF0F20FFF78DFF0820FFF736FF92
:105630000020FFF787FF024B01221A70BD4680BD94
:105640003BE7FF1F90B585B000AF0023FB60002350
:10565000BB60784B1B78002B02D0FFF707FECDE034
:10566000CCE0FB68012B0CD002DC002B05D014E051
:10567000022B0AD0032B0CD00FE00120FFF762FFB2
:105680000BE00220FFF75EFF07E00420FFF75AFF60
:1056900003E00820FFF756FFC0461220FFF7FEFE8A
:1056A0000020FFF7FBFE031C1B047B60624B1A68A3
:1056B000624B9100FA688A1892007968D1500020F4
:1056C000FFF7ECFE031C1B027B605B4B1B685B4A15
:1056D0009800F9684118890089587A688918574AEA
:1056E0009800FB68C3189B0099500020FFF7D6FE76
:1056F000031C7B60504B1B68504A9800F9684118A6
:10570000890089587A6889184C4A9800FB68C31840
:105710009B0099500023BB6067E00020FFF7BEFEAE
:10572000031C1B067B60444B1868FB68DA00BB68EF
:10573000D2187968424B400182189200D150002063
:10574000FFF7ACFE031C1B047B603B4B1B68FA6835
:10575000D100BA688818FA68D100BA688918384A3E
:105760005C01611889008A58111C7A688A18111C1A
:10577000334A5B011B189B0099500020FFF78EFEF7
:10578000031C1B027B602C4B1B68FA68D100BA68B3
:105790008818FA68D100BA688918294A5C0161182A
:1057A00089008A58111C7A688A18111C244A5B01E6
:1057B0001B189B009950204B1868FB68DA00BB68E7
:1057C000D2181D4B1C68FB68D900BB68C9181C4B5C
:1057D000640161188900CB581912194B40018218D5
:1057E0009200D150BB680133BB60BB68072B94DDCE
:1057F0000020FFF7A7FEFB680133FB60FB68032B6B
:1058000000DC2EE70C4B1B685A1C0B4B1A600A4B32
:105810001A680C4B1B689A4202D10A4B00221A608C
:10582000054B1B68642B02D1034B00221A60BD4656
:1058300005B090BD39E7FF1F30E7FF1FE0EFFF1F06
:10584000E4F6FF1F34E7FF1F80B584B000AF786037
:105850000B4B1B68FB60FB68013BFB60FB68002B8C
:1058600001DA6423FB607B685A1E064BF968490124
:105870008A189200D358181CBD4604B080BDC0469B
:1058800030E7FF1FE4F6FF1F80B582B000AF7860FD
:105890007A68A02301214942D150BD4602B080BDA3
:1058A00080B582B000AF786039603B68012B06D9C3
:1058B00009489C235900094A094B06F0ADF879685C
:1058C0003A6884235B0012018A18D31801225A60B7
:1058D000BD4602B080BDC046440701005819010012
:1058E000B407010080B500AF002002F0ADFCBD465A
:1058F00080BDC04680B500AF184B1B68181C002146
:10590000FFF7CEFF164B1B88002B05D0144B1B88CE
:10591000013B9AB2124B1A80124B1B88002B05D008
:10592000104B1B88013B9AB20E4B1A800E4B1B8802
:10593000002B05D00C4B1B88013B9AB20A4B1A80F6
:105940000A4B1B889BB2002B06D0084B1B889BB2CE
:10595000013B9AB2054B1A80BD4680BDF01B010089
:10596000DCEFFF1FE428002080F6FF1FD8E7FF1FB1
:1059700080B500AF024B181CFFF786FFBD4680BD07
:1059800000C0044080B500AF044B181CFFF77CFF3B
:10599000034B01221A70BD4680BDC04600900440F2
:1059A00038E7FF1F80B500AFBD4680BD80B500AFB2
:1059B000FDF758FFFFF780F90C4B181C0121FFF78A
:1059C00029FBFFF755FBFFF7DBFBFFF7DDFBFFF7DD
:1059D00027FEFFF71BFD0220FFF78CFBFFF76CFB98
:1059E000FFF72EFCFFF77CFAF8E7C046DC07010062
:1059F00080B582B000AF021CBB1D1A80BB1D1B8886
:105A0000DAB2054B1A70C046034B1B78DBB2002B91
:105A1000FAD1BD4602B080BDE428002080B588B030
:105A200000AFF860B9603B60FB1D1A700023FB619A
:105A30000023BB6100237B612AE07B69FA68D318ED
:105A40001B78FA1D127852B25BB29A4203D1FB69FD
:105A50000133FB6119E0FA693B689A4215D1BB69D1
:105A60005A1CBA61BA68D3187A69F9688A18127828
:105A70001A70BB69BA68D31800221A703B1C28330D
:105A80001A78BB699A4200D108E07B6901337B61D7
:105A90007B69FA68D3181B78002BCED1FB69181CE0
:105AA000BD4608B080BDC04690B585B002AF7860F5
:105AB00001220623022478680349009406F0FCF8CA
:105AC000BD4603B090BDC046FC07010090B585B04F
:105AD00000AF7860214B181C04F092FC031CDC0022
:105AE0001F4B181C04F08CFC031C9B00E4181D4B7E
:105AF000181C04F085FC031C5B00E41880239B0049
:105B0000181C04F07DFC031CE318FB60FB680E2BE3
:105B10000CD00F2B15D17A68134B111C1A1C0423BF
:105B2000081C111C1A1C05F0F9FF14E07A680F4BD1
:105B3000111C1A1C0423081C111C1A1C05F0EEFF72
:105B400009E07A680A4B111C1A1C0823081C111C56
:105B50001A1C05F0E3FFBD4605B090BD030200002E
:105B60000202000001020000080801000C08010008
:105B70001008010080B584B000AF78607B68181C05
:105B800000F04AF87B681B78DAB23B1C0F331A70BE
:105B90003B1C0F331B78DBB2FF2B09D17A68064B15
:105BA000111C1A1C0823081C111C1A1C05F0B6FF36
:105BB000BD4604B080BDC0461808010080B58CB059
:105BC00000AF78603B1C0C33181C00F025F83B1C20
:105BD0000C331A783B1C2F331A703B1C2F331B7865
:105BE000FF2B01D0002313E03B1C0C33181C0021B9
:105BF000202205F09CFF3A1C0C327B68101C191CFB
:105C000006F089F83B1C0C33181C00F055F8031CF7
:105C1000181CBD460CB080BD80B584B000AF786064
:105C200072B60023FB603DE0224B4122DA71214B2A
:105C3000FA68D2B29A711F4B30221A701D4B1D4A5E
:105C40001278D2B2802149420A43D2B21A70C046B9
:105C5000184B1B78DBB2DBB25BB2002BF8DA7B6847
:105C60005A1C7A60134AD27AD2B2D2B21A707B68C6
:105C70005A1C7A600F4A927AD2B2D2B21A707B68FA
:105C80005A1C7A600B4A527AD2B2D2B21A707B682E
:105C90005A1C7A60074A127AD2B2D2B21A70FB68E2
:105CA0000133FB60FB68072BBEDD62B6BD4604B066
:105CB00080BDC0460000024080B584B000AF78606F
:105CC00072B60023FB6041E0254B4322DA71244B7E
:105CD000FA68D2B29A71224B30221A70204A7B683D
:105CE000591C79601B78DBB2D3721D4A7B68591C42
:105CF00079601B78DBB29372194A7B68591C796012
:105D00001B78DBB25372164A7B68591C79601B788A
:105D1000DBB21372124B124A1278D2B2802149427E
:105D20000A43D2B21A70C0460D4B1B78DBB2DBB20D
:105D30005BB2002BF8DA0A4B1B78DBB2802B02D067
:105D400062B6002307E0FB680133FB60FB68072BAA
:105D5000BADD62B60123181CBD4604B080BDC04642
:105D60000000024090B585B000AFF860B9607A607D
:105D7000BB68002B02D101235B421AE0FB68012BB8
:105D800005D0FB68022B02D001235B4211E00B4BD4
:105D90001B78002B02D101235B420AE0074B9C6871
:105DA000064B59687B68BA68081C111C1A1CA0476E
:105DB0007B68181CBD4605B090BDC0463CE7FF1F80
:105DC00090B585B000AFF860B9607A60FB68002BD1
:105DD00002D001235B4211E00A4B1B78002B02D159
:105DE00001235B420AE0074BDC68064B59687B687D
:105DF000BA68081C111C1A1CA0477B68181CBD46F9
:105E000005B090BD3CE7FF1F80B584B000AF78605F
:105E1000114B1B68002B02D10F4B104A1A600E4B1E
